:020000040800F2
:10000000B0560020690200085F6400087D550008B2
:100010005B6400083D1700086B83000800000000C7
:10002000000000000000000000000000097D000842
:100030006D19000800000000EB020008197F00089D
:10004000830200088302000883020008830200087C
:10005000830200088302000883020008830200086C
:10006000830200088302000883020008830200085C
:10007000830200088302000883020008830200084C
:10008000830200088302000883020008830200083C
:10009000830200088302000883020008551A000842
:1000A000830200088302000883020008830200081C
:1000B000A97F000883020008F58000088302000879
:1000C00083020008830200088302000883020008FC
:1000D000830200088302000883020008918200085E
:1000E00071190008830200088302000883020008D7
:1000F00083020008830200088302000883020008CC
:1001000083020008830200088302000883020008BB
:1001100083020008830200088302000883020008AB
:10012000830200088302000883020008830200089B
:10013000830200088302000883020008830200088B
:10014000830200088302000883020008830200087B
:10015000830200088302000883020008830200086B
:10016000830200088302000883020008830200085B
:10017000830200088302000883020008830200084B
:10018000830200088302000800F002F800F05CF827
:100190000AA090E8000C82448344AAF10107DA45E2
:1001A00001D100F051F8AFF2090EBAE80F0013F0D8
:1001B000010F18BFFB1A43F0010318475C4D010003
:1001C0007C4D01000A444FF0000C10F8013B13F085
:1001D000070408BF10F8014B1D1108BF10F8015BA0
:1001E000641E05D010F8016B641E01F8016BF9D193
:1001F00013F0080F1EBF10F8014BAD1C0C1B09D1EA
:100200006D1E58BF01F801CBFAD505E014F8016B5B
:1002100001F8016B6D1EF9D59142D6D370470000ED
:100220000023002400250026103A28BF78C1FBD8FF
:10023000520728BF30C148BF0B6070471FB50EF092
:1002400060FA1FBD10B510BD00F054FF1146FFF756
:10025000F5FF0DF041FA00F072FF03B4FFF7F2FF73
:1002600003BC00F073FF00000948804709480047BD
:10027000FEE7FEE7FEE7FEE7FEE7FEE7FEE7FEE756
:10028000FEE7FEE704480549054A064B70470000B3
:10029000417F000889010008B0500020B0560020BE
:1002A000B0520020B0520020EFF3108072B67047B9
:1002B00080F3108870471D484FF0FF010170002047
:1002C00080F309881A48012101701A484FF08051C3
:1002D000016062B6FEE717484FF080510160704739
:1002E00014484FF080510160704772B6EFF30980F7
:1002F00028B1203880E8F00F0F490968086000B580
:100300000E4880475DF804EB0D480E490A780270EC
:1003100009480D490A680260106890E8F00F203023
:1003200080F309884EF0040E62B6704722ED00E0BB
:10033000B600002004ED00E0BC0000200B660008C1
:10034000AB000020AC000020C400002072B6704753
:1003500062B67047EFF3108072B6704780F3108872
:100360007047B0FA80F0704790FAA0F0704730BF45
:10037000704720BF70470000DFED2E0AB5EEC00ABF
:1003800060EE200ABDEEE01A11EE100AF1EE10FA4E
:1003900038BF401E00EE100ADFED271AF7EE005AB4
:1003A000B8EEC00ADFED274A244930EEC01A21EE2C
:1003B000210AFCEEC00A10EE900A00EE900A01EB52
:1003C0008000B8EE600ADFED1E0AF0EC012A11EEA3
:1003D000210AF6EE001AB0EC013AF0EC013A20EEF8
:1003E000001A20EE216A40EE615A20EE245A21EED6
:1003F000212A90ED004A00EE602A66EE010A40EEE6
:10040000400A05EE412A70EEA55AF0EE400A41EE90
:10041000210A46EE410A25EE011A00EE641A22EE88
:10042000820A63EEA00A03EE250A44EE010A30EECA
:10043000200A704783F9223E0000804368E80008E4
:10044000ABAAAA3EABAA2A3E9FED3A0A5FEA920CFB
:1004500053D000BFB0EC011A0B1DF0EC010A21EEE5
:10046000011A00EEA01AB5EEC01AF1EE10FAC6BFDE
:10047000F1EEC10AC1ED000A81ED000AF0EC010ABB
:10048000191DB0EC011A60EEA00A41EE010AF5EE6A
:10049000C00AF1EE10FAC6BFF1EEE00AC3ED000AA1
:1004A00083ED000AB0EC011A0B1DF0EC010A21EEFD
:1004B000011A00EEA01AB5EEC01AF1EE10FAC6BF8E
:1004C000F1EEC10AC1ED000A81ED000AB0EC011A9B
:1004D000191DF0EC010A21EE011A00EEA01AB5EE8A
:1004E000C01AF1EE10FAC6BFF1EEC10AC3ED000A60
:1004F00083ED000ABCF1010CACD112F0030208BF7D
:10050000704700BFF0EC010A0B46B0EC011A091D60
:1005100060EEA00A41EE010AF5EEC00AF1EE10FA13
:10052000C6BFF1EEE00AC3ED000A83ED000A521ED9
:10053000E8D17047000000002DE9F00700EBC10989
:10054000DDE90778D0F800A0C9F800A007EB011496
:10055000D0F804A0251FA9F10406C9F804A003EBF4
:10056000C80907F1080C00F1080402EBC8024B1E91
:1005700031D000BFF2EC011A96ED002A92ED001A7C
:1005800002EBC802B4EC010A121FF4EC012A60EE7F
:10059000210A20EE010A32EE823A02EEA10AD9EDDA
:1005A000001A43EE410A09EBC80902EE610A16ED92
:1005B000012A083E42EE210A02EE410AECEC010A51
:1005C000ACEC010AB1EE400A85ED000A45ED010AE6
:1005D000083D5B1ECED190ED000AD0ED010A07EB7D
:1005E000C10130EE600A81ED000A9FED5D0A81EDE8
:1005F000010AD0ED000A90ED011A70EE810AC7EDF4
:10060000000A87ED010ABDE8F007704770B400EBFF
:10061000C105DDE903C42D1D002904BF70BC70476E
:10062000F2EC011A95ED002A92ED001A02EBC402D9
:10063000B0EC010A121FF0EC012A60EE210A20EE54
:10064000410A32EE823A02EEA10AD3ED001A43EEDD
:10065000010A03EBC40302EE610A15ED012A083D0D
:10066000491E42EE210A02EE010AECEC010AACEC52
:10067000010AD5D170BC70472DE9F04305464469A5
:10068000807983B00F461646012809D0A3892188B6
:100690003846626800F036F9E87901284ED053E018
:1006A000AA88D5E9030307EBC20CD5F808803146C8
:1006B0000CF1040C5AB300BFB0EC011A9CED002AF7
:1006C000D0ED001A00EBC800B7EC010A001FF7ECF0
:1006D000012A521E60EE010A20EE610A32EE823AD1
:1006E00002EE810A93ED001A43EE210A03EBC803E0
:1006F00002EE410A1CED012AACF1080C42EE010A9F
:1007000002EE210AE1EC010AA1EC010AD4D194ED38
:10071000040AA38921883046626800F095FAE879D6
:1007200001281CBF03B0BDE8F083E2892188A368DB
:1007300003B03046BDE8F04300F08CB8E289218870
:100740003846A36800F086F8A868CDE90060D5E9CE
:100750000323A9883846FFF7EFFE03B0BDE8F08316
:100760000000000070B592B2DDF810C055080260BC
:100770008580184EC66006F50056DBB2066100247F
:10078000837180F807C0802A04BF102282600BD0DA
:10079000B2F5007F08BF042212D0B2F5006F14BF7B
:1007A0004FF0FF3401220BD0002B8C4641614FF0FB
:1007B000000307D001222946604600F015FC06E040
:1007C0008260F1E700222946604600F00DFC2046D9
:1007D00070BD000074EC000870B40025B0EC010A94
:1007E000A1F1010CF0EC010AB4EEE00AF1EE10FA0E
:1007F0003CBFB0EE600A0125ACF10104A446B4F19F
:10080000004F0ED3F0EC010AB4EEE00AF1EE10FA5C
:100810003CBFB0EE600AA1EB0C05BCF1010CF1D1BC
:1008200013E0002CC8BF00260FDD00BFF0EC010A6A
:10083000B4EEE00AF1EE10FA04D2ACEB0605B0EE2D
:10084000600A4D1B761C641EF0D182ED000A1D600B
:1008500070BC70472DE9F0014E0801244FF0000CE8
:1008600004EB51076146A6F102082CE061452AD24B
:1008700000EBCC0500EBC104D5ED000A94ED000AB5
:10088000C4ED000A85ED000AD5ED010A94ED010AD8
:10089000C4ED010A85ED010A0CEB0705CC1900EB4C
:1008A000C50500EBC404D5ED000A94ED000AC4EDC3
:1008B000000A85ED000AD5ED010A94ED010AC4EDA8
:1008C000010A85ED010A00EBC104B44400EBCC0C35
:1008D00094ED020ADCED000A891CC4ED020A8CEDDD
:1008E000000A94ED030ADCF80450E5608CED010A7F
:1008F000B3F800C089B203EB42034145B6D9BDE865
:10090000F00170472DE9F04F4FEA910C4FF00008CD
:100910004746644608EB0C0505EB0C0909EB0C0691
:1009200000EBC80A00EBC9099AED000AD9ED000AEC
:1009300099ED012A00EBC50530EE201A30EE600A71
:10094000DAED010A00EBC60608F1010870EE821A22
:1009500070EEC20A95ED002AD6ED002A641E32EE32
:10096000222A71EE022A31EE421ACAED002A95EDD2
:10097000012AD6ED012A32EE222A71EE822A71EE88
:10098000C21ACAED012A95ED012AD6ED012A96ED8B
:10099000003A4FEA470A32EE622AD5ED002A02EB0E
:1009A000CA0B72EEC32A9BED003ADBED013A21EE51
:1009B000034A01EEA34A61EE831A41EE631A85ED04
:1009C000004A30EE021A30EE420AC5ED011A02EB7F
:1009D000C70570EEE21A95ED002A70EEA20AD5ED79
:1009E000012A21EE023A0AEB070502EBC5051F4476
:1009F00001EEA23A61EE821A41EE621A89ED003AE6
:100A0000C9ED011AD5ED001A95ED011A20EE212A43
:100A100000EE812A60EEA10A40EE410A86ED002A2E
:100A2000C6ED010A7FF476AF9B044FEA134BE6460E
:100A3000BCF1040F7DD9E0464FEA9C0C4FF0000951
:100A4000CA46BCF1000F75D94FEA490404EB09030B
:100A500002EBC90502EBC40402EBC30395ED001AD7
:100A6000D5ED011A94ED000AD4ED010A93ED002AA8
:100A7000D3ED012AD94453468A4573D203EB0C04C3
:100A800004EB0C0606EB0C0500EBC30700EBC606F7
:100A900097ED003AD6ED003A96ED015A00EBC4040A
:100AA00073EE234A33EE633AD7ED013A00EBC50506
:100AB00033EE854A73EEC53A94ED005AD5ED005AEF
:100AC00035EE255A74EE855A74EEC54AC7ED005AC4
:100AD00094ED015AD5ED015A35EE255A74EE055ABA
:100AE00034EE454AC7ED015A94ED015AD5ED015A4D
:100AF00095ED006A35EE655AD4ED005A75EEC65A8A
:100B000024EE806A04EE206A24EE004A04EEE04AF5
:100B100084ED006A73EEE54A73EEA53A84ED014A6E
:100B200033EE054A33EE453A24EE015A04EEA15A5B
:100B300001E026E01BE064EE814A86ED005A434462
:100B40008B4244EE614A23EE024A03EEA24A63EE70
:100B5000823AC6ED014A43EE623A85ED004AC5EDA0
:100B6000013A8BD30AF1010AE245FFF46DAF4FEA77
:100B70008B434FEA9E0E4FEA134BBEF1040F3FF634
:100B80005AAFA1EB0C0100224B1C4FEA9C04002B36
:100B90008CBF1F46BDE8F08F11190E19331900EBF9
:100BA000C20500EBC60695ED000AD6ED000A95EDEC
:100BB000012A96ED011A70EE201A70EE600A32EEEC
:100BC000010A00EBC10100EBC30332EE411A91EDC3
:100BD000002AD3ED002A6244974232EE222A71EEB7
:100BE000822A31EEC22AC5ED002AD1ED011AD3EDD9
:100BF000012A71EEA21A70EE212AC5ED012A70EECB
:100C0000612A91ED010AD3ED011A93ED003A70EEDD
:100C1000611A91ED000A81ED002AC1ED012A30EE42
:100C2000430A30EEA12A70EEE10A71EE401A31EE6D
:100C3000000A86ED002AC6ED011AC3ED000A83ED15
:100C4000010AA9D8BDE8F08F2DE9F04F4FEA910CC9
:100C50004FF000084746644608EB0C0505EB0C0A0C
:100C60000AEB0C0600EBC80900EBCA0AD9ED000A32
:100C70009AED001ADAED012A00EBC50570EE811A33
:100C800070EEC10A99ED011A00EBC60608F10108E1
:100C900031EE222A31EE621AD5ED002A96ED003AA5
:100CA000641E72EE832A31EEA23A71EEE21A89EDE9
:100CB000003AD5ED012A96ED013A72EE832A32EE22
:100CC000223A32EE622A89ED013AD5ED012A96EDFB
:100CD000013AD6ED003A4FEA470972EEC32A95ED84
:100CE000003A02EBC90B33EE633ADBED003A9BEDC1
:100CF000014A61EEA34A42EE444A22EE232A01EE63
:100D0000842AC5ED004A70EEE21A70EEA20A85ED63
:100D1000012A02EBC70531EE032AD5ED002A31EE98
:100D2000431A95ED013A61EEA23A09EB070502EB91
:100D3000C5051F4442EE433A22EE222A01EE832AE1
:100D4000CAED003A8AED012AD5ED001A95ED012A87
:100D500060EEA12A41EE422A21EE211A00EE821A0B
:100D6000C6ED002A86ED011A7FF476AF9B044FEAA8
:100D7000134BE646BCF1040F7DD9E0464FEA9C0CCC
:100D80004FF00009CA46BCF1000F75D94FEA49047B
:100D900004EB090302EBC90502EBC40402EBC30335
:100DA000D5ED001A95ED012AD4ED000A94ED011A53
:100DB000D3ED002A93ED013AD94453468A4573D2C4
:100DC00003EB0C0404EB0C0606EB0C0500EBC3076D
:100DD00000EBC606D7ED003A96ED004AD6ED015A73
:100DE00000EBC40433EE845A73EEC43A97ED014A23
:100DF00000EBC50574EE254A34EE654AD4ED005A81
:100E000095ED006A75EE865A35EE256A35EE655A1F
:100E100087ED006AD4ED015A95ED016A75EE865AA8
:100E200034EEA56A74EEE54A87ED016AD4ED015A05
:100E300095ED016AD5ED006A75EEC65A94ED006A2B
:100E400036EE666A65EE206A44EEC16A64EEA04A38
:100E500045EE014AC4ED006A34EE065A34EE464AC5
:100E6000C4ED014A73EEE54A73EEA53A64EEA15A69
:100E700045EE425A01E026E01BE025EE215AC6ED80
:100E8000005A43448B4204EE825A63EEA24A44EE77
:100E9000434A24EE224A86ED015A03EE834AC5ED09
:100EA000004A85ED014A8BD30AF1010AE245FFF4BD
:100EB0006DAF4FEA8B434FEA9E0E4FEA134BBEF1E4
:100EC000040F3FF65AAFA1EB0C0100224B1C4FEA76
:100ED0009C06002B8CBF1F46BDE8F08F91198D1921
:100EE000AB1900EBC20400EBC505D4ED000AD5ED4B
:100EF000001AD4ED012A95ED012A30EEA11A70EE08
:100F0000E11A72EE820A00EBC10100EBC30332EE7C
:100F1000C22AD1ED002A93ED003A6244974272EE64
:100F2000832A31EE223A71EE622A23EE003A62EE13
:100F3000802A84ED003A91ED011A93ED013A31EEE9
:100F4000031A30EE813A23EE003A84ED013A30EE96
:100F5000C13AD1ED010A93ED011AD3ED003A30EE1A
:100F6000C11AD1ED000AC1ED002A63EE002A70EE2D
:100F7000E30AC1ED012A71EEC12A31EE811A72EE47
:100F8000201A72EE600A22EE802A21EE001A61EE2B
:100F9000801A85ED002A60EE800AC5ED011A83ED06
:100FA000001AC3ED010A99D8BDE8F08F30B50446A8
:100FB0000D4680782188A389626801280DD02846D3
:100FC000FFF7A0FCE078012818BF30BDE289218836
:100FD0002846A368BDE830403CE494ED040A284666
:100FE000FFF732FEEEE7000010B401801B4C4460B6
:100FF00082704FF0000CC370102925D040291BD0FF
:10100000B1F5807F10D0B1F5806F18BF4FF0FF3C75
:1010100002D010BC6046704701218181C181104916
:101020009FED100A816016E004218181C1810E4983
:101030009FED0E0A81600EE010218181C1810C4973
:101040009FED0C0A816006E040218181C1810A493F
:101050009FED0A0A816080ED040ADAE7742C01082A
:10106000744C01080000803A7A4C01080000803B73
:10107000924C01080000803CF24C01080000803DC9
:1010800010B5203AC0F00B80B1E81850203AA0E823
:101090001850B1E81850A0E81850BFF4F5AF5FEA57
:1010A000027C24BFB1E81850A0E8185044BF18C90A
:1010B00018C0BDE810405FEA827C24BF51F8043BB1
:1010C00040F8043B08BF7047D20728BF31F8023B05
:1010D00048BF11F8012B28BF20F8023B48BF00F899
:1010E000012B7047704770477047000000487047F9
:1010F0004C5000207546FFF7F9FFAE4605006946E3
:10110000534620F00700854618B020B5FFF7BAF81F
:10111000BDE820404FF000064FF000074FF00008F8
:101120004FF0000B21F00701AC46ACE8C009ACE879
:10113000C009ACE8C009ACE8C0098D467047044658
:10114000AFF300802046FFF788F870470149182068
:10115000ABBEFEE72600020010B5002301221146B7
:10116000034800F00BF9024800F065F910BD0000DB
:101170000020014010B5002301220C21034800F09B
:10118000FDF8024800F057F910BD000000200140B2
:1011900010B5002301220421034800F0EFF80248B3
:1011A00000F049F910BD00000020014010B50023F7
:1011B00001220721034800F0E1F8024800F03BF962
:1011C00010BD00000020014000B58DB001211F4876
:1011D00006F06AFD0120019003208DF80800002030
:1011E0008DF80B0001A91A4800F0CCFD00200390F7
:1011F00004900590069003A800F064F80020079082
:101200008DF8200001208DF82100002009900B901E
:1012100001208DF8300007A90E4800F085F8002362
:10122000012208210B4800F0A9F80121094800F02B
:1012300070F80121074800F061F80121054800F02D
:1012400035F8044800F0F7F80DB000BD020040008A
:10125000000402400021014010B5002301220A21B0
:10126000034800F08BF8024800F0E5F810BD0000DC
:101270000022014010B5002301220B21034800F099
:101280007DF8024800F0D7F810BD000000220140B0
:1012900010B5002301220C21034800F06FF802482A
:1012A00000F0C9F810BD00000022014021B18268A1
:1012B00042F00102826003E0826822F00102826053
:1012C0007047000000210A4A11680A4A01EA020137
:1012D000D0E9002342EA0302836842EA0302C368BA
:1012E00042EA030242EA0101034AC2F804137047CA
:1012F00004230140E030FCFF0020014021B182685E
:1013000042F48072826003E0826822F4807282601C
:10131000704721B1826842F40072826003E0826803
:1013200022F400728260704730B50246002000232C
:101330005068104C20400D790C6844EA0524204385
:10134000506090680C4C2040D1E903542C438D68C8
:101350002C434D7944EA450420439060D06A20F440
:1013600070000C7D641EE4B2234340EA0350D06257
:1013700030BD0000FFFEFFFCFDF7FFC070B5044666
:101380008C4600200021BCF1090F11DDE068ACF1B2
:101390000A0505EB4506072505FA06F18843ACF179
:1013A0000A0505EB450503FA05F10843E0600CE08A
:1013B00020690CEB4C06072505FA06F188430CEB77
:1013C0004C0503FA05F108432061072A0FDA606B28
:1013D000551E05EB85061F2505FA06F18843551EA7
:1013E00005EB85050CFA05F10843606322E00D2A40
:1013F0000FDA206BD51F05EB85061F2505FA06F1D0
:101400008843D51F05EB85050CFA05F108432063D9
:1014100010E0E06AA2F10D0505EB85061F2505FA2F
:1014200006F18843A2F10D0505EB85050CFA05F1DF
:101430000843E06270BD816841F08041816070477F
:1014400010B504F0C9F810BD70B50446002604F0CC
:101450008FF92546E11704EB11610912A02202EB76
:101460004101C8B204F042F904F0DAF9E11704EBE3
:1014700011610912A4EB0121C8B204F037F904F09C
:10148000CFF904F075F9A12004F030F904F0C8F99F
:10149000002004F0F1F8064604F096F9304670BDDD
:1014A00070B504460E4604F063F92546E11704EBD7
:1014B00011610912A02202EB4101C8B204F016F931
:1014C00004F0AEF9E11704EB11610912A4EB01215C
:1014D000C8B204F00BF904F0A3F9304604F006F9A1
:1014E00004F09EF904F070F90A200BF059FF70BD6A
:1014F0002DE9F84305F06AFC8648007801287CD184
:101500004103854800F086FC002861D183480168CA
:101510008348007807F044FB0646012E31D181480C
:1015200001697F48007807F03BFB0546EDB97D482F
:1015300041687B48007807F033FB80467948816832
:101540007748007807F02CFB81467648C1687448DC
:10155000007807F025FB07464B4642467048009747
:1015600001787148007804F03BFD012D09D102207B
:101570000346024600906A4801786B48007804F000
:101580002FFD67480078401C6549087000BF4FF484
:101590000051614800F03EFC0028F8D06048007817
:1015A000202802DD01205E4908705D4804780CE0C7
:1015B0005A480168204607F0F3FA0646012E02D188
:1015C0005748047003E0601CC4B2202CF0DD00BF5B
:1015D0004FF40061504800F01DFC002863D14F48D3
:1015E00001684F48007807F0DBFA0646012E33D138
:1015F0004C4801694A48007800E088E007F0D0FADA
:101600000546EDB9474841684548007807F0C8FAF3
:101610008046444881684248007807F0C1FA814614
:101620004048C1683E48007807F0BAFA07464B4682
:1016300042463B48009701783B48007804F0D0FCD4
:10164000012D09D10220034602460090344801785A
:101650003548007804F0C4FC31480078401E304919
:10166000087000BF4FF400612B4800F0D3FB002846
:10167000F8D02B480078012802DA20202849087089
:10168000274804780CE025480168204607F088FACE
:101690000646012E02D12248047003E0601EC4B247
:1016A000012CF0DA00BF1F4801691D48007807F0DF
:1016B00077FA05461B4841681948007807F070FA28
:1016C0008046184881681648007807F069FA814614
:1016D0001448C1681248007807F062FA07464B4682
:1016E00042460F48009701780F48007804F078FCD4
:1016F00032200BF055FE4B464246094800970178D0
:101700000948007804F036FA32200BF049FEBDE8B3
:10171000F88300002C010020000C0240740000201F
:1017200068000020340100206900002010B505F099
:1017300019F910BD10B505F02DF910BD00BFFEE779
:1017400070B506460C46012C26DB062C24DC002551
:1017500020E016F0010F05D04FF400713F4800F073
:1017600064FB04E04FF400713C4800F05CFB4FF474
:1017700080713A4800F057FB761004200BF034FEDD
:101780004FF48071354800F050FB04200BF02CFE24
:10179000681CC5B20C2DDCDB012C0DD101213048B9
:1017A00000F043FB04200BF01FFE01212C4800F049
:1017B0003AFB04200BF018FE022C0DD10221284820
:1017C00000F033FB04200BF00FFE0221244800F050
:1017D0002AFB04200BF008FE032C0DD10421204825
:1017E00000F023FB04200BF0FFFD04211C4800F057
:1017F0001AFB04200BF0F8FD042C0DD10821184829
:1018000000F013FB04200BF0EFFD0821144800F05A
:101810000AFB04200BF0E8FD052C0DD11021104827
:1018200000F003FB04200BF0DFFD10210C4800F05A
:10183000FAFA04200BF0D8FD062C0DD1202108481F
:1018400000F0F3FA04200BF0CFFD2021044800F053
:10185000EAFA04200BF0C8FD70BD0000000402404D
:10186000000C02401CB50121022006F01DFA4FF4C5
:101870004070009001208DF8040000208DF80600D3
:1018800002208DF805006946104800F07BFA01211E
:10189000082006F009FA3F20009001208DF804008E
:1018A00000208DF8060002208DF8050069460848E2
:1018B00000F068FA012406E0214640F20140FFF7FB
:1018C0003FFF601CC4B2052CF6DD1CBD00040240C5
:1018D000000C024070B500250DE0002407E0002058
:1018E000A040C1B2284606F069FD601CC4B2042CB9
:1018F000F5DB681CC5B2202DEFDB70BD21B102689D
:1019000042F00102026003E0026822F0010202607C
:101910007047000010B500220268134B1A40CC68D3
:101920000B6823434C6923438C692343CC692343CD
:101930000C6A23434C6A23438C6A23434C6B234336
:101940008C6B23431A430260426922F00702D1E9FB
:101950000B3423431A4342610B6943604B68836035
:101960008B68C36010BD00003F801CF07047000012
:1019700008B504F0C1FD4FF4805000F021F938B3F0
:101980002F480078012823D12E48007801281FD144
:101990004FF47A700BF028FD4FF480512A4800F084
:1019A00039FAA8B90021294800780BF0C1FF0020BE
:1019B000034602460090254801782248007804F04A
:1019C0000FFB00202249214A127801EB8201487066
:1019D0004FF4805000F060F84FF4804000F0F0F8D1
:1019E00038B317480078012823D116480078012819
:1019F0001FD14FF47A700BF0F7FC4FF4804112487E
:101A000000F008FAA8B90121104800780BF090FF07
:101A1000002001231A4600900C48017809480078FC
:101A200004F0DEFA01200A49084A127801EB82012B
:101A300048704FF4804000F02FF804F06FFD08BDAF
:101A40002C01002069000020000C024068000020EA
:101A50004801002010B504F04FFD4FF4807000F0F5
:101A6000AFF84FF4807000F017F84FF4007000F0FA
:101A7000A7F840B14FF47A700BF0B6FC4FF4007148
:101A8000044800F0C7F94FF4007000F005F804F0C6
:101A900045FD10BD000C0240014908607047000080
:101AA000143C014000B585B00121880306F01CF903
:101AB0000121102006F0F8F84FF480700390002008
:101AC0008DF8100003A9394800F05CF908210420C2
:101AD00006F01CF94FF48070019000208DF808008A
:101AE0000C208DF8090001208DF80A0001A800F0F3
:101AF0007BF817208DF8000002208DF801008DF88A
:101B0000020001208DF80300684604F0AFFC4FF49A
:101B1000807000F04DF80C21032006F0F7F84FF428
:101B20008050019000208DF808000C208DF80900ED
:101B300001208DF80A0001A800F056F828208DF841
:101B4000000001208DF801008DF802008DF80300DF
:101B5000684604F08BFC4FF4805000F029F80E2109
:101B6000032006F0D3F84FF48040019000208DF858
:101B700008000C208DF8090001208DF80A0001A84A
:101B800000F032F828208DF8000001208DF80100C7
:101B90008DF802008DF80300684604F067FC4FF4EE
:101BA000804000F005F805B000BD000000100240C4
:101BB000024909680143014A11607047103C014025
:101BC000014600200022074B1B6803EA0102054B77
:101BD00014331B680B4202D00AB1012000E0002040
:101BE00070470000003C0140002123498279002A0F
:101BF0003AD00A46126803689A430B461A600A1DD7
:101C0000126803689A430B1D1A60027911440A682E
:101C100003681A430A60184A0832126803689A4334
:101C2000154B08331A601A1D126803689A43124B49
:101C30000C331A604279102A0ED11A1F12680368F9
:101C40001A430D4B08331A601A1D126803681A43B1
:101C5000094B0C331A600DE00749427911440A68B8
:101C600003681A430A6005E0027911440A680368B0
:101C70009A430A6070470000003C01401CB50121F6
:101C8000082006F011F84BF64070009001208DF806
:101C9000040000208DF8060003208DF805000120C7
:101CA0008DF807006946334800F06CF801210420E4
:101CB00005F0FAFF41F6F070009001208DF8040065
:101CC00002208DF8050069462B4800F05BF80121E1
:101CD000084605F0E9FF0C20009001208DF8040073
:101CE00002208DF805006946244800F04BF80121D8
:101CF000022005F0D9FF0220009001208DF8040099
:101D000002208DF8050069461D4800F03BF80420CC
:101D1000009001208DF8040002208DF8050069462E
:101D2000174800F02FF80820009001208DF80400DB
:101D300002208DF805006946114800F023F803F0F1
:101D4000EDFBFFF77DFB03F0DBFEFFF78BFD41F6BC
:101D50001F4142F20F7006F0F5F941F61F4141F2C2
:101D6000873006F097F9FFF79DFE03F0C9FDFFF7F6
:101D70002BFA1CBD000C024000080240000002408B
:101D80000004024070B50A46002100238C4600BFC3
:101D90003DE0012404FA01F3146804EA030C9C45B5
:101DA00034D104684E000325B540AC430460147977
:101DB0004D00AC4005682C4304601479012C02D01E
:101DC0001479022C16D184684E000325B540AC432B
:101DD000846054794D00AC4085682C43846044682D
:101DE00001258D40AC434460446895798D40ADB287
:101DF0002C434460C4684E000325B540AC43C46026
:101E0000D4794D00AC40C5682C43C460491C1029EE
:101E1000BFD370BD0246002013690B4201D00120E0
:101E200000E0002070474183704701837047000045
:101E3000F0B58BB00446142226A106A8FFF720F9BE
:101E4000142229A101A8FFF71BF901211C2006F08B
:101E5000B5FA01211F2006F0B1FA0121192006F080
:101E6000ADFA2648007818B90A211F2006F0A6FA14
:101E700022480078012803D10C211F2006F09EFA89
:101E8000642094FBF0F0C5B2642094FBF0F100FBF9
:101E900011400A2190FBF1F0C6B20A2094FBF0F148
:101EA00000FB1140C7B206A8022212FB0501082060
:101EB00006F05EFA06A8022212FB06010A2006F0CE
:101EC00057FA01A8022212FB07010C2006F050FA73
:101ED0000BB0F0BD050F0006060B020F0306030D45
:101EE000070D0007070F030F0D0F08060E0B0A0F53
:101EF0000B060B0D0F0D08070F0F0B0F2C01002009
:101F00002DE9F04F9BB004460D4616461422CCA195
:101F10000FA8FFF7B5F81422CEA10AA8FFF7B0F872
:101F20001422D1A105A8FFF7ABF81422D3A168466B
:101F3000FFF7A6F801211C2006F040FA01211F201E
:101F400006F03CFAD248007818B90821182006F0AB
:101F500035FACF480078012803D10C21182006F06B
:101F60002DFACB480078022803D10A21182006F068
:101F700025FAC7480078032803D10921182006F064
:101F80001DFA08211B2006F019FA4FF47A7094FB11
:101F9000F0F0C0B21A904FF47A7094FBF0F100FBAD
:101FA0001140642190FBF1F0C0B21990642094FBC1
:101FB000F0F100FB11400A2190FBF1F0C0B2189043
:101FC0000A2094FBF0F100FB1140C0B21790B14819
:101FD0000078012809D10FA802211A9A11FB0203E7
:101FE0000A461946162006F0C3F9AA48007818B91F
:101FF0000221172006F0E2F905A90222199812FB26
:1020000000131946142006F0B3F90FA902221898FC
:1020100012FB00131946122006F0AAF90FA902229A
:10202000179812FB00131946102006F0A1F94FF47F
:102030007A7095FBF0F0C0B216904FF47A7095FB71
:10204000F0F100FB1150642190FBF1F0C7B2642065
:1020500095FBF0F100FB11500A2190FBF1F000F02C
:10206000FF080A2095FBF0F100FB115000F0FF097A
:102070001698002825DD0FA80221169A11FB0203ED
:102080000A4619460E2006F073F90AA8022111FB30
:1020900007030A461946082006F06AF90AA8022131
:1020A00011FB08030A4619460A2006F061F9684642
:1020B000022111FB09030A4619460C2006F058F9C3
:1020C0002FE0002F1BDD0AA8022111FB07030A469F
:1020D0001946082006F04CF90AA8022111FB080352
:1020E0000A4619460A2006F043F96846022111FB08
:1020F00009030A4619460C2006F03AF911E00AA82D
:10210000022111FB08030A4619460A2006F030F99D
:102110006846022111FB09030A4619460C2006F005
:1021200027F94FF47A70B6FBF0F0C0B215904FF477
:102130007A70B6FBF0F100FB11606421B0FBF1F0A6
:1021400000F0FF0A6420B6FBF0F100FB11600A21E9
:10215000B0FBF1FB0A20B6FBF0F100FB116014901C
:102160004D48007818B90A211F2006F027F94A487F
:102170000078012803D10C211F2006F01FF91598C3
:10218000002826DD0AA80221159A11FB02030A463F
:102190001946002006F0ECF80AA8022111FB0A03F8
:1021A0000A461946022006F0E3F80AA8022111FBAC
:1021B0000B030A461946042006F0DAF80AA80221A1
:1021C000149A11FB02030A461946062006F0D0F8BD
:1021D00032E0BAF1000F1CDD0AA8022111FB0A034C
:1021E0000A461946022006F0C3F80AA8022111FB8C
:1021F0000B030A461946042006F0BAF80AA8022181
:10220000149A11FB02030A461946062006F0B0F89C
:1022100012E00AA8022111FB0B030A46194604200A
:1022200006F0A6F80AA80221149A11FB02030A4636
:102230001946062006F09CF81BB0BDE8F08F0000A0
:102240000F0506000B060F0206030D030D0707001E
:102250000F070F03050F0006060B020F0306030D01
:10226000070D0007070F030F0F0D06080B0E0F0ACF
:10227000060B0D0B0D0F07080F0F0F0B0D0F0806A8
:102280000E0B0A0F0B060B0D0F0D08070F0F0B0F90
:10229000570000205F0000202C0100202DE9F04FA6
:1022A0009BB004460D4616461422CCA10FA8FEF79B
:1022B000E7FE1422CEA10AA8FEF7E2FE1422D1A165
:1022C00005A8FEF7DDFE1422D3A16846FEF7D8FE6E
:1022D00001211C2006F072F801211F2006F06EF883
:1022E0000A211B2006F06AF8D048007818B90021AE
:1022F000182006F063F8CD480078012803D10421A6
:10230000182006F05BF8C9480078022803D10221A2
:10231000182006F053F8C5480078032803D101219E
:10232000182006F04BF84FF47A7094FBF0F0C0B22E
:102330001A904FF47A7094FBF0F100FB1140642185
:1023400090FBF1F0C0B21990642094FBF0F100FB17
:1023500011400A2190FBF1F0C0B218900A2094FBC2
:10236000F0F100FB1140C0B21790B148007801288D
:1023700009D10FA802211A9A11FB02030A46194635
:10238000162005F0F5FFAA48007818B90221172099
:1023900006F014F805A90222199812FB0013194639
:1023A000142005F0E5FF0FA90222189812FB001374
:1023B0001946122005F0DCFF0FA90222179812FB24
:1023C00000131946102005F0D3FF4FF47A7095FBE7
:1023D000F0F0C0B216904FF47A7095FBF0F100FB6C
:1023E0001150642190FBF1F0C7B2642095FBF0F12D
:1023F00000FB11500A2190FBF1F000F0FF080A20C9
:1024000095FBF0F100FB115000F0FF091698002831
:1024100025DD0FA80221169A11FB02030A46194670
:102420000E2005F0A5FF0AA8022111FB07030A46AA
:102430001946082005F09CFF0AA8022111FB080399
:102440000A4619460A2005F093FF6846022111FB4F
:1024500009030A4619460C2005F08AFF2FE0002FD9
:102460001BDD0AA8022111FB07030A4619460820B2
:1024700005F07EFF0AA8022111FB08030A4619464F
:102480000A2005F075FF6846022111FB09030A4680
:1024900019460C2005F06CFF11E00AA8022111FB7F
:1024A00008030A4619460A2005F062FF6846022121
:1024B00011FB09030A4619460C2005F059FF4FF499
:1024C0007A70B6FBF0F0C0B215904FF47A70B6FB9C
:1024D000F0F100FB11606421B0FBF1F000F0FF0AA5
:1024E0006420B6FBF0F100FB11600A21B0FBF1FBA8
:1024F0000A20B6FBF0F100FB116014904D48007803
:1025000018B90A211F2005F059FF4A480078012810
:1025100003D10C211F2005F051FF1598002826DD5E
:102520000AA80221159A11FB02030A461946002047
:1025300005F01EFF0AA8022111FB0A030A461946EC
:10254000022005F015FF0AA8022111FB0B030A4621
:102550001946042005F00CFF0AA80221149A11FB69
:1025600002030A461946062005F002FF32E0BAF1DE
:10257000000F1CDD0AA8022111FB0A030A461946B6
:10258000022005F0F5FE0AA8022111FB0B030A4602
:102590001946042005F0ECFE0AA80221149A11FB4A
:1025A00002030A461946062005F0E2FE12E00AA8D8
:1025B000022111FB0B030A461946042005F0D8FE40
:1025C0000AA80221149A11FB02030A4619460620A2
:1025D00005F0CEFE1BB0BDE8F08F00000F05060031
:1025E0000B060F0206030D030D0707000F070F036D
:1025F000050F0006060B020F0306030D070D00076B
:10260000070F030F0F0D06080B0E0F0A060B0D0B1D
:102610000D0F07080F0F0F0B0D0F08060E0B0A0FFB
:102620000B060B0D0F0D08070F0F0B0F57000020A7
:102630005F0000202C0100202DE9F04F9BB00446E4
:102640000D4616461422CCA10FA8FEF719FD142240
:10265000CEA10AA8FEF714FD1422D1A105A8FEF709
:102660000FFD1422D3A16846FEF70AFD01211C20AC
:1026700005F0A4FE01211F2005F0A0FE0C211B2067
:1026800005F09CFED048007818B90021182005F00C
:1026900095FECD480078012803D10421182005F0CB
:1026A0008DFEC9480078022803D10221182005F0C8
:1026B00085FEC5480078032803D10121182005F0C4
:1026C0007DFE4FF47A7094FBF0F0C0B21A904FF494
:1026D0007A7094FBF0F100FB1140642190FBF1F063
:1026E000C0B21990642094FBF0F100FB11400A2164
:1026F00090FBF1F0C0B218900A2094FBF0F100FBBF
:102700001140C0B21790B1480078012809D10FA834
:1027100002211A9A11FB02030A461946162005F0F7
:1027200027FEAA48007818B90221172005F046FEB6
:1027300005A90222199812FB00131946142005F06E
:1027400017FE0FA90222189812FB00131946122037
:1027500005F00EFE0FA90222179812FB001319466E
:10276000102005F005FE4FF47A7095FBF0F0C0B232
:1027700016904FF47A7095FBF0F100FB1150642134
:1027800090FBF1F0C7B2642095FBF0F100FB115013
:102790000A2190FBF1F000F0FF080A2095FBF0F110
:1027A00000FB115000F0FF091698002825DD0FA846
:1027B0000221169A11FB02030A4619460E2005F063
:1027C000D7FD0AA8022111FB07030A461946082073
:1027D00005F0CEFD0AA8022111FB08030A4619469E
:1027E0000A2005F0C5FD6846022111FB09030A46CF
:1027F00019460C2005F0BCFD2FE0002F1BDD0AA8B8
:10280000022111FB07030A461946082005F0B0FD16
:102810000AA8022111FB08030A4619460A2005F0FE
:10282000A7FD6846022111FB09030A4619460C2040
:1028300005F09EFD11E00AA8022111FB08030A46DB
:1028400019460A2005F094FD6846022111FB090390
:102850000A4619460C2005F08BFD4FF47A70B6FB42
:10286000F0F0C0B215904FF47A70B6FBF0F100FBB7
:1028700011606421B0FBF1F000F0FF0A6420B6FBA8
:10288000F0F100FB11600A21B0FBF1FB0A20B6FB5E
:10289000F0F100FB116014904D48007818B90A213E
:1028A0001F2005F08BFD4A480078012803D10C2138
:1028B0001F2005F083FD1598002826DD0AA80221B7
:1028C000159A11FB02030A461946002005F050FD37
:1028D0000AA8022111FB0A030A461946022005F044
:1028E00047FD0AA8022111FB0B030A4619460420E2
:1028F00005F03EFD0AA80221149A11FB02030A46C4
:102900001946062005F034FD32E0BAF1000F1CDD57
:102910000AA8022111FB0A030A461946022005F003
:1029200027FD0AA8022111FB0B030A4619460420C1
:1029300005F01EFD0AA80221149A11FB02030A46A3
:102940001946062005F014FD12E00AA8022111FB29
:102950000B030A461946042005F00AFD0AA80221C5
:10296000149A11FB02030A461946062005F000FDE1
:102970001BB0BDE8F08F00000F0506000B060F022C
:1029800006030D030D0707000F070F03050F0006D1
:10299000060B020F0306030D070D0007070F030FB9
:1029A0000F0D06080B0E0F0A060B0D0B0D0F070877
:1029B0000F0F0F0B0D0F08060E0B0A0F0B060B0D5A
:1029C0000F0D08070F0F0B0F570000205F000020AE
:1029D0002C0100202DE9F04F9BB004460D46164611
:1029E0001422CEA10FA8FEF74BFB1422D0A10AA8F7
:1029F000FEF746FB1422D3A105A8FEF741FB1422E3
:102A0000D5A16846FEF73CFB01211C2005F0D6FC51
:102A100001211F2005F0D2FC04211A2005F0CEFC74
:102A2000D248007818B90021182005F0C7FCCF481B
:102A30000078012803D10421182005F0BFFCCB4801
:102A40000078022803D10221182005F0B7FCC748FE
:102A50000078032803D10121182005F0AFFC0821DC
:102A60001B2005F0ABFC4FF47A7094FBF0F0C0B281
:102A70001A904FF47A7094FBF0F100FB114064213E
:102A800090FBF1F0C0B21990642094FBF0F100FBD0
:102A900011400A2190FBF1F0C0B218900A2094FB7B
:102AA000F0F100FB1140C0B21790B1480078012846
:102AB00009D10FA802211A9A11FB02030A461946EE
:102AC000162005F055FCAA48007818B902211720F5
:102AD00005F074FC05A90222199812FB001319468F
:102AE000142005F045FC0FA90222189812FB0013D0
:102AF0001946122005F03CFC0FA90222179812FB80
:102B000000131946102005F033FC4FF47A7095FB42
:102B1000F0F0C0B216904FF47A7095FBF0F100FB24
:102B20001150642190FBF1F0C7B2642095FBF0F1E5
:102B300000FB11500A2190FBF1F000F0FF080A2081
:102B400095FBF0F100FB115000F0FF0916980028EA
:102B500025DD0FA80221169A11FB02030A46194629
:102B60000E2005F005FC0AA8022111FB07030A4606
:102B70001946082005F0FCFB0AA8022111FB0803F6
:102B80000A4619460A2005F0F3FB6846022111FBAC
:102B900009030A4619460C2005F0EAFB2FE0002F36
:102BA0001BDD0AA8022111FB07030A46194608206B
:102BB00005F0DEFB0AA8022111FB08030A461946AC
:102BC0000A2005F0D5FB6846022111FB09030A46DD
:102BD00019460C2005F0CCFB11E00AA8022111FBDC
:102BE00008030A4619460A2005F0C2FB684602217E
:102BF00011FB09030A4619460C2005F0B9FB4FF4F6
:102C00007A70B6FBF0F0C0B215904FF47A70B6FB54
:102C1000F0F100FB11606421B0FBF1F000F0FF0A5D
:102C20006420B6FBF0F100FB11600A21B0FBF1FB60
:102C30000A20B6FBF0F100FB116014904D480078BB
:102C400018B90A211F2005F0B9FB4A48007801286D
:102C500003D10C211F2005F0B1FB1598002826DDBB
:102C60000AA80221159A11FB02030A461946002000
:102C700005F07EFB0AA8022111FB0A030A46194649
:102C8000022005F075FB0AA8022111FB0B030A467E
:102C90001946042005F06CFB0AA80221149A11FBC6
:102CA00002030A461946062005F062FB32E0BAF13B
:102CB000000F1CDD0AA8022111FB0A030A4619466F
:102CC000022005F055FB0AA8022111FB0B030A465E
:102CD0001946042005F04CFB0AA80221149A11FBA6
:102CE00002030A461946062005F042FB12E00AA834
:102CF000022111FB0B030A461946042005F038FB9C
:102D00000AA80221149A11FB02030A46194606205A
:102D100005F02EFB1BB0BDE8F08F00000F0506008C
:102D20000B060F0206030D030D0707000F070F0325
:102D3000050F0006060B020F0306030D070D000723
:102D4000070F030F0F0D06080B0E0F0A060B0D0BD6
:102D50000D0F07080F0F0F0B0D0F08060E0B0A0FB4
:102D60000B060B0D0F0D08070F0F0B0F5700002060
:102D70005F0000202C0100202DE9F04F91B00446A7
:102D80000D4616461422DCA105A8FEF779F9142297
:102D9000DEA16846FEF774F901211C2005F00EFB48
:102DA00001211F2005F00AFBDD48007818B90A212F
:102DB0001F2005F003FBDA480078012803D10C211D
:102DC0001F2005F0FBFA4FF47A70B4FBF0F0C0B2AC
:102DD00010904FF47A70B4FBF0F100FB11406421C5
:102DE000B0FBF1F0C0B20F906420B4FBF0F100FB37
:102DF00011400A21B0FBF1F70A20B4FBF0F100FB0F
:102E000011484FF47A70B5FBF0F0C0B20E904FF459
:102E10007A70B5FBF0F100FB11506421B0FBF1F0CA
:102E2000C0B20D906420B5FBF0F100FB11500A21F7
:102E3000B0FBF1F90A20B5FBF0F100FB115A4FF499
:102E40007A70B6FBF0F0C0B20C904FF47A70B6FB1B
:102E5000F0F100FB11606421B0FBF1F0C0B20B9007
:102E60006420B6FBF0F100FB11600A21B0FBF1F029
:102E70000A900A20B6FBF0F100FB116B10980028B5
:102E800025DD05A90222109812FB00131946162011
:102E900005F06EFA05A802210F9A11FB02030A46FB
:102EA0001946142005F064FA05A8022111FB070356
:102EB0000A461946122005F05BFA05A8022111FB0B
:102EC00008030A461946102005F052FA3DE00F9813
:102ED00000281CDD05A802210F9A11FB02030A46F7
:102EE0001946142005F044FA05A8022111FB070336
:102EF0000A461946122005F03BFA05A8022111FBEB
:102F000008030A461946102005F032FA1DE0002F8A
:102F100012DD05A8022111FB07030A4619461220FB
:102F200005F026FA05A8022111FB08030A461946F6
:102F3000102005F01DFA08E005A8022111FB080386
:102F40000A461946102005F013FA0E98002825DDD0
:102F500005A902220E9812FB001319460E2005F057
:102F600007FA684602210D9A11FB02030A46194628
:102F7000082005F0FDF96846022111FB09030A4605
:102F800019460A2005F0F4F96846022111FB0A03EC
:102F90000A4619460C2005F0EBF93EE00D98002892
:102FA0001CDD684602210D9A11FB02030A461946F0
:102FB000082005F0DDF96846022111FB09030A46E5
:102FC00019460A2005F0D4F96846022111FB0A03CC
:102FD0000A4619460C2005F0CBF91EE0B9F1000FA6
:102FE00012DD6846022111FB09030A4619460A2030
:102FF00005F0BEF96846022111FB0A030A4619468C
:103000000C2005F0B5F908E06846022111FB0A031F
:103010000A4619460C2005F0ABF90C98002826DD6D
:10302000694602220C9812FB00131946002005F095
:103030009FF9684602210B9A11FB02030A461946C2
:10304000022005F095F9684602210A9A11FB020355
:103050000A461946042005F08BF96846022111FB47
:103060000B030A461946062005F082F940E00B984A
:1030700000281DDD684602210B9A11FB02030A4657
:103080001946022005F074F9684602210A9A11FBDC
:1030900002030A461946042005F06AF9684602212F
:1030A00011FB0B030A461946062005F061F91FE0E3
:1030B0000A98002813DD684602210A9A11FB0203D0
:1030C0000A461946042005F053F96846022111FB0F
:1030D0000B030A461946062005F04AF908E068463F
:1030E000022111FB0B030A461946062005F040F9A0
:1030F00011B0BDE8F08F00000F0506000B060F02AF
:1031000006030D030D0707000F070F03050F000649
:10311000060B020F0306030D070D0007070F030F31
:103120002C0100202DE9F0438BB0FAA000680A9032
:103130001422F9A105A8FDF7A3FF1422FBA16846FC
:10314000FDF79EFFFE48007800283DDD4FF48051DA
:10315000FC48FEF75FFEC0B9FB48007830B9FB4879
:103160000078401CF949087002F0F6FC00BF4FF4EB
:103170008051F448FEF74EFE0028F8D0F34800785E
:10318000062802DD0120F14908704FF48041ED4826
:10319000FEF740FEC0B9EC48007830B9EB48007843
:1031A000401EEA49087002F0D7FC00BF4FF480418E
:1031B000E448FEF72FFE0028F8D0E4480078012804
:1031C00002DA0620E1490870E048007807287DD23D
:1031D000DFE800F07C04DBFCFBFAF9008021DC482E
:1031E000FEF718FE80B9FEF775FBDA4A128802EB8B
:1031F00082025204110CD84A127802EB820250006B
:10320000D64A1268FEF77CFE8021D148FEF702FE06
:1032100001287DD14103CB48FEF7FCFDC0B9CA4867
:103220000078A8B902F098FCCD480078401CCC4941
:10323000087000BF4FF40051C248FEF7EBFD0028B4
:10324000F8D0C7480078032802DD0120C44908707F
:103250004FF40061BB48FEF7DDFDC0B9BA48007805
:10326000A8B902F079FCBE480078401EBC4908703D
:1032700000BF4FF40061B348FEF7CCFD0028F8D042
:10328000B7480078012802DA0320B5490870B4482D
:10329000007801282ED1B348007890B9FEF71AFBC8
:1032A000B14A128802EB82025204110CAF4A127822
:1032B00002EB82025000AE4A1378AE4A1268FEF763
:1032C000EDFFA8480078012814D100E058E2FEF78D
:1032D00001FBA94A128802EB82025204110CA74A90
:1032E000127802EB82025000A54A1378A54A1268B0
:1032F000FFF770FB9A480078022814D1FEF7EAFA2B
:10330000A14A128802EB82025204110C9F4A00E08B
:103310003AE0127802EB820250009D4A13789D4AEF
:103320001268FFF789F98E48007803282CD18D4860
:103330000078012812D1FEF7CDFA8B4A128802EBF1
:1033400082025204110C894A127802EB8202500068
:10335000874A1378874A1268FEF7A0FF81480078F1
:1033600090B9FEF7B7FA844A128802EB820252043F
:10337000110C824A127802EB82025000804A1378C4
:10338000804A1268FFF726FBABE380217048FEF706
:1033900041FD48B9FEF79EFA40F2F5127E480188D9
:1033A0007E48008800F0AEFB80216948FEF732FDC0
:1033B00001287AD141036348FEF72CFDE8B9624841
:1033C0000078D0B903E084E3E1E1DAE177E002F0EC
:1033D000C3FB73480078401C7149087000BF4FF46C
:1033E00000515848FEF716FD0028F8D06C480078C8
:1033F000032802DD01206A4908704FF4006151483A
:10340000FEF708FDC0B950480078A8B902F0A4FB47
:1034100063480078401E6249087000BF4FF40061A5
:103420004848FEF7F7FC0028F8D05D4800780128EE
:1034300002DA03205A49087059480078012815D14A
:10344000FEF748FA4748007840B940F2F51255486F
:1034500001885548008800F003FD07E040F2F512AE
:10346000524801885248008801F05EF84C480078C4
:10347000022809D1FEF72EFA40F2F5124D480188D4
:103480004D48008800F09EFE45480078032815D17D
:10349000FEF720FA3348007840B940F2F51243486D
:1034A00001884348008801F03FF807E040F2F51238
:1034B0003C4801883C48008800F0D2FC11E38021A0
:1034C0002348FEF7A7FCE0B9FEF704FA3B4890ED6D
:1034D000000AF2EE040A20EE200ABCEEC00A10EE4A
:1034E000100A82B2364890ED000AF2EE040A20EE8D
:1034F000200ABCEEC00A10EE100A81B2002001F0D2
:10350000C5F980211248FEF785FC01287ED14103D0
:103510000C4857E0000209050F0506000B060F02D4
:1035200006030D030D0707000F070F03050F000625
:10353000060B020F0306030D070D0007070F030F0D
:1035400062000020000C02402C0100202901002014
:10355000001002400800002007000020300000207A
:103560002A010020610000203400002054000020C7
:103570005E00002048000020380000205600002097
:103580006000002050000020360000205500002080
:103590005F0000204C0000200C0000200A000020EA
:1035A0002B010020400000203A00002044000020B1
:1035B0003E000020420000203C00002014000020BB
:1035C00010000020FEF726FCC0B9FE480078A8B91C
:1035D00002F0C2FAFC480078401CFB49087000BFAA
:1035E0004FF40051F948FEF715FC0028F8D0F648D2
:1035F0000078032802DD0120F34908704FF40061D0
:10360000F248FEF707FCD0B9EE4800E09CE00078F5
:10361000A8B902F0A1FAEC480078401EEA49087007
:1036200000BF4FF40061E948FEF7F4FB0028F8D032
:10363000E5480078012802DA0320E3490870E248EF
:10364000007801283BD1FEF745F9E1480078D8B968
:10365000E04890ED000AF2EE040A20EE200ABCEEEB
:10366000C00A10EE100A82B2DB4890ED000AF2EEBA
:10367000040A20EE200ABCEEC00A10EE100A81B245
:10368000002001F093FA1AE0D44890ED000AF2EE1F
:10369000040A20EE200ABCEEC00A10EE100A82B224
:1036A000CF4890ED000AF2EE040A20EE200ABCEEAC
:1036B000C00A10EE100A81B2002001F09FFDC2483E
:1036C000007802281CD1FEF705F9C64890ED000AE3
:1036D000F2EE040A20EE200ABCEEC00A10EE100A38
:1036E00082B2C14890ED000AF2EE040A20EE200AF0
:1036F000BCEEC00A10EE100A81B2002001F0EAFB15
:10370000B148007803283BD1FEF7E4F8B0480078D0
:10371000D8B9B24890ED000AF2EE040A20EE200A71
:10372000BCEEC00A10EE100A82B2AD4890ED000A5D
:10373000F2EE040A20EE200ABCEEC00A10EE100AD7
:1037400081B2002001F05AFD1AE0A24890ED000A73
:10375000F2EE040A20EE200ABCEEC00A10EE100AB7
:1037600082B29D4890ED000AF2EE040A20EE200A93
:10377000BCEEC00A10EE100A81B2002001F016FA69
:10378000AFE1FEF7A7F80220FEF752FBA9E1FEF732
:10379000A1F801211C2004F011FE01211F2004F0DA
:1037A0000DFE8848007818B90A211F2004F006FE93
:1037B00084480078012803D10C211F2004F0FEFD6D
:1037C0004FF400718148FEF725FB78B902F0C4F987
:1037D00086488749097810F82100401C8349844AAB
:1037E000127801F82200962009F0DAFD91E0814874
:1037F0000088401C7F49088008460088C8287DD181
:103800000120088002F0A8F9FEF764F801211C20CD
:1038100004F0D4FD01211F2004F0D0FD6948007898
:1038200018B90A211F2004F0C9FD66480078012854
:1038300003D10C211F2004F0C1FD6C486C490978AC
:1038400010F82100401CC1B26848694A127800F89B
:1038500022106749097810F821003C2805DD002175
:103860006248634A127800F822106048604909787B
:1038700010F821006049087004220AA9142004F0FD
:1038800077FD5B4800780A2190FBF1F0C4B25848FC
:10389000007890FBF1F201FB1200C5B256480078A7
:1038A00090FBF1F0C6B25448007890FBF1F201FBB6
:1038B0001200C7B25048007890FBF1F000F0FF080A
:1038C0004D48007890FBF1F201FB120000F0FF0977
:1038D00005A8022212FB0401122004F049FD05A8EC
:1038E000022212FB0501102004F042FD684602226C
:1038F00012FB06010A2004F03BFD00E009E06846E7
:10390000022212FB07010C2004F032FD962009F080
:1039100047FD4FF400712D48FEF77CFA00283FF474
:1039200066AF01203349088030483149097810F8E2
:1039300021003C2805DD00212C482D4A127800F892
:1039400022102A482A49097810F821002A490870CB
:10395000264A274B1B7812F82310254A1278521E4C
:10396000102303EB420290B2FDF79AFD04220AA94C
:10397000142004F0FDFC1E4800780A2190FBF1F0B1
:10398000C4B21B48007890FBF1F201FB1200C5B2F3
:103990001948007890FBF1F0C6B21748007890FB08
:1039A000F1F201FB1200C7B21348007890FBF1F06E
:1039B00000F0FF081048007890FBF1F201FB1200C4
:1039C0001CE000002C0100202B010020000C024014
:1039D000610000201C000020180000202C000020A6
:1039E00028000020240000202000002048010020A2
:1039F0002D0100202E0100203001002000F0FF09E1
:103A000005A8022212FB0401122004F0B1FC05A853
:103A1000022212FB0501102004F0AAFC68460222D3
:103A200012FB06010A2004F0A3FC6846022212FBE6
:103A300007010C2004F09CFC4FF400512B48FEF7CA
:103A4000E9F9C0B92A480078A8B902F085F82948F0
:103A50000078401C2749087000BF4FF400512348EC
:103A6000FEF7D8F90028F8D022480078202802DD97
:103A70000120204908704FF400611C48FEF7CAF984
:103A800030BB1B48007818BB02F066F81948007874
:103A9000401E1849087000BF4FF400611348FEF73C
:103AA000B9F90028F8D013480078012802DA20205C
:103AB0001049087010480F49097810F821000F4983
:103AC00008700D480B49097810F821000C4908705E
:103AD00007E0FDF7FFFE002211461046FFF74CF904
:103AE00000BF00BF0BB0BDE8F0830000000C024037
:103AF0002C0100202D010020480100203001002071
:103B0000310100202DE9F04F9BB004460D461646CA
:103B10001422BDA110A8FDF7B3FA1422BFA10BA86F
:103B2000FDF7AEFA1422C2A106A8FDF7A9FA1422E5
:103B3000C4A101A8FDF7A4FA01211C2004F03EFC59
:103B400001211F2004F03AFCC348007818B908216D
:103B5000182004F033FCC0480078012803D10C2160
:103B6000182004F02BFCBC480078022803D10A215D
:103B7000182004F023FCB8480078032803D1092159
:103B8000182004F01BFC0821192004F017FCB3488E
:103B9000007818B90A211F2004F010FCAF48007803
:103BA000012803D10C211F2004F008FC4FF47A7087
:103BB00094FBF0F0C0B21A904FF47A7094FBF0F1DD
:103BC00000FB1140642190FBF1F0C7B2642094FB2C
:103BD000F0F100FB11400A2190FBF1F000F0FF082A
:103BE0000A2094FBF0F100FB114000F0FF091A9845
:103BF000002825DD10A802211A9A11FB02030A46AB
:103C00001946162004F0B4FB10A8022111FB07038B
:103C10000A461946142004F0ABFB10A8022111FB40
:103C200008030A461946122004F0A2FB10A802213C
:103C300011FB09030A461946102004F099FB2FE0F6
:103C4000002F1BDD10A8022111FB07030A461946AD
:103C5000142004F08DFB10A8022111FB08030A4672
:103C60001946122004F084FB10A8022111FB09035D
:103C70000A461946102004F07BFB11E010A802212F
:103C800011FB08030A461946122004F071FB10A824
:103C9000022111FB09030A461946102004F068FBB3
:103CA0004FF47A7095FBF0F0C0B219904FF47A702F
:103CB00095FBF0F100FB1150642190FBF1F000F056
:103CC000FF0A642095FBF0F100FB11500A2190FBE4
:103CD000F1F000F0FF0B0A2095FBF0F100FB115012
:103CE000C0B218901998002826DD10A80221199A50
:103CF00011FB02030A4619460E2004F039FB0BA8FB
:103D0000022111FB0A030A461946082004F030FB81
:103D10000BA8022111FB0B030A4619460A2004F0E6
:103D200027FB0BA80221189A11FB02030A46194629
:103D30000C2004F01DFB32E0BAF1000F1CDD0BA8D3
:103D4000022111FB0A030A461946082004F010FB61
:103D50000BA8022111FB0B030A4619460A2004F0A6
:103D600007FB0BA80221189A11FB02030A46194609
:103D70000C2004F0FDFA12E00BA8022111FB0B034A
:103D80000A4619460A2004F0F3FA0BA80221189AF1
:103D900011FB02030A4619460C2004F0E9FA6420DC
:103DA00096FBF0F0C2B21792642096FBF0F100FB94
:103DB00011600A2190FBF1F0C0B216900A2096FB28
:103DC000F0F100FB1160C0B215900BA80221179A08
:103DD00011FB02030A461946022004F0C9FA0BA996
:103DE0000222169812FB00131946042004F0C0FAB0
:103DF00001A90222159812FB00131946062004F0AF
:103E0000B7FA1BB0BDE8F08F0F0506000B060F02D6
:103E100006030D030D0707000F070F03050F00062C
:103E2000060B020F0306030D070D0007070F030F14
:103E30000F0D06080B0E0F0A060B0D0B0D0F0708D2
:103E40000F0F0F0B0D0F08060E0B0A0F0B060B0DB5
:103E50000F0D08070F0F0B0F570000202C0100203B
:103E60002DE9F04F9BB004460D4616461422BFA123
:103E700010A8FDF705F91422C1A10BA8FDF700F960
:103E80001422C4A106A8FDF7FBF81422C6A101A8BC
:103E9000FDF7F6F801211C2004F090FA01211F2003
:103EA00004F08CFA02211B2004F088FAC348007841
:103EB00018B90021182004F081FAC04800780128C0
:103EC00003D10421182004F079FABC4800780228B4
:103ED00003D10221182004F071FAB84800780328B1
:103EE00003D10121182004F069FA0821192004F0F7
:103EF00065FAB348007818B90A211F2004F05EFA69
:103F0000AF480078012803D10C211F2004F056FA95
:103F10004FF47A7094FBF0F0C0B21A904FF47A70BC
:103F200094FBF0F100FB1140642190FBF1F0C7B26B
:103F3000642094FBF0F100FB11400A2190FBF1F0AA
:103F400000F0FF080A2094FBF0F100FB114000F0A4
:103F5000FF091A98002825DD10A802211A9A11FBE2
:103F600002030A461946162004F002FA10A802219C
:103F700011FB07030A461946142004F0F9F910A8AA
:103F8000022111FB08030A461946122004F0F0F939
:103F900010A8022111FB09030A461946102004F05B
:103FA000E7F92FE0002F1BDD10A8022111FB07030A
:103FB0000A461946142004F0DBF910A8022111FB6F
:103FC00008030A461946122004F0D2F910A802216B
:103FD00011FB09030A461946102004F0C9F911E043
:103FE00010A8022111FB08030A461946122004F00A
:103FF000BFF910A8022111FB09030A461946102037
:1040000004F0B6F94FF47A7095FBF0F0C0B2199055
:104010004FF47A7095FBF0F100FB1150642190FB96
:10402000F1F000F0FF0A642095FBF0F100FB115065
:104030000A2190FBF1F000F0FF0B0A2095FBF0F154
:1040400000FB1150C0B218901998002826DD10A866
:104050000221199A11FB02030A4619460E2004F0A8
:1040600087F90BA8022111FB0A030A46194608200A
:1040700004F07EF90BA8022111FB0B030A46194636
:104080000A2004F075F90BA80221189A11FB02030B
:104090000A4619460C2004F06BF932E0BAF1000F21
:1040A0001CDD0BA8022111FB0A030A461946082051
:1040B00004F05EF90BA8022111FB0B030A46194616
:1040C0000A2004F055F90BA80221189A11FB0203EB
:1040D0000A4619460C2004F04BF912E00BA8022105
:1040E00011FB0B030A4619460A2004F041F90BA8FC
:1040F0000221189A11FB02030A4619460C2004F00B
:1041000037F9642096FBF0F0C2B21792642096FB58
:10411000F0F100FB11600A2190FBF1F0C0B21690A3
:104120000A2096FBF0F100FB1160C0B215900BA8BD
:104130000221179A11FB02030A461946022004F0D5
:1041400017F90BA90222169812FB00131946042036
:1041500004F00EF901A90222159812FB001319466A
:10416000062004F005F91BB0BDE8F08F0F0506002E
:104170000B060F0206030D030D0707000F070F03C1
:10418000050F0006060B020F0306030D070D0007BF
:10419000070F030F0F0D06080B0E0F0A060B0D0B72
:1041A0000D0F07080F0F0F0B0D0F08060E0B0A0F50
:1041B0000B060B0D0F0D08070F0F0B0F57000020FC
:1041C0002C0100202DE9F04F9BB004460D46164609
:1041D0001422BFA110A8FCF753FF1422C1A10BA801
:1041E000FCF74EFF1422C4A106A8FCF749FF1422D5
:1041F000C6A101A8FCF744FF01211C2004F0DEF851
:1042000001211F2004F0DAF804211B2004F0D6F865
:10421000C348007818B90021182004F0CFF8C0482E
:104220000078012803D10421182004F0C7F8BC4805
:104230000078022803D10221182004F0BFF8B84802
:104240000078032803D10121182004F0B7F80821D1
:10425000192004F0B3F8B348007818B90A211F20D8
:1042600004F0ACF8AF480078012803D10C211F20DE
:1042700004F0A4F84FF47A7094FBF0F0C0B21A90F6
:104280004FF47A7094FBF0F100FB1140642190FB35
:10429000F1F0C7B2642094FBF0F100FB11400A2159
:1042A00090FBF1F000F0FF080A2094FBF0F100FB16
:1042B000114000F0FF091A98002825DD10A80221FE
:1042C0001A9A11FB02030A461946162004F050F808
:1042D00010A8022111FB07030A461946142004F016
:1042E00047F810A8022111FB08030A4619461220BC
:1042F00004F03EF810A8022111FB09030A461946F2
:10430000102004F035F82FE0002F1BDD10A802214B
:1043100011FB07030A461946142004F029F810A8D7
:10432000022111FB08030A461946122004F020F866
:1043300010A8022111FB09030A461946102004F0B7
:1043400017F811E010A8022111FB08030A461946CC
:10435000122004F00DF810A8022111FB09030A46EF
:104360001946102004F004F84FF47A7095FBF0F031
:10437000C0B219904FF47A7095FBF0F100FB115028
:10438000642190FBF1F000F0FF0A642095FBF0F14E
:1043900000FB11500A2190FBF1F000F0FF0B0A2006
:1043A00095FBF0F100FB1150C0B21890199800284D
:1043B00026DD10A80221199A11FB02030A461946AC
:1043C0000E2003F0D5FF0BA8022111FB0A030A46B9
:1043D0001946082003F0CCFF0BA8022111FB0B03A8
:1043E0000A4619460A2003F0C3FF0BA80221189AB7
:1043F00011FB02030A4619460C2003F0B9FF32E014
:10440000BAF1000F1CDD0BA8022111FB0A030A46BA
:104410001946082003F0ACFF0BA8022111FB0B0387
:104420000A4619460A2003F0A3FF0BA80221189A96
:1044300011FB02030A4619460C2003F099FF12E013
:104440000BA8022111FB0B030A4619460A2003F0B0
:104450008FFF0BA80221189A11FB02030A46194686
:104460000C2003F085FF642096FBF0F0C2B2179297
:10447000642096FBF0F100FB11600A2190FBF1F043
:10448000C0B216900A2096FBF0F100FB1160C0B29A
:1044900015900BA80221179A11FB02030A46194630
:1044A000022003F065FF0BA90222169812FB0013ED
:1044B0001946042003F05CFF01A90222159812FBA3
:1044C00000131946062003F053FF1BB0BDE8F08F20
:1044D0000F0506000B060F0206030D030D0707006C
:1044E0000F070F03050F0006060B020F0306030D4F
:1044F000070D0007070F030F0F0D06080B0E0F0A1D
:10450000060B0D0B0D0F07080F0F0F0B0D0F0806F5
:104510000E0B0A0F0B060B0D0F0D08070F0F0B0FDD
:10452000570000202C0100202DE9F04F9BB00446DD
:104530000D4616461422BFA110A8FCF7A1FD1422B7
:10454000C1A10BA8FCF79CFD1422C4A106A8FCF78E
:1045500097FD1422C6A101A8FCF792FD01211C20A1
:1045600003F02CFF01211F2003F028FF04211A2053
:1045700003F024FFC348007818B90021182003F085
:104580001DFFC0480078012803D10421182003F042
:1045900015FFBC480078022803D10221182003F03F
:1045A0000DFFB8480078032803D10121182003F03B
:1045B00005FF0821192003F001FFB348007818B95E
:1045C0000A211F2003F0FAFEAF480078012803D12A
:1045D0000C211F2003F0F2FE4FF47A7094FBF0F0F0
:1045E000C0B21A904FF47A7094FBF0F100FB1140C6
:1045F000642190FBF1F0C7B2642094FBF0F100FB62
:1046000011400A2190FBF1F000F0FF080A2094FB12
:10461000F0F100FB114000F0FF091A98002825DD99
:1046200010A802211A9A11FB02030A461946162005
:1046300003F09EFE10A8022111FB07030A4619464B
:10464000142003F095FE10A8022111FB08030A466E
:104650001946122003F08CFE10A8022111FB090359
:104660000A461946102003F083FE2FE0002F1BDDC1
:1046700010A8022111FB07030A461946142003F073
:1046800077FE10A8022111FB08030A4619461220E2
:1046900003F06EFE10A8022111FB09030A46194619
:1046A000102003F065FE11E010A8022111FB0803A1
:1046B0000A461946122003F05BFE10A8022111FBE6
:1046C00009030A461946102003F052FE4FF47A708F
:1046D00095FBF0F0C0B219904FF47A7095FBF0F1B1
:1046E00000FB1150642190FBF1F000F0FF0A642000
:1046F00095FBF0F100FB11500A2190FBF1F000F066
:10470000FF0B0A2095FBF0F100FB1150C0B218908E
:104710001998002826DD10A80221199A11FB02031E
:104720000A4619460E2003F023FE0BA8022111FBB6
:104730000A030A461946082003F01AFE0BA80221B4
:1047400011FB0B030A4619460A2003F011FE0BA8C1
:104750000221189A11FB02030A4619460C2003F0A5
:1047600007FE32E0BAF1000F1CDD0BA8022111FB9D
:104770000A030A461946082003F0FAFD0BA8022195
:1047800011FB0B030A4619460A2003F0F1FD0BA8A2
:104790000221189A11FB02030A4619460C2003F065
:1047A000E7FD12E00BA8022111FB0B030A46194694
:1047B0000A2003F0DDFD0BA80221189A11FB020369
:1047C0000A4619460C2003F0D3FD642096FBF0F056
:1047D000C2B21792642096FBF0F100FB11600A212F
:1047E00090FBF1F0C0B216900A2096FBF0F100FBAE
:1047F0001160C0B215900BA80221179A11FB020399
:104800000A461946022003F0B3FD0BA902221698AE
:1048100012FB00131946042003F0AAFD01A902228D
:10482000159812FB00131946062003F0A1FD1BB0DA
:10483000BDE8F08F0F0506000B060F0206030D03FF
:104840000D0707000F070F03050F0006060B020FE9
:104850000306030D070D0007070F030F0F0D0608D2
:104860000B0E0F0A060B0D0B0D0F07080F0F0F0B8A
:104870000D0F08060E0B0A0F0B060B0D0F0D080788
:104880000F0F0B0F570000202C0100202DE9F04FD7
:1048900099B004460D4616461422AEA10FA8FCF7A7
:1048A000EFFB1422B0A10AA8FCF7EAFB1422B3A183
:1048B00005A8FCF7E5FB1422B5A16846FCF7E0FB70
:1048C00001211C2003F07AFD01211F2003F076FD59
:1048D000B448007818B90821182003F06FFDB148DA
:1048E0000078012803D10C21182003F067FDAD48A2
:1048F0000078022803D10A21182003F05FFDA9489F
:104900000078032803D10921182003F057FD08215E
:104910001A2003F053FDA448007818B90A211F207B
:1049200003F04CFDA0480078012803D10C211F2082
:1049300003F044FD4FF47A7094FBF0F0C0B218908D
:104940004FF47A7094FBF0F100FB1140642190FB6E
:10495000F1F0C7B2642094FBF0F100FB11400A2192
:1049600090FBF1F000F0FF080A2094FBF0F100FB4F
:10497000114000F0FF091898002825DD0FA802213A
:10498000189A11FB02030A461946162003F0F0FCA0
:104990000FA8022111FB07030A461946142003F051
:1049A000E7FC0FA8022111FB08030A461946122052
:1049B00003F0DEFC05A8022111FB09030A46194693
:1049C000102003F0D5FC2FE0002F1BDD0FA80221E3
:1049D00011FB07030A461946142003F0C9FC0FA86F
:1049E000022111FB08030A461946122003F0C0FCFD
:1049F00005A8022111FB09030A461946102003F0FD
:104A0000B7FC11E00FA8022111FB08030A46194662
:104A1000122003F0ADFC05A8022111FB09030A4690
:104A20001946102003F0A4FC642095FBF0F0C0B2FE
:104A30001790642095FBF0F100FB11500A2190FBC8
:104A4000F1F000F0FF0A0A2095FBF0F100FB115095
:104A500000F0FF0B179800281CDD0AA80221179A06
:104A600011FB02030A461946082003F081FC0AA83C
:104A7000022111FB0A030A4619460A2003F078FCBA
:104A80006846022111FB0B030A4619460C2003F06D
:104A90006FFC11E00AA8022111FB0A030A4619461D
:104AA0000A2003F065FC6846022111FB0B030A464D
:104AB00019460C2003F05CFC642096FBF0F0C0B2B9
:104AC0001690642096FBF0F100FB11600A2190FB28
:104AD000F1F0C0B215900A2096FBF0F100FB1160D6
:104AE000C0B21490169800281DDD0AA9022216985B
:104AF00012FB00131946104603F03AFC0AA80221E3
:104B0000159A11FB02030A461946042003F030FCF3
:104B100068460221149A11FB02030A461946062030
:104B200003F026FC13E00AA80221159A11FB0203E8
:104B30000A461946042003F01BFC68460221149A19
:104B400011FB02030A461946062003F011FC19B0B6
:104B5000BDE8F08F0F0506000B060F0206030D03DC
:104B60000D0707000F070F03050F0006060B020FC6
:104B70000306030D070D0007070F030F0F0D0608AF
:104B80000B0E0F0A060B0D0B0D0F07080F0F0F0B67
:104B90000D0F08060E0B0A0F0B060B0D0F0D080765
:104BA0000F0F0B0F570000202C0100202DE9F04FB4
:104BB00099B004460D4616461422B0A10FA8FCF782
:104BC0005FFA1422B2A10AA8FCF75AFA1422B5A17E
:104BD00005A8FCF755FA1422B7A16846FCF750FA6D
:104BE00001211C2003F0EAFB01211F2003F0E6FB5A
:104BF00002211B2003F0E2FBB448007818B9002121
:104C0000182003F0DBFBB1480078012803D1042110
:104C1000182003F0D3FBAD480078022803D102210D
:104C2000182003F0CBFBA9480078032803D1012109
:104C3000182003F0C3FB08211A2003F0BFFBA4488F
:104C4000007818B90A211F2003F0B8FBA0480078AB
:104C5000012803D10C211F2003F0B0FB4FF47A7020
:104C600094FBF0F0C0B218904FF47A7094FBF0F11E
:104C700000FB1140642190FBF1F0C7B2642094FB6B
:104C8000F0F100FB11400A2190FBF1F000F0FF0869
:104C90000A2094FBF0F100FB114000F0FF09189886
:104CA000002825DD0FA80221189A11FB02030A46ED
:104CB0001946162003F05CFB0FA8022111FB070325
:104CC0000A461946142003F053FB0FA8022111FBDA
:104CD00008030A461946122003F04AFB05A80221E0
:104CE00011FB09030A461946102003F041FB2FE08F
:104CF000002F1BDD0FA8022111FB07030A461946EE
:104D0000142003F035FB0FA8022111FB08030A460B
:104D10001946122003F02CFB05A8022111FB090300
:104D20000A461946102003F023FB11E00FA80221C8
:104D300011FB08030A461946122003F019FB05A8C7
:104D4000022111FB09030A461946102003F010FB4B
:104D5000642095FBF0F0C0B21790642095FBF0F151
:104D600000FB11500A2190FBF1F000F0FF0A0A202D
:104D700095FBF0F100FB115000F0FF0B1798002895
:104D80001CDD0AA80221179A11FB02030A461946E4
:104D9000082003F0EDFA0AA8022111FB0A030A46D3
:104DA00019460A2003F0E4FA6846022111FB0B03BE
:104DB0000A4619460C2003F0DBFA11E00AA802218A
:104DC00011FB0A030A4619460A2003F0D1FA684685
:104DD000022111FB0B030A4619460C2003F0C8FA06
:104DE000642096FBF0F0C0B21690642096FBF0F1C0
:104DF00000FB11600A2190FBF1F0C0B215900A206F
:104E000096FBF0F100FB1160C0B2149016980028D8
:104E10001DDD0AA90222169812FB0013194610463E
:104E200003F0A6FA0AA80221159A11FB02030A460A
:104E30001946042003F09CFA68460221149A11FBDB
:104E400002030A461946062003F092FA13E00AA864
:104E50000221159A11FB02030A461946042003F0A9
:104E600087FA68460221149A11FB02030A46194682
:104E7000062003F07DFA19B0BDE8F08F0F0506009B
:104E80000B060F0206030D030D0707000F070F03A4
:104E9000050F0006060B020F0306030D070D0007A2
:104EA000070F030F0F0D06080B0E0F0A060B0D0B55
:104EB0000D0F07080F0F0F0B0D0F08060E0B0A0F33
:104EC0000B060B0D0F0D08070F0F0B0F57000020DF
:104ED0002C0100202DE9F04F99B004460D461646EE
:104EE0001422B0A10FA8FCF7CBF81422B2A10AA893
:104EF000FCF7C6F81422B5A105A8FCF7C1F81422E6
:104F0000B7A16846FCF7BCF801211C2003F056FA53
:104F100001211F2003F052FA04211B2003F04EFA56
:104F2000B448007818B90021182003F047FAB148B6
:104F30000078012803D10421182003F03FFAAD487E
:104F40000078022803D10221182003F037FAA9487B
:104F50000078032803D10121182003F02FFA08213B
:104F60001A2003F02BFAA448007818B90A211F2050
:104F700003F024FAA0480078012803D10C211F2057
:104F800003F01CFA4FF47A7094FBF0F0C0B2189062
:104F90004FF47A7094FBF0F100FB1140642190FB18
:104FA000F1F0C7B2642094FBF0F100FB11400A213C
:104FB00090FBF1F000F0FF080A2094FBF0F100FBF9
:104FC000114000F0FF091898002825DD0FA80221E4
:104FD000189A11FB02030A461946162003F0C8F975
:104FE0000FA8022111FB07030A461946142003F0FB
:104FF000BFF90FA8022111FB08030A461946122027
:1050000003F0B6F905A8022111FB09030A46194667
:10501000102003F0ADF92FE0002F1BDD0FA80221B7
:1050200011FB07030A461946142003F0A1F90FA843
:10503000022111FB08030A461946122003F098F9D1
:1050400005A8022111FB09030A461946102003F0A6
:105050008FF911E00FA8022111FB08030A46194637
:10506000122003F085F905A8022111FB09030A4665
:105070001946102003F07CF9642095FBF0F0C0B2D3
:105080001790642095FBF0F100FB11500A2190FB72
:10509000F1F000F0FF0A0A2095FBF0F100FB11503F
:1050A00000F0FF0B179800281CDD0AA80221179AB0
:1050B00011FB02030A461946082003F059F90AA811
:1050C000022111FB0A030A4619460A2003F050F98F
:1050D0006846022111FB0B030A4619460C2003F017
:1050E00047F911E00AA8022111FB0A030A461946F2
:1050F0000A2003F03DF96846022111FB0B030A4622
:1051000019460C2003F034F9642096FBF0F0C0B28D
:105110001690642096FBF0F100FB11600A2190FBD1
:10512000F1F0C0B215900A2096FBF0F100FB11607F
:10513000C0B21490169800281DDD0AA90222169804
:1051400012FB00131946104603F012F90AA80221B7
:10515000159A11FB02030A461946042003F008F9C8
:1051600068460221149A11FB02030A4619460620DA
:1051700003F0FEF813E00AA80221159A11FB0203BE
:105180000A461946042003F0F3F868460221149AEF
:1051900011FB02030A461946062003F0E9F819B08C
:1051A000BDE8F08F0F0506000B060F0206030D0386
:1051B0000D0707000F070F03050F0006060B020F70
:1051C0000306030D070D0007070F030F0F0D060859
:1051D0000B0E0F0A060B0D0B0D0F07080F0F0F0B11
:1051E0000D0F08060E0B0A0F0B060B0D0F0D08070F
:1051F0000F0F0B0F570000202C0100202DE9F04F5E
:1052000099B004460D4616461422AEA10FA8FBF72E
:1052100037FF1422B0A10AA8FBF732FF1422B3A172
:1052200005A8FBF72DFF1422B5A16846FBF728FF60
:1052300001211C2003F0C2F801211F2003F0BEF859
:105240000C211A2003F0BAF8B248007818B90021EE
:10525000182003F0B3F8AF480078012803D10421E7
:10526000182003F0ABF8AB480078022803D10221E4
:10527000182003F0A3F8A7480078032803D10121E0
:10528000182003F09BF8A448007818B90A211F20C1
:1052900003F094F8A0480078012803D10C211F20C6
:1052A00003F08CF84FF47A7094FBF0F0C0B21890D1
:1052B0004FF47A7094FBF0F100FB1140642190FBF5
:1052C000F1F0C7B2642094FBF0F100FB11400A2119
:1052D00090FBF1F000F0FF080A2094FBF0F100FBD6
:1052E000114000F0FF091898002825DD0FA80221C1
:1052F000189A11FB02030A461946162003F038F8E3
:105300000FA8022111FB07030A461946142003F0D7
:105310002FF80FA8022111FB08030A461946122094
:1053200003F026F805A8022111FB09030A461946D5
:10533000102003F01DF82FE0002F1BDD0FA8022125
:1053400011FB07030A461946142003F011F80FA8B1
:10535000022111FB08030A461946122003F008F83F
:1053600005A8022111FB09030A461946102002F084
:10537000FFFF11E00FA8022111FB08030A4619469E
:10538000122002F0F5FF05A8022111FB09030A46CD
:105390001946102002F0ECFF642095FBF0F0C0B23B
:1053A0001790642095FBF0F100FB11500A2190FB4F
:1053B000F1F000F0FF0A0A2095FBF0F100FB11501C
:1053C00000F0FF0B179800281CDD0AA80221179A8D
:1053D00011FB02030A461946082002F0C9FF0AA879
:1053E000022111FB0A030A4619460A2002F0C0FFF7
:1053F0006846022111FB0B030A4619460C2002F0F5
:10540000B7FF11E00AA8022111FB0A030A46194658
:105410000A2002F0ADFF6846022111FB0B030A4689
:1054200019460C2002F0A4FF642096FBF0F0C0B2F5
:105430001690642096FBF0F100FB11600A2190FBAE
:10544000F1F0C0B215900A2096FBF0F100FB11605C
:10545000C0B21490169800281DDD0AA902221698E1
:1054600012FB00131946104602F082FF0AA802211F
:10547000159A11FB02030A461946042002F078FF30
:1054800068460221149A11FB02030A4619460620B7
:1054900002F06EFF13E00AA80221159A11FB020325
:1054A0000A461946042002F063FF68460221149A56
:1054B00011FB02030A461946062002F059FF19B0F3
:1054C000BDE8F08F0F0506000B060F0206030D0363
:1054D0000D0707000F070F03050F0006060B020F4D
:1054E0000306030D070D0007070F030F0F0D060836
:1054F0000B0E0F0A060B0D0B0D0F07080F0F0F0BEE
:105500000D0F08060E0B0A0F0B060B0D0F0D0807EB
:105510000F0F0B0F570000202C0100201CB501219C
:10552000022002F0C1FBE020009001208DF8040071
:1055300000208DF8060002208DF8050069460E480F
:10554000FCF720FC20210C48FCF76FFC40210A48A6
:10555000FCF76BFC80210848FCF767FC022002F096
:105560001DFC292002F01AFC012002F017FC032088
:1055700002F014FC1CBD00000004024000BFFEE766
:105580001CB54FF400511348FCF74DFC4FF480401C
:10559000009001208DF8040002208DF80500694676
:1055A0000C48FCF7EFFB4FF480410A48FCF73BFC4A
:1055B000022007F019FF4FF400510648FCF735FCB4
:1055C000022007F011FF4FF400510248FCF72BFCBA
:1055D0001CBD0000000402401CB50121022002F0A5
:1055E00063FB4FF4E040009001208DF8040002209E
:1055F0008DF8050069460948FCF7C4FB4FF480515B
:105600000648FCF710FC4FF400510448FCF70DFC71
:105610004FF480410148FCF708FC1CBD0004024027
:105620001CB54FF400511348FCF7FDFB4FF48040CC
:10563000009001208DF8040002208DF805006946D5
:105640000C48FCF79FFB4FF480410A48FCF7EDFB48
:10565000022007F0C9FE4FF400510648FCF7E5FBB5
:10566000022007F0C1FE4FF400510248FCF7DBFBBB
:105670001CBD0000000402407CB5064600244FF427
:105680008040009000208DF804008DF807006946E6
:105690001548FCF777FB00251BE04FF4005112483A
:1056A000FCF7C1FB022007F09FFE4FF400510E48AB
:1056B000FCF7BBFB6006040E4FF480410A48FCF780
:1056C000A9FB08B1601CC4B2012007F08DFE681C64
:1056D000C5B2082DE1DB16B9FFF7A2FF01E0FFF725
:1056E0004FFF20467CBD0000000402407CB504460C
:1056F0004FF48040009001208DF8040002208DF8C6
:10570000050069461948FCF73DFB4FF40051174866
:10571000FCF789FB002525E0E00904D14FF4804126
:105720001248FCF780FB0120B0EBD41F03D18103AA
:105730000E48FCF77AFB6006040E022007F054FEC8
:105740004FF400510948FCF770FB022007F04CFEB3
:105750004FF400510548FCF766FB022007F044FEB9
:10576000681CC5B2082DD7DB7CBD000000040240D8
:105770001CB54FF48040009001208DF804000220F9
:105780008DF8050069460F48FCF7FCFA4FF480419C
:105790000C48FCF74AFB4FF400510A48FCF745FB64
:1057A000032007F021FE4FF480410648FCF73BFB45
:1057B000032007F019FE4FF400510248FCF733FBB9
:1057C0001CBD0000000402401CB54FF48040009056
:1057D00001208DF8040002208DF8050069460F486D
:1057E000FCF7D0FA4FF400510C48FCF71CFB4FF4C7
:1057F00080410A48FCF717FB032007F0F5FD4FF442
:1058000000510648FCF711FB4FF480410348FCF7B8
:105810000CFB032007F0E8FD1CBD00000004024063
:105820001CB500244FF48040009000208DF8040047
:105830008DF8070069461548FCF7A4FA4FF480413B
:105840001248FCF7F2FA012007F0CEFD4FF40051A8
:105850000E48FCF7EAFA012007F0C6FD07E0601CDD
:10586000C4B2FA2C03DDFFF7AFFF01201CBD4FF4DB
:1058700080410648FCF7CEFA0028F0D14FF40051E1
:105880000248FCF7D0FA0020F0E7000000040240D4
:105890004CF6CC40014908607047000000300040E1
:1058A00000B500F013F800BD00B503460A4645F206
:1058B000555000F01FF8184600F010F8104600F0A0
:1058C00013F800F003F8FFF7E3FF00BD4AF6AA2043
:1058D00001490860704700000030004001494860FD
:1058E00070470000003000400149886070470000A8
:1058F000003000400149086070470000003000405F
:1059000000B59BB00121744802F0CEF901214FF49B
:10591000E06002F0E9F94FF0806002906F48039078
:105920006F48049000200590012006900020079009
:1059300008904FF40060099080000A9040110B908D
:1059400040020C9000200D9001200E9000200F903E
:10595000109002A96348FBF7DDFF01216148FBF7C6
:10596000CDFF002002906048039060480490002022
:105970000590012006900020079008904FF40060E9
:10598000099080000A9040110B9040020C9000207A
:105990000D9001200E9000200F90109002A9514808
:1059A0001838FBF7B7FF01214E481838FBF7A6FF60
:1059B0004FF0007002904E4803904E480490002033
:1059C0000590012006900020079008904FF4006099
:1059D000099080000A9040110B9040020C9000202A
:1059E0000D9001200E9000200F90109002A93D48CC
:1059F0001830FBF78FFF01213A481830FBF77EFF84
:105A00000F20009003208DF8040000208DF807007F
:105A100069463948FCF7B6F99220009003208DF8CA
:105A2000040000208DF8070069463448FCF7AAF905
:105A30000020119012901390149011A8FBF742FCD3
:105A4000002015908DF8580001208DF85900002095
:105A50001790199001208DF8680015A91F484C383F
:105A6000FBF762FC15A922484C38FBF75DFC15A931
:105A70001D484C38FBF758FC012118484C38FBF7FF
:105A800048FC01211A484C38FBF743FC0121164819
:105A90004C38FBF73EFC012110484C38FBF72EFC3C
:105AA000012113484C38FBF729FC01210E484C38E2
:105AB000FBF724FC012109484C38FBF7F7FB0121D7
:105AC0000B484C38FBF7F2FB012107484C38FBF739
:105AD000EDFB1BB000BD0000050040004C22014062
