:020000040800F2
:100000008056002029020008A36200081954000845
:100010009F620008411700086B8100080000000083
:10002000000000000000000000000000557B0008F8
:100030007119000800000000AB020008657D00088F
:10004000430200084302000843020008430200087C
:10005000430200084302000843020008430200086C
:10006000430200084302000843020008430200085C
:10007000430200084302000843020008430200084C
:10008000430200084302000843020008430200083C
:10009000430200084302000843020008311A000826
:1000A000430200084302000843020008430200081C
:1000B000F57D0008430200081D7F00084302000888
:1000C00043020008430200084302000843020008FC
:1000D0004302000843020008430200089180000820
:1000E0007519000843020008430200084302000893
:1000F00043020008430200084302000843020008CC
:1001000043020008430200084302000843020008BB
:1001100043020008430200084302000843020008AB
:10012000430200084302000843020008430200089B
:10013000430200084302000843020008430200088B
:10014000430200084302000843020008430200087B
:10015000430200084302000843020008430200086B
:10016000430200084302000843020008430200085B
:10017000430200084302000843020008430200084B
:10018000430200084302000800F002F800F03CF8C7
:100190000AA090E8000C82448344AAF10107DA45E2
:1001A00001D100F031F8AFF2090EBAE80F0013F0F8
:1001B000010F18BFFB1A43F0010318478C400100E0
:1001C000AC400100103A24BF78C878C1FAD8520771
:1001D00024BF30C830C144BF04680C6070470000C1
:1001E0000023002400250026103A28BF78C1FBD840
:1001F000520728BF30C148BF0B6070471FB50DF0D4
:1002000018FC1FBD10B510BD00F054FF1146FFF7DC
:10021000F5FF0CF0ABFC00F072FF03B4FFF7F2FF48
:1002200003BC00F073FF00000948804709480047FD
:10023000FEE7FEE7FEE7FEE7FEE7FEE7FEE7FEE796
:10024000FEE7FEE704480549054A064B70470000F3
:100250008D7D000889010008805000208056002014
:100260008052002080520020EFF3108072B6704759
:1002700080F3108870471D484FF0FF010170002087
:1002800080F309881A48012101701A484FF0805103
:10029000016062B6FEE717484FF080510160704779
:1002A00014484FF080510160704772B6EFF3098037
:1002B00028B1203880E8F00F0F490968086000B5C0
:1002C0000E4880475DF804EB0D480E490A7802702D
:1002D00009480D490A680260106890E8F00F203064
:1002E00080F309884EF0040E62B6704722ED00E0FC
:1002F000AE00002004ED00E0B40000204F640008D0
:10030000A3000020A4000020BC00002072B67047AB
:1003100062B67047EFF3108072B6704780F31088B2
:100320007047B0FA80F0704790FAA0F0704730BF85
:10033000704720BF70470000DFED2E0AB5EEC00AFF
:1003400060EE200ABDEEE01A11EE100AF1EE10FA8E
:1003500038BF401E00EE100ADFED271AF7EE005AF4
:10036000B8EEC00ADFED274A244930EEC01A21EE6C
:10037000210AFCEEC00A10EE900A00EE900A01EB92
:100380008000B8EE600ADFED1E0AF0EC012A11EEE3
:10039000210AF6EE001AB0EC013AF0EC013A20EE38
:1003A000001A20EE216A40EE615A20EE245A21EE16
:1003B000212A90ED004A00EE602A66EE010A40EE26
:1003C000400A05EE412A70EEA55AF0EE400A41EED1
:1003D000210A46EE410A25EE011A00EE641A22EEC9
:1003E000820A63EEA00A03EE250A44EE010A30EE0B
:1003F000200A704783F9223E0000804398DB000802
:10040000ABAAAA3EABAA2A3E9FED3A0A5FEA920C3B
:1004100053D000BFB0EC011A0B1DF0EC010A21EE25
:10042000011A00EEA01AB5EEC01AF1EE10FAC6BF1E
:10043000F1EEC10AC1ED000A81ED000AF0EC010AFB
:10044000191DB0EC011A60EEA00A41EE010AF5EEAA
:10045000C00AF1EE10FAC6BFF1EEE00AC3ED000AE1
:1004600083ED000AB0EC011A0B1DF0EC010A21EE3D
:10047000011A00EEA01AB5EEC01AF1EE10FAC6BFCE
:10048000F1EEC10AC1ED000A81ED000AB0EC011ADB
:10049000191DF0EC010A21EE011A00EEA01AB5EECA
:1004A000C01AF1EE10FAC6BFF1EEC10AC3ED000AA0
:1004B00083ED000ABCF1010CACD112F0030208BFBD
:1004C000704700BFF0EC010A0B46B0EC011A091DA1
:1004D00060EEA00A41EE010AF5EEC00AF1EE10FA54
:1004E000C6BFF1EEE00AC3ED000A83ED000A521E1A
:1004F000E8D17047000000002DE9F00700EBC109CA
:10050000DDE90778D0F800A0C9F800A007EB0114D6
:10051000D0F804A0251FA9F10406C9F804A003EB34
:10052000C80907F1080C00F1080402EBC8024B1ED1
:1005300031D000BFF2EC011A96ED002A92ED001ABC
:1005400002EBC802B4EC010A121FF4EC012A60EEBF
:10055000210A20EE010A32EE823A02EEA10AD9ED1A
:10056000001A43EE410A09EBC80902EE610A16EDD2
:10057000012A083E42EE210A02EE410AECEC010A91
:10058000ACEC010AB1EE400A85ED000A45ED010A26
:10059000083D5B1ECED190ED000AD0ED010A07EBBD
:1005A000C10130EE600A81ED000A9FED5D0A81ED28
:1005B000010AD0ED000A90ED011A70EE810AC7ED34
:1005C000000A87ED010ABDE8F007704770B400EB40
:1005D000C105DDE903C42D1D002904BF70BC7047AF
:1005E000F2EC011A95ED002A92ED001A02EBC4021A
:1005F000B0EC010A121FF0EC012A60EE210A20EE95
:10060000410A32EE823A02EEA10AD3ED001A43EE1D
:10061000010A03EBC40302EE610A15ED012A083D4D
:10062000491E42EE210A02EE010AECEC010AACEC92
:10063000010AD5D170BC70472DE9F04305464469E5
:10064000807983B00F461646012809D0A3892188F6
:100650003846626800F036F9E87901284ED053E058
:10066000AA88D5E9030307EBC20CD5F80880314608
:100670000CF1040C5AB300BFB0EC011A9CED002A37
:10068000D0ED001A00EBC800B7EC010A001FF7EC30
:10069000012A521E60EE010A20EE610A32EE823A11
:1006A00002EE810A93ED001A43EE210A03EBC80320
:1006B00002EE410A1CED012AACF1080C42EE010ADF
:1006C00002EE210AE1EC010AA1EC010AD4D194ED79
:1006D000040AA38921883046626800F095FAE87917
:1006E00001281CBF03B0BDE8F083E2892188A3681C
:1006F00003B03046BDE8F04300F08CB8E2892188B1
:100700003846A36800F086F8A868CDE90060D5E90E
:100710000323A9883846FFF7EFFE03B0BDE8F08356
:100720000000000070B592B2DDF810C055080260FC
:100730008580184EC66006F50056DBB206610024BF
:10074000837180F807C0802A04BF102282600BD01A
:10075000B2F5007F08BF042212D0B2F5006F14BFBB
:100760004FF0FF3401220BD0002B8C4641614FF03B
:10077000000307D001222946604600F015FC06E080
:100780008260F1E700222946604600F00DFC204619
:1007900070BD0000A4DF000870B40025B0EC010AB1
:1007A000A1F1010CF0EC010AB4EEE00AF1EE10FA4E
:1007B0003CBFB0EE600A0125ACF10104A446B4F1DF
:1007C000004F0ED3F0EC010AB4EEE00AF1EE10FA9D
:1007D0003CBFB0EE600AA1EB0C05BCF1010CF1D1FD
:1007E00013E0002CC8BF00260FDD00BFF0EC010AAB
:1007F000B4EEE00AF1EE10FA04D2ACEB0605B0EE6E
:10080000600A4D1B761C641EF0D182ED000A1D604B
:1008100070BC70472DE9F0014E0801244FF0000C28
:1008200004EB51076146A6F102082CE061452AD28B
:1008300000EBCC0500EBC104D5ED000A94ED000AF5
:10084000C4ED000A85ED000AD5ED010A94ED010A18
:10085000C4ED010A85ED010A0CEB0705CC1900EB8C
:10086000C50500EBC404D5ED000A94ED000AC4ED03
:10087000000A85ED000AD5ED010A94ED010AC4EDE8
:10088000010A85ED010A00EBC104B44400EBCC0C75
:1008900094ED020ADCED000A891CC4ED020A8CED1D
:1008A000000A94ED030ADCF80450E5608CED010ABF
:1008B000B3F800C089B203EB42034145B6D9BDE8A5
:1008C000F00170472DE9F04F4FEA910C4FF000080E
:1008D0004746644608EB0C0505EB0C0909EB0C06D2
:1008E00000EBC80A00EBC9099AED000AD9ED000A2D
:1008F00099ED012A00EBC50530EE201A30EE600AB2
:10090000DAED010A00EBC60608F1010870EE821A62
:1009100070EEC20A95ED002AD6ED002A641E32EE72
:10092000222A71EE022A31EE421ACAED002A95ED12
:10093000012AD6ED012A32EE222A71EE822A71EEC8
:10094000C21ACAED012A95ED012AD6ED012A96EDCB
:10095000003A4FEA470A32EE622AD5ED002A02EB4E
:10096000CA0B72EEC32A9BED003ADBED013A21EE91
:10097000034A01EEA34A61EE831A41EE631A85ED44
:10098000004A30EE021A30EE420AC5ED011A02EBBF
:10099000C70570EEE21A95ED002A70EEA20AD5EDB9
:1009A000012A21EE023A0AEB070502EBC5051F44B6
:1009B00001EEA23A61EE821A41EE621A89ED003A26
:1009C000C9ED011AD5ED001A95ED011A20EE212A84
:1009D00000EE812A60EEA10A40EE410A86ED002A6F
:1009E000C6ED010A7FF476AF9B044FEA134BE6464F
:1009F000BCF1040F7DD9E0464FEA9C0C4FF0000992
:100A0000CA46BCF1000F75D94FEA490404EB09034B
:100A100002EBC90502EBC40402EBC30395ED001A17
:100A2000D5ED011A94ED000AD4ED010A93ED002AE8
:100A3000D3ED012AD94453468A4573D203EB0C0403
:100A400004EB0C0606EB0C0500EBC30700EBC60637
:100A500097ED003AD6ED003A96ED015A00EBC4044A
:100A600073EE234A33EE633AD7ED013A00EBC50546
:100A700033EE854A73EEC53A94ED005AD5ED005A2F
:100A800035EE255A74EE855A74EEC54AC7ED005A04
:100A900094ED015AD5ED015A35EE255A74EE055AFA
:100AA00034EE454AC7ED015A94ED015AD5ED015A8D
:100AB00095ED006A35EE655AD4ED005A75EEC65ACA
:100AC00024EE806A04EE206A24EE004A04EEE04A36
:100AD00084ED006A73EEE54A73EEA53A84ED014AAF
:100AE00033EE054A33EE453A24EE015A04EEA15A9C
:100AF00001E026E01BE064EE814A86ED005A4344A3
:100B00008B4244EE614A23EE024A03EEA24A63EEB0
:100B1000823AC6ED014A43EE623A85ED004AC5EDE0
:100B2000013A8BD30AF1010AE245FFF46DAF4FEAB7
:100B30008B434FEA9E0E4FEA134BBEF1040F3FF674
:100B40005AAFA1EB0C0100224B1C4FEA9C04002B76
:100B50008CBF1F46BDE8F08F11190E19331900EB39
:100B6000C20500EBC60695ED000AD6ED000A95ED2C
:100B7000012A96ED011A70EE201A70EE600A32EE2C
:100B8000010A00EBC10100EBC30332EE411A91ED03
:100B9000002AD3ED002A6244974232EE222A71EEF7
:100BA000822A31EEC22AC5ED002AD1ED011AD3ED19
:100BB000012A71EEA21A70EE212AC5ED012A70EE0B
:100BC000612A91ED010AD3ED011A93ED003A70EE1E
:100BD000611A91ED000A81ED002AC1ED012A30EE83
:100BE000430A30EEA12A70EEE10A71EE401A31EEAE
:100BF000000A86ED002AC6ED011AC3ED000A83ED56
:100C0000010AA9D8BDE8F08F2DE9F04F4FEA910C09
:100C10004FF000084746644608EB0C0505EB0C0A4C
:100C20000AEB0C0600EBC80900EBCA0AD9ED000A72
:100C30009AED001ADAED012A00EBC50570EE811A73
:100C400070EEC10A99ED011A00EBC60608F1010821
:100C500031EE222A31EE621AD5ED002A96ED003AE5
:100C6000641E72EE832A31EEA23A71EEE21A89ED29
:100C7000003AD5ED012A96ED013A72EE832A32EE62
:100C8000223A32EE622A89ED013AD5ED012A96ED3B
:100C9000013AD6ED003A4FEA470972EEC32A95EDC4
:100CA000003A02EBC90B33EE633ADBED003A9BED01
:100CB000014A61EEA34A42EE444A22EE232A01EEA3
:100CC000842AC5ED004A70EEE21A70EEA20A85EDA4
:100CD000012A02EBC70531EE032AD5ED002A31EED9
:100CE000431A95ED013A61EEA23A09EB070502EBD2
:100CF000C5051F4442EE433A22EE222A01EE832A22
:100D0000CAED003A8AED012AD5ED001A95ED012AC7
:100D100060EEA12A41EE422A21EE211A00EE821A4B
:100D2000C6ED002A86ED011A7FF476AF9B044FEAE8
:100D3000134BE646BCF1040F7DD9E0464FEA9C0C0C
:100D40004FF00009CA46BCF1000F75D94FEA4904BB
:100D500004EB090302EBC90502EBC40402EBC30375
:100D6000D5ED001A95ED012AD4ED000A94ED011A93
:100D7000D3ED002A93ED013AD94453468A4573D204
:100D800003EB0C0404EB0C0606EB0C0500EBC307AD
:100D900000EBC606D7ED003A96ED004AD6ED015AB3
:100DA00000EBC40433EE845A73EEC43A97ED014A63
:100DB00000EBC50574EE254A34EE654AD4ED005AC1
:100DC00095ED006A75EE865A35EE256A35EE655A60
:100DD00087ED006AD4ED015A95ED016A75EE865AE9
:100DE00034EEA56A74EEE54A87ED016AD4ED015A46
:100DF00095ED016AD5ED006A75EEC65A94ED006A6C
:100E000036EE666A65EE206A44EEC16A64EEA04A78
:100E100045EE014AC4ED006A34EE065A34EE464A05
:100E2000C4ED014A73EEE54A73EEA53A64EEA15AA9
:100E300045EE425A01E026E01BE025EE215AC6EDC0
:100E4000005A43448B4204EE825A63EEA24A44EEB7
:100E5000434A24EE224A86ED015A03EE834AC5ED49
:100E6000004A85ED014A8BD30AF1010AE245FFF4FD
:100E70006DAF4FEA8B434FEA9E0E4FEA134BBEF124
:100E8000040F3FF65AAFA1EB0C0100224B1C4FEAB6
:100E90009C06002B8CBF1F46BDE8F08F91198D1961
:100EA000AB1900EBC20400EBC505D4ED000AD5ED8B
:100EB000001AD4ED012A95ED012A30EEA11A70EE48
:100EC000E11A72EE820A00EBC10100EBC30332EEBD
:100ED000C22AD1ED002A93ED003A6244974272EEA5
:100EE000832A31EE223A71EE622A23EE003A62EE54
:100EF000802A84ED003A91ED011A93ED013A31EE2A
:100F0000031A30EE813A23EE003A84ED013A30EED6
:100F1000C13AD1ED010A93ED011AD3ED003A30EE5A
:100F2000C11AD1ED000AC1ED002A63EE002A70EE6D
:100F3000E30AC1ED012A71EEC12A31EE811A72EE87
:100F4000201A72EE600A22EE802A21EE001A61EE6B
:100F5000801A85ED002A60EE800AC5ED011A83ED46
:100F6000001AC3ED010A99D8BDE8F08F30B50446E8
:100F70000D4680782188A389626801280DD0284613
:100F8000FFF7A0FCE078012818BF30BDE289218876
:100F90002846A368BDE830403CE494ED040A2846A6
:100FA000FFF732FEEEE7000010B401801B4C4460F6
:100FB00082704FF0000CC370102925D040291BD03F
:100FC000B1F5807F10D0B1F5806F18BF4FF0FF3CB6
:100FD00002D010BC6046704701218181C181104957
:100FE0009FED100A816016E004218181C1810E49C4
:100FF0009FED0E0A81600EE010218181C1810C49B4
:101000009FED0C0A816006E040218181C1810A497F
:101010009FED0A0A816080ED040ADAE7A41F010847
:10102000A43F01080000803AAA3F01080000803B6D
:10103000C23F01080000803C224001080000803DC2
:1010400010B5203AC0F00B80B1E81850203AA0E863
:101050001850B1E81850A0E81850BFF4F5AF5FEA97
:10106000027C24BFB1E81850A0E8185044BF18C94A
:1010700018C0BDE810405FEA827C24BF51F8043BF1
:1010800040F8043B08BF7047D20728BF31F8023B45
:1010900048BF11F8012B28BF20F8023B48BF00F8D9
:1010A000012B704770477047704700000048704739
:1010B000205000207546FFF7F9FFAE46050069464F
:1010C000534620F00700854618B020B5FFF7BAF860
:1010D000BDE820404FF000064FF000074FF0000839
:1010E0004FF0000B21F00701AC46ACE8C009ACE8BA
:1010F000C009ACE8C009ACE8C0098D467047044699
:10110000AFF300802046FFF788F8704701491820A8
:10111000ABBEFEE72600020010B5002301221146F7
:10112000034800F00BF9024800F065F910BD00001B
:101130000020014010B5002301220C21034800F0DB
:10114000FDF8024800F057F910BD000000200140F2
:1011500010B5002301220421034800F0EFF80248F3
:1011600000F049F910BD00000020014010B5002337
:1011700001220721034800F0E1F8024800F03BF9A2
:1011800010BD00000020014000B58DB001211F48B6
:1011900006F0B0FC0120019003208DF8080000202B
:1011A0008DF80B0001A91A4800F0DAFD0020039029
:1011B00004900590069003A800F064F800200790C2
:1011C0008DF8200001208DF82100002009900B905F
:1011D00001208DF8300007A90E4800F085F80023A3
:1011E000012208210B4800F0A9F80121094800F06C
:1011F00070F80121074800F061F80121054800F06E
:1012000035F8044800F0F7F80DB000BD02004000CA
:10121000000402400021014010B5002301220A21F0
:10122000034800F08BF8024800F0E5F810BD00001C
:101230000022014010B5002301220B21034800F0D9
:101240007DF8024800F0D7F810BD000000220140F0
:1012500010B5002301220C21034800F06FF802486A
:1012600000F0C9F810BD00000022014021B18268E1
:1012700042F00102826003E0826822F00102826093
:101280007047000000210A4A11680A4A01EA020177
:10129000D0E9002342EA0302836842EA0302C368FA
:1012A00042EA030242EA0101034AC2F8041370470A
:1012B00004230140E030FCFF0020014021B182689E
:1012C00042F48072826003E0826822F4807282605D
:1012D000704721B1826842F40072826003E0826844
:1012E00022F400728260704730B50246002000236D
:1012F0005068104C20400D790C6844EA05242043C6
:10130000506090680C4C2040D1E903542C438D6808
:101310002C434D7944EA450420439060D06A20F480
:1013200070000C7D641EE4B2234340EA0350D06297
:1013300030BD0000FFFEFFFCFDF7FFC070B50446A6
:101340008C4600200021BCF1090F11DDE068ACF1F2
:101350000A0505EB4506072505FA06F18843ACF1B9
:101360000A0505EB450503FA05F10843E0600CE0CA
:1013700020690CEB4C06072505FA06F188430CEBB7
:101380004C0503FA05F108432061072A0FDA606B68
:10139000551E05EB85061F2505FA06F18843551EE7
:1013A00005EB85050CFA05F10843606322E00D2A80
:1013B0000FDA206BD51F05EB85061F2505FA06F110
:1013C0008843D51F05EB85050CFA05F1084320631A
:1013D00010E0E06AA2F10D0505EB85061F2505FA70
:1013E00006F18843A2F10D0505EB85050CFA05F120
:1013F0000843E06270BD816841F0804181607047C0
:1014000010B504F037F810BD70B50446002604F09E
:10141000FDF82546E11704EB11610912A02202EB49
:101420004101C8B204F0B0F804F048F9E11704EB48
:1014300011610912A4EB0121C8B204F0A5F804F06F
:101440003DF904F0E3F8A12004F09EF804F036F929
:10145000002004F05FF8064604F004F9304670BD41
:1014600070B504460E4604F0D1F82546E11704EBAA
:1014700011610912A02202EB4101C8B204F084F804
:1014800004F01CF9E11704EB11610912A4EB01212E
:10149000C8B204F079F804F011F9304604F074F899
:1014A00004F00CF904F0DEF80A200BF093FA70BD9A
:1014B0002DE9F84305F0ACFB9648007801287CD173
:1014C0004103954800F094FC002861D193480168DD
:1014D0009348007807F064FA0646012E31D191480E
:1014E00001698F48007807F05BFA0446ECB98D4833
:1014F00041688B48007807F053FA80468948816834
:101500008748007807F04CFA81468648C1688448CD
:10151000007807F045FA07464B4642468048009758
:1015200001788148007804F07DFC012C09D102206B
:101530000346024600907A4801787B48007804F020
:1015400071FC77480078401C7549087000BF4FF463
:101550000051714800F04CFC0028F8D07048007829
:10156000202802DD01206E4908706D4805780CE0E6
:101570006A480168284607F013FA0646012E02D190
:101580006748057003E0681CC5B2202DF0DD00BF80
:101590004FF40061604800F02BFC002863D15F48E5
:1015A00001685F48007807F0FBF90646012E33D149
:1015B0005C4801695A48007800E0A9E007F0F0F9BA
:1015C0000446ECB9574841685548007807F0E8F9F7
:1015D0008046544881685248007807F0E1F9814616
:1015E0005048C1684E48007807F0DAF907464B4684
:1015F00042464B48009701784B48007804F012FCB3
:10160000012C09D10220034602460090444801788B
:101610004548007804F006FC41480078401E4049E7
:10162000087000BF4FF400613B4800F0E1FB002868
:10163000F8D03B480078012802DA202038490870A9
:10164000374805780CE035480168284607F0A8F9C6
:101650000646012E02D13248057003E0681EC5B26D
:10166000012DF0DA00BF012E52D12E4801692C481D
:10167000007807F095F904466CBB2A484168284871
:10168000007807F08DF98046264881682448007864
:1016900007F086F981462348C1682148007807F0A1
:1016A0007FF9074621480078012808D14B46424679
:1016B0001B48009701781C48007804F0B3FB1B48D6
:1016C000007840B94B4642461548009701781648C5
:1016D000007804F071F9012C1AD11448007801281F
:1016E00009D102200346024600900D4801780E48B9
:1016F000007804F097FB0D48007848B902200346B3
:1017000002460090064801780748007804F054F932
:10171000BDE8F88324010020000C02406C0000208A
:101720006700002028010020680000205A000020E7
:1017300010B505F039F810BD10B505F04DF810BD25
:1017400000BFFEE770B506460C46012C26DB062CD2
:1017500024DC002520E016F0010F05D04FF40071C5
:101760003F4800F050FB04E04FF400713C4800F0AB
:1017700048FB4FF480713A4800F043FB7610042098
:101780000BF04CF94FF48071354800F03CFB04201D
:101790000BF044F9681CC5B20C2DDCDB012C0DD11B
:1017A0000121304800F02FFB04200BF037F9012114
:1017B0002C4800F026FB04200BF030F9022C0DD150
:1017C0000221284800F01FFB04200BF027F902211A
:1017D000244800F016FB04200BF020F9032C0DD157
:1017E0000421204800F00FFB04200BF017F904211E
:1017F0001C4800F006FB04200BF010F9042C0DD15E
:101800000821184800F0FFFA04200BF007F908211E
:10181000144800F0F6FA04200BF000F9052C0DD165
:101820001021104800F0EFFA04200BF0F7F8102117
:101830000C4800F0E6FA04200BF0F0F8062C0DD16D
:101840002021084800F0DFFA04200BF0E7F82021FF
:10185000044800F0D6FA04200BF0E0F870BD000058
:1018600000040240000C02401CB50121022006F0D9
:1018700041F94FF44070009001208DF804000020E1
:101880008DF8060002208DF805006946104800F02A
:1018900067FA0121082006F02DF93F200090012071
:1018A0008DF8040000208DF8060002208DF8050058
:1018B0006946084800F054FA012406E0214640F247
:1018C0000140FFF73FFF601CC4B2052CF6DD1CBDD4
:1018D00000040240000C024070B500250DE0002419
:1018E00007E00020A040C1B2284606F067FC601C5B
:1018F000C4B2042CF5DB681CC5B2202DEFDB70BD33
:1019000021B1026842F00102026003E0026822F0A5
:10191000010202607047000010B500220268134BFC
:101920001A40CC680B6823434C6923438C692343DA
:10193000CC6923430C6A23434C6A23438C6A2343B8
:101940004C6B23438C6B23431A430260426922F0A1
:101950000702D1E90B3423431A4342610B69436008
:101960004B6883608B68C36010BD00003F801CF033
:101970007047000008B504F0E1FC4FF4805000F01F
:101980000DF9F0B12648007801281AD125480078D1
:10199000012816D10021244800780BF061F90020BD
:1019A00001231A460090204801781E48007804F070
:1019B00039FA00201C49097801EB41011B4A114406
:1019C00048704FF4805000F055F84FF4804000F01C
:1019D000E5F8F0B11248007801281AD111480078D2
:1019E000012816D10121104800780BF039F90020A8
:1019F00001231A4600900C4801780A48007804F048
:101A000011FA01200849097801EB4101074A114404
:101A100048704FF4804000F02DF804F0A1FC08BDA0
:101A20002401002068000020670000203C01002005
:101A300010B504F083FC4FF4807000F0AFF84FF461
:101A4000807000F017F84FF4007000F0A7F840B174
:101A50004FF47A700AF0E2FF4FF40071044800F08E
:101A6000C7F94FF4007000F005F804F079FC10BDE0
:101A7000000C02400149086070470000143C01401E
:101A800000B585B00121880306F054F8012110202B
:101A900006F030F84FF48070039000208DF81000AD
:101AA00003A9394800F05CF90821042006F054F835
:101AB0004FF48070019000208DF808000C208DF804
:101AC000090001208DF80A0001A800F07BF817201A
:101AD0008DF8000002208DF801008DF80200012031
:101AE0008DF80300684604F0E3FB4FF4807000F0CB
:101AF0004DF80C21032006F02FF84FF48050019090
:101B000000208DF808000C208DF8090001208DF8C8
:101B10000A0001A800F056F828208DF800000120E6
:101B20008DF801008DF802008DF80300684604F07E
:101B3000BFFB4FF4805000F029F80E21032006F07F
:101B40000BF84FF48040019000208DF808000C2025
:101B50008DF8090001208DF80A0001A800F032F884
:101B600028208DF8000001208DF801008DF802007A
:101B70008DF80300684604F09BFB4FF4804000F0B2
:101B800005F805B000BD00000010024002490968D8
:101B90000143014A11607047103C0140014600209A
:101BA0000022074B1B6803EA0102054B14331B6834
:101BB0000B4202D00AB1012000E000207047000073
:101BC000003C0140002123498279002A3AD00A468C
:101BD000126803689A430B461A600A1D126803686C
:101BE0009A430B1D1A60027911440A6803681A436C
:101BF0000A60184A0832126803689A43154B083382
:101C00001A601A1D126803689A43124B0C331A604B
:101C10004279102A0ED11A1F126803681A430D4B1D
:101C200008331A601A1D126803681A43094B0C33F3
:101C30001A600DE00749427911440A6803681A43A3
:101C40000A6005E0027911440A6803689A430A6051
:101C500070470000003C01401CB50121082005F040
:101C600049FF4BF64070009001208DF804000020E1
:101C70008DF8060003208DF8050001208DF807007F
:101C80006946334800F06CF80121042005F032FF6A
:101C900041F6F070009001208DF8040002208DF8CC
:101CA000050069462B4800F05BF80121084605F065
:101CB00021FF0C20009001208DF8040002208DF8F7
:101CC00005006946244800F04BF80121022005F088
:101CD00011FF0220009001208DF8040002208DF8F1
:101CE000050069461D4800F03BF8042000900120E3
:101CF0008DF8040002208DF805006946174800F0B1
:101D00002FF80820009001208DF8040002208DF8A3
:101D100005006946114800F023F803F04DFBFFF77A
:101D20006FFB03F00FFEFFF79FFD41F61F4141F2ED
:101D3000873006F007F941F61F4141F27B5006F06B
:101D4000BDF8FFF79DFE03F0FDFCFFF71DFA1CBD7B
:101D5000000C024000080240000002400004024063
:101D600070B50A46002100238C4600BF3DE00124E7
:101D700004FA01F3146804EA030C9C4534D10468A6
:101D80004E000325B540AC43046014794D00AC40CF
:101D900005682C4304601479012C02D01479022CBC
:101DA00016D184684E000325B540AC438460547955
:101DB0004D00AC4085682C438460446801258D400B
:101DC000AC434460446895798D40ADB22C43446087
:101DD000C4684E000325B540AC43C460D4794D00BF
:101DE000AC40C5682C43C460491C1029BFD370BDEA
:101DF0000246002013690B4201D0012000E00020C0
:101E0000704741837047018370470000F0B58BB085
:101E10000446142226A106A8FFF712F9142229A1CC
:101E200001A8FFF70DF901211C2006F0C7F90121D7
:101E30001F2006F0C3F90121192006F0BFF926483A
:101E4000007818B90A211F2006F0B8F92248007856
:101E5000012803D10C211F2006F0B0F9642094FB67
:101E6000F0F0C5B2642094FBF0F100FB11400A21B0
:101E700090FBF1F0C6B20A2094FBF0F100FB114098
:101E8000C7B206A8022212FB0501082006F070F96D
:101E900006A8022212FB06010A2006F069F901A831
:101EA000022212FB07010C2006F062F90BB0F0BD14
:101EB000050F0006060B020F0306030D070D0007B2
:101EC000070F030F0D0F08060E0B0A0F0B060B0D65
:101ED0000F0D08070F0F0B0F240100202DE9F04F05
:101EE0009BB004460D4616461422CCA10FA8FFF75E
:101EF000A7F81422CEA10AA8FFF7A2F81422D1A1B4
:101F000005A8FFF79DF81422D3A16846FFF798F8BB
:101F100001211C2006F052F901211F2006F04EF984
:101F2000D248007818B90821182006F047F9CF48A0
:101F30000078012803D10C21182006F03FF9CB4886
:101F40000078022803D10A21182006F037F9C74883
:101F50000078032803D10921182006F02FF9082161
:101F60001B2006F02BF94FF47A7094FBF0F0C0B20E
:101F70001A904FF47A7094FBF0F100FB1140642149
:101F800090FBF1F0C0B21990642094FBF0F100FBDB
:101F900011400A2190FBF1F0C0B218900A2094FB86
:101FA000F0F100FB1140C0B21790B1480078012851
:101FB00009D10FA802211A9A11FB02030A461946F9
:101FC000162006F0D5F8AA48007818B90221172083
:101FD00006F0F4F805A90222199812FB001319461D
:101FE000142006F0C5F80FA90222189812FB00135E
:101FF0001946122006F0BCF80FA90222179812FB0E
:1020000000131946102006F0B3F84FF47A7095FBD0
:10201000F0F0C0B216904FF47A7095FBF0F100FB2F
:102020001150642190FBF1F0C7B2642095FBF0F1F0
:1020300000FB11500A2190FBF1F000F0FF080A208C
:1020400095FBF0F100FB115000F0FF0916980028F5
:1020500025DD0FA80221169A11FB02030A46194634
:102060000E2006F085F80AA8022111FB07030A4694
:102070001946082006F07CF80AA8022111FB080383
:102080000A4619460A2006F073F86846022111FB39
:1020900009030A4619460C2006F06AF82FE0002FC3
:1020A0001BDD0AA8022111FB07030A461946082076
:1020B00006F05EF80AA8022111FB08030A46194639
:1020C0000A2006F055F86846022111FB09030A466A
:1020D00019460C2006F04CF811E00AA8022111FB69
:1020E00008030A4619460A2006F042F8684602210B
:1020F00011FB09030A4619460C2006F039F84FF483
:102100007A70B6FBF0F0C0B215904FF47A70B6FB5F
:10211000F0F100FB11606421B0FBF1F000F0FF0A68
:102120006420B6FBF0F100FB11600A21B0FBF1FB6B
:102130000A20B6FBF0F100FB116014904D480078C6
:1021400018B90A211F2006F039F84A4800780128FA
:1021500003D10C211F2006F031F81598002826DD48
:102160000AA80221159A11FB02030A46194600200B
:1021700005F0FEFF0AA8022111FB0A030A461946D0
:10218000022005F0F5FF0AA8022111FB0B030A4605
:102190001946042005F0ECFF0AA80221149A11FB4D
:1021A00002030A461946062005F0E2FF32E0BAF1C2
:1021B000000F1CDD0AA8022111FB0A030A4619467A
:1021C000022005F0D5FF0AA8022111FB0B030A46E5
:1021D0001946042005F0CCFF0AA80221149A11FB2D
:1021E00002030A461946062005F0C2FF12E00AA8BB
:1021F000022111FB0B030A461946042005F0B8FF23
:102200000AA80221149A11FB02030A461946062065
:1022100005F0AEFF1BB0BDE8F08F00000F05060013
:102220000B060F0206030D030D0707000F070F0330
:10223000050F0006060B020F0306030D070D00072E
:10224000070F030F0F0D06080B0E0F0A060B0D0BE1
:102250000D0F07080F0F0F0B0D0F08060E0B0A0FBF
:102260000B060B0D0F0D08070F0F0B0F570000206B
:102270005F000020240100202DE9F04F9BB00446B0
:102280000D4616461422CCA10FA8FEF7D9FE142243
:10229000CEA10AA8FEF7D4FE1422D1A105A8FEF70C
:1022A000CFFE1422D3A16846FEF7CAFE01211C20EE
:1022B00005F084FF01211F2005F080FF0A211B206B
:1022C00005F07CFFD048007818B90021182005F0EF
:1022D00075FFCD480078012803D10421182005F0AE
:1022E0006DFFC9480078022803D10221182005F0AB
:1022F00065FFC5480078032803D10121182005F0A7
:102300005DFF4FF47A7094FBF0F0C0B21A904FF476
:102310007A7094FBF0F100FB1140642190FBF1F026
:10232000C0B21990642094FBF0F100FB11400A2127
:1023300090FBF1F0C0B218900A2094FBF0F100FB82
:102340001140C0B21790B1480078012809D10FA8F8
:1023500002211A9A11FB02030A461946162005F0BB
:1023600007FFAA48007818B90221172005F026FFB8
:1023700005A90222199812FB00131946142005F032
:10238000F7FE0FA90222189812FB0013194612201B
:1023900005F0EEFE0FA90222179812FB0013194652
:1023A000102005F0E5FE4FF47A7095FBF0F0C0B216
:1023B00016904FF47A7095FBF0F100FB11506421F8
:1023C00090FBF1F0C7B2642095FBF0F100FB1150D7
:1023D0000A2190FBF1F000F0FF080A2095FBF0F1D4
:1023E00000FB115000F0FF091698002825DD0FA80A
:1023F0000221169A11FB02030A4619460E2005F027
:10240000B7FE0AA8022111FB07030A461946082055
:1024100005F0AEFE0AA8022111FB08030A46194680
:102420000A2005F0A5FE6846022111FB09030A46B1
:1024300019460C2005F09CFE2FE0002F1BDD0AA89A
:10244000022111FB07030A461946082005F090FEF9
:102450000AA8022111FB08030A4619460A2005F0C2
:1024600087FE6846022111FB09030A4619460C2023
:1024700005F07EFE11E00AA8022111FB08030A46BE
:1024800019460A2005F074FE6846022111FB090373
:102490000A4619460C2005F06BFE4FF47A70B6FB25
:1024A000F0F0C0B215904FF47A70B6FBF0F100FB7B
:1024B00011606421B0FBF1F000F0FF0A6420B6FB6C
:1024C000F0F100FB11600A21B0FBF1FB0A20B6FB22
:1024D000F0F100FB116014904D48007818B90A2102
:1024E0001F2005F06BFE4A480078012803D10C211B
:1024F0001F2005F063FE1598002826DD0AA802219A
:10250000159A11FB02030A461946002005F030FE19
:102510000AA8022111FB0A030A461946022005F007
:1025200027FE0AA8022111FB0B030A4619460420C4
:1025300005F01EFE0AA80221149A11FB02030A46A6
:102540001946062005F014FE32E0BAF1000F1CDD3A
:102550000AA8022111FB0A030A461946022005F0C7
:1025600007FE0AA8022111FB0B030A4619460420A4
:1025700005F0FEFD0AA80221149A11FB02030A4687
:102580001946062005F0F4FD12E00AA8022111FB0D
:102590000B030A461946042005F0EAFD0AA80221A9
:1025A000149A11FB02030A461946062005F0E0FDC5
:1025B0001BB0BDE8F08F00000F0506000B060F02F0
:1025C00006030D030D0707000F070F03050F000695
:1025D000060B020F0306030D070D0007070F030F7D
:1025E0000F0D06080B0E0F0A060B0D0B0D0F07083B
:1025F0000F0F0F0B0D0F08060E0B0A0F0B060B0D1E
:102600000F0D08070F0F0B0F570000205F00002071
:10261000240100202DE9F04F9BB004460D461646DC
:102620001422CCA10FA8FEF70BFD1422CEA10AA8FC
:10263000FEF706FD1422D1A105A8FEF701FD142224
:10264000D3A16846FEF7FCFC01211C2005F0B6FD75
:1026500001211F2005F0B2FD0C211B2005F0AEFD6D
:10266000D048007818B90021182005F0A7FDCD4802
:102670000078012803D10421182005F09FFDC948E6
:102680000078022803D10221182005F097FDC548E3
:102690000078032803D10121182005F08FFD4FF4A5
:1026A0007A7094FBF0F0C0B21A904FF47A7094FBF9
:1026B000F0F100FB1140642190FBF1F0C0B21990E1
:1026C000642094FBF0F100FB11400A2190FBF1F033
:1026D000C0B218900A2094FBF0F100FB1140C0B288
:1026E0001790B1480078012809D10FA802211A9A41
:1026F00011FB02030A461946162005F039FDAA48C7
:10270000007818B90221172005F058FD05A902220A
:10271000199812FB00131946142005F029FD0FA982
:102720000222189812FB00131946122005F020FD12
:102730000FA90222179812FB00131946102005F06A
:1027400017FD4FF47A7095FBF0F0C0B216904FF47D
:102750007A7095FBF0F100FB1150642190FBF1F0D1
:10276000C7B2642095FBF0F100FB11500A2190FBE9
:10277000F1F000F0FF080A2095FBF0F100FB11508A
:1027800000F0FF091698002825DD0FA80221169AEF
:1027900011FB02030A4619460E2005F0E9FC0AA8BF
:1027A000022111FB07030A461946082005F0E0FC48
:1027B0000AA8022111FB08030A4619460A2005F05F
:1027C000D7FC6846022111FB09030A4619460C2072
:1027D00005F0CEFC2FE0002F1BDD0AA8022111FB23
:1027E00007030A461946082005F0C2FC0AA8022180
:1027F00011FB08030A4619460A2005F0B9FC684691
:10280000022111FB09030A4619460C2005F0B0FC11
:1028100011E00AA8022111FB08030A4619460A2002
:1028200005F0A6FC6846022111FB09030A46194679
:102830000C2005F09DFC4FF47A70B6FBF0F0C0B2AE
:1028400015904FF47A70B6FBF0F100FB1160642133
:10285000B0FBF1F000F0FF0A6420B6FBF0F100FBE2
:1028600011600A21B0FBF1FB0A20B6FBF0F100FB7E
:10287000116014904D48007818B90A211F2005F006
:102880009DFC4A480078012803D10C211F2005F047
:1028900095FC1598002826DD0AA80221159A11FB3F
:1028A00002030A461946002005F062FC0AA802212C
:1028B00011FB0A030A461946022005F059FC0AA832
:1028C000022111FB0B030A461946042005F050FCB7
:1028D0000AA80221149A11FB02030A46194606208F
:1028E00005F046FC32E0BAF1000F1CDD0AA8022117
:1028F00011FB0A030A461946022005F039FC0AA812
:10290000022111FB0B030A461946042005F030FC96
:102910000AA80221149A11FB02030A46194606204E
:1029200005F026FC12E00AA8022111FB0B030A465F
:102930001946042005F01CFC0AA80221149A11FB78
:1029400002030A461946062005F012FC1BB0BDE83A
:10295000F08F00000F0506000B060F0206030D03A3
:102960000D0707000F070F03050F0006060B020FE8
:102970000306030D070D0007070F030F0F0D0608D1
:102980000B0E0F0A060B0D0B0D0F07080F0F0F0B89
:102990000D0F08060E0B0A0F0B060B0D0F0D080787
:1029A0000F0F0B0F570000205F00002024010020B4
:1029B0002DE9F04F9BB004460D4616461422CEA1D9
:1029C0000FA8FEF73DFB1422D0A10AA8FEF738FBA2
:1029D0001422D3A105A8FEF733FB1422D5A1684623
:1029E000FEF72EFB01211C2005F0E8FB01211F2032
:1029F00005F0E4FB04211A2005F0E0FBD248007842
:102A000018B90021182005F0D9FBCF48007801281B
:102A100003D10421182005F0D1FBCB48007802280F
:102A200003D10221182005F0C9FBC748007803280C
:102A300003D10121182005F0C1FB08211B2005F05E
:102A4000BDFB4FF47A7094FBF0F0C0B21A904FF4D3
:102A50007A7094FBF0F100FB1140642190FBF1F0DF
:102A6000C0B21990642094FBF0F100FB11400A21E0
:102A700090FBF1F0C0B218900A2094FBF0F100FB3B
:102A80001140C0B21790B1480078012809D10FA8B1
:102A900002211A9A11FB02030A461946162005F074
:102AA00067FBAA48007818B90221172005F086FBB9
:102AB00005A90222199812FB00131946142005F0EB
:102AC00057FB0FA90222189812FB00131946122077
:102AD00005F04EFB0FA90222179812FB00131946AE
:102AE000102005F045FB4FF47A7095FBF0F0C0B272
:102AF00016904FF47A7095FBF0F100FB11506421B1
:102B000090FBF1F0C7B2642095FBF0F100FB11508F
:102B10000A2190FBF1F000F0FF080A2095FBF0F18C
:102B200000FB115000F0FF091698002825DD0FA8C2
:102B30000221169A11FB02030A4619460E2005F0DF
:102B400017FB0AA8022111FB07030A4619460820B1
:102B500005F00EFB0AA8022111FB08030A461946DC
:102B60000A2005F005FB6846022111FB09030A460D
:102B700019460C2005F0FCFA2FE0002F1BDD0AA8F7
:102B8000022111FB07030A461946082005F0F0FA56
:102B90000AA8022111FB08030A4619460A2005F07B
:102BA000E7FA6846022111FB09030A4619460C2080
:102BB00005F0DEFA11E00AA8022111FB08030A461B
:102BC00019460A2005F0D4FA6846022111FB0903D0
:102BD0000A4619460C2005F0CBFA4FF47A70B6FB82
:102BE000F0F0C0B215904FF47A70B6FBF0F100FB34
:102BF00011606421B0FBF1F000F0FF0A6420B6FB25
:102C0000F0F100FB11600A21B0FBF1FB0A20B6FBDA
:102C1000F0F100FB116014904D48007818B90A21BA
:102C20001F2005F0CBFA4A480078012803D10C2177
:102C30001F2005F0C3FA1598002826DD0AA80221F6
:102C4000159A11FB02030A461946002005F090FA76
:102C50000AA8022111FB0A030A461946022005F0C0
:102C600087FA0AA8022111FB0B030A461946042021
:102C700005F07EFA0AA80221149A11FB02030A4603
:102C80001946062005F074FA32E0BAF1000F1CDD97
:102C90000AA8022111FB0A030A461946022005F080
:102CA00067FA0AA8022111FB0B030A461946042001
:102CB00005F05EFA0AA80221149A11FB02030A46E3
:102CC0001946062005F054FA12E00AA8022111FB69
:102CD0000B030A461946042005F04AFA0AA8022105
:102CE000149A11FB02030A461946062005F040FA21
:102CF0001BB0BDE8F08F00000F0506000B060F02A9
:102D000006030D030D0707000F070F03050F00064D
:102D1000060B020F0306030D070D0007070F030F35
:102D20000F0D06080B0E0F0A060B0D0B0D0F0708F3
:102D30000F0F0F0B0D0F08060E0B0A0F0B060B0DD6
:102D40000F0D08070F0F0B0F570000205F0000202A
:102D5000240100202DE9F04F91B004460D4616469F
:102D60001422DCA105A8FEF76BF91422DEA1684647
:102D7000FEF766F901211C2005F020FA01211F2031
:102D800005F01CFADD48007818B90A211F2005F06B
:102D900015FADA480078012803D10C211F2005F02C
:102DA0000DFA4FF47A70B4FBF0F0C0B210904FF40B
:102DB0007A70B4FBF0F100FB11406421B0FBF1F03C
:102DC000C0B20F906420B4FBF0F100FB11400A2167
:102DD000B0FBF1F70A20B4FBF0F100FB11484FF40F
:102DE0007A70B5FBF0F0C0B20E904FF47A70B5FB7C
:102DF000F0F100FB11506421B0FBF1F0C0B20D9076
:102E00006420B5FBF0F100FB11500A21B0FBF1F991
:102E10000A20B5FBF0F100FB115A4FF47A70B6FBB3
:102E2000F0F0C0B20C904FF47A70B6FBF0F100FBFA
:102E300011606421B0FBF1F0C0B20B906420B6FBCE
:102E4000F0F100FB11600A21B0FBF1F00A900A20BA
:102E5000B6FBF0F100FB116B1098002825DD05A9E9
:102E60000222109812FB00131946162005F080F973
:102E700005A802210F9A11FB02030A4619461420E5
:102E800005F076F905A8022111FB07030A46194649
:102E9000122005F06DF905A8022111FB08030A466E
:102EA0001946102005F064F93DE00F9800281CDD5C
:102EB00005A802210F9A11FB02030A4619461420A5
:102EC00005F056F905A8022111FB07030A46194629
:102ED000122005F04DF905A8022111FB08030A464E
:102EE0001946102005F044F91DE0002F12DD05A859
:102EF000022111FB07030A461946122005F038F992
:102F000005A8022111FB08030A461946102005F006
:102F10002FF908E005A8022111FB08030A4619460B
:102F2000102005F025F90E98002825DD05A90222BC
:102F30000E9812FB001319460E2005F019F9684689
:102F400002210D9A11FB02030A461946082005F0DA
:102F50000FF96846022111FB09030A4619460A20A7
:102F600005F006F96846022111FB0A030A461946D4
:102F70000C2005F0FDF83EE00D9800281CDD6846A9
:102F800002210D9A11FB02030A461946082005F09A
:102F9000EFF86846022111FB09030A4619460A2088
:102FA00005F0E6F86846022111FB0A030A461946B5
:102FB0000C2005F0DDF81EE0B9F1000F12DD6846C7
:102FC000022111FB09030A4619460A2005F0D0F830
:102FD0006846022111FB0A030A4619460C2005F037
:102FE000C7F808E06846022111FB0A030A461946A1
:102FF0000C2005F0BDF80C98002826DD6946022259
:103000000C9812FB00131946002005F0B1F8684631
:1030100002210B9A11FB02030A461946022005F011
:10302000A7F8684602210A9A11FB02030A461946CC
:10303000042005F09DF86846022111FB0B030A46A7
:103040001946062005F094F840E00B9800281DDD95
:10305000684602210B9A11FB02030A461946022018
:1030600005F086F8684602210A9A11FB02030A4617
:103070001946042005F07CF86846022111FB0B0379
:103080000A461946062005F073F81FE00A98002842
:1030900013DD684602210A9A11FB02030A4619460B
:1030A000042005F065F86846022111FB0B030A466F
:1030B0001946062005F05CF808E06846022111FB7D
:1030C0000B030A461946062005F052F811B0BDE878
:1030D000F08F00000F0506000B060F0206030D031C
:1030E0000D0707000F070F03050F0006060B020F61
:1030F0000306030D070D0007070F030F240100202F
:103100002DE9F0438BB0FAA000680A901422F9A1CF
:1031100005A8FDF795FF1422FBA16846FDF790FF77
:10312000FE48007800283DDD4FF48051FC48FEF752
:103130005FFEC0B9FB48007830B9FB480078401CFE
:10314000F949087002F02AFC00BF4FF48051F4489E
:10315000FEF74EFE0028F8D0F3480078062802DD7E
:103160000120F14908704FF48041ED48FEF740FE20
:10317000C0B9EC48007830B9EB480078401EEA4905
:10318000087002F00BFC00BF4FF48041E448FEF7EA
:103190002FFE0028F8D0E4480078012802DA062043
:1031A000E1490870E048007807287DD2DFE800F0A8
:1031B0007C04DBFCFBFAF9008021DC48FEF718FEFA
:1031C00080B9FEF789FBDA4A128802EB82025204C8
:1031D000110CD84A127802EB82025000D64A1268CB
:1031E000FEF77CFE8021D148FEF702FE01287DD14A
:1031F0004103CB48FEF7FCFDC0B9CA480078A8B926
:1032000002F0CCFBCD480078401CCC49087000BFD0
:103210004FF40051C248FEF7EBFD0028F8D0C74834
:103220000078032802DD0120C44908704FF40061D2
:10323000BB48FEF7DDFDC0B9BA480078A8B902F076
:10324000ADFBBE480078401EBC49087000BF4FF47B
:103250000061B348FEF7CCFD0028F8D0B7480078ED
:10326000012802DA0320B5490870B4480078012823
:103270002ED1B348007890B9FEF72EFBB14A1288E0
:1032800002EB82025204110CAF4A127802EB820266
:103290005000AE4A1378AE4A1268FEF7EDFFA84818
:1032A0000078012814D100E058E2FEF715FBA94A86
:1032B000128802EB82025204110CA74A127802EB28
:1032C00082025000A54A1378A54A1268FFF770FBE6
:1032D0009A480078022814D1FEF7FEFAA14A128813
:1032E00002EB82025204110C9F4A00E03AE012788D
:1032F00002EB820250009D4A13789D4A1268FFF744
:1033000089F98E48007803282CD18D48007801284F
:1033100012D1FEF7E1FA8B4A128802EB82025204C4
:10332000110C894A127802EB82025000874A137806
:10333000874A1268FEF7A0FF8148007890B9FEF72F
:10334000CBFA844A128802EB82025204110C824AA0
:10335000127802EB82025000804A1378804A126889
:10336000FFF726FBFCE280217048FEF741FD48B9DB
:10337000FEF7B2FA40F2F5127E4801887E480088D6
:1033800000F00EFB80216948FEF732FD01287AD15A
:1033900041036348FEF72CFDE8B962480078D0B9D4
:1033A00003E0D5E2E1E1DAE177E002F0F7FA734811
:1033B0000078401C7149087000BF4FF40051584814
:1033C000FEF716FD0028F8D06C480078032802DDCF
:1033D00001206A4908704FF400615148FEF708FD6A
:1033E000C0B950480078A8B902F0D8FA634800780C
:1033F000401E6249087000BF4FF400614848FEF764
:10340000F7FC0028F8D05D480078012802DA032094
:103410005A49087059480078012815D1FEF75CFA1E
:103420004748007840B940F2F512554801885548A0
:10343000008800F063FC07E040F2F5125248018872
:103440005248008800F0BEFF4C480078022809D19D
:10345000FEF742FA40F2F5124D4801884D480088C7
:1034600000F0FEFD45480078032815D1FEF734FA38
:103470003348007840B940F2F51243480188434888
:10348000008800F09FFF07E040F2F5123C480188F9
:103490003C48008800F032FC62E280212348FEF7BD
:1034A000A7FCE0B9FEF718FA3B4890ED000AF2EEEF
:1034B000040A20EE200ABCEEC00A10EE100A82B206
:1034C000364890ED000AF2EE040A20EE200ABCEE27
:1034D000C00A10EE100A81B2002001F025F9802107
:1034E0001248FEF785FC01287ED141030C4857E0C5
:1034F000000209050F0506000B060F0206030D0367
:103500000D0707000F070F03050F0006060B020F3C
:103510000306030D070D0007070F030F62000020CD
:10352000000C024024010020210100200010024074
:1035300008000020070000203000002022010020A9
:103540006100002034000020540000205E000020B4
:1035500048000020380000205600002060000020B5
:103560005000002036000020550000205F000020A1
:103570004C0000200C0000200A0000202301002045
:10358000400000203A000020440000203E000020BF
:10359000420000203C000020140000201000002009
:1035A000FEF726FCC0B9F0480078A8B902F0F6F999
:1035B000EE480078401CED49087000BF4FF4005100
:1035C000EB48FEF715FC0028F8D0E84800780328FF
:1035D00002DD0120E54908704FF40061E448FEF780
:1035E00007FCD0B9E04800E09CE00078A8B902F000
:1035F000D5F9DE480078401EDC49087000BF4FF462
:103600000061DB48FEF7F4FB0028F8D0D7480078CB
:10361000012802DA0320D5490870D448007801282F
:103620003BD1FEF759F9D3480078D8B9D24890ED8C
:10363000000AF2EE040A20EE200ABCEEC00A10EEE8
:10364000100A82B2CD4890ED000AF2EE040A20EE94
:10365000200ABCEEC00A10EE100A81B2002001F070
:10366000F3F91AE0C64890ED000AF2EE040A20EEE3
:10367000200ABCEEC00A10EE100A82B2C14890EDDA
:10368000000AF2EE040A20EE200ABCEEC00A10EE98
:10369000100A81B2002001F0FFFCB4480078022833
:1036A0001CD1FEF719F9B84890ED000AF2EE040AB1
:1036B00020EE200ABCEEC00A10EE100A82B2B34817
:1036C00090ED000AF2EE040A20EE200ABCEEC00AD9
:1036D00010EE100A81B2002001F04AFBA3480078E6
:1036E00003283BD1FEF7F8F8A2480078D8B9A448DF
:1036F00090ED000AF2EE040A20EE200ABCEEC00AA9
:1037000010EE100A82B29F4890ED000AF2EE040A11
:1037100020EE200ABCEEC00A10EE100A81B2002092
:1037200001F0BAFC1AE0944890ED000AF2EE040AA7
:1037300020EE200ABCEEC00A10EE100A82B28F48BA
:1037400090ED000AF2EE040A20EE200ABCEEC00A58
:1037500010EE100A81B2002001F076F900E1FEF7C8
:10376000BBF80220FEF752FBFAE0FEF7B5F80121A4
:103770001C2004F023FD01211F2004F01FFD7A48C6
:10378000007818B90A211F2004F018FD7648007847
:10379000012803D10C211F2004F010FD4FF400710B
:1037A0007348FEF725FB70B902F0F8F87848007806
:1037B00000EB40007749085C401C7549097801EB33
:1037C0004101744A505400BF4FF400716848FEF73D
:1037D0000FFB0028F8D06E48007800EB40006D49E0
:1037E000085C012806DD00206949097801EB4101E8
:1037F000684A50546648007800EB40006549085C10
:1038000065490870624A127802EB4202614B995C8A
:103810005F4A1278521E102303EB420290B2FDF76A
:103820001FFE04220AA9142004F0A2FC58480078C4
:103830000A2190FBF1F0C4B25548007890FBF1F2F8
:1038400001FB1200C5B25448007890FBF1F0C6B2FB
:103850005148007890FBF1F201FB1200C7B24E48CC
:10386000007890FBF1F000F0FF084B48007890FBE7
:10387000F1F201FB120000F0FF0905A8022212FB81
:103880000401122004F074FC05A8022212FB0501B9
:10389000102004F06DFC6846022212FB06010A208B
:1038A00004F066FC6846022212FB07010C2004F0BB
:1038B0005FFC4FF400512E48FEF79AFAC0B92A482F
:1038C0000078A8B902F06AF831480078401C304905
:1038D000087000BF4FF400512548FEF789FA002810
:1038E000F8D02B480078202802DD012028490870F4
:1038F0004FF400611E48FEF77BFA40BB1A4800787F
:1039000028BB02F04BF822480078401E204908707E
:1039100000BF4FF400611648FEF76AFA0028F8D09D
:103920001B480078012802DA20201949087018483D
:10393000007800EB40001749085C174908701448EC
:10394000007800EB40001349085C1449087007E058
:10395000FDF7C2FF002211461046FFF7FBF900BF3A
:1039600000BF0BB0BDE8F08324010020230100203C
:10397000000C0240610000201C0000201800002004
:103980002C0000202800002024000020200000201F
:10399000250100203C0100202601002027010020F5
:1039A0002DE9F04F9BB004460D4616461422BDA1EA
:1039B00010A8FDF745FB1422BFA10BA8FDF740FBA3
:1039C0001422C2A106A8FDF73BFB1422C4A101A842
:1039D000FDF736FB01211C2004F0F0FB01211F2024
:1039E00004F0ECFBC348007818B90821182004F053
:1039F000E5FBC0480078012803D10C21182004F011
:103A0000DDFBBC480078022803D10A21182004F00D
:103A1000D5FBB8480078032803D10921182004F009
:103A2000CDFB0821192004F0C9FBB348007818B970
:103A30000A211F2004F0C2FBAF480078012803D1FF
:103A40000C211F2004F0BAFB4FF47A7094FBF0F0C5
:103A5000C0B21A904FF47A7094FBF0F100FB114061
:103A6000642190FBF1F0C7B2642094FBF0F100FBFD
:103A700011400A2190FBF1F000F0FF080A2094FBAE
:103A8000F0F100FB114000F0FF091A98002825DD35
:103A900010A802211A9A11FB02030A4619461620A1
:103AA00004F066FB10A8022111FB07030A46194621
:103AB000142004F05DFB10A8022111FB08030A4644
:103AC0001946122004F054FB10A8022111FB09032F
:103AD0000A461946102004F04BFB2FE0002F1BDD97
:103AE00010A8022111FB07030A461946142004F00E
:103AF0003FFB10A8022111FB08030A4619461220B9
:103B000004F036FB10A8022111FB09030A461946EE
:103B1000102004F02DFB11E010A8022111FB080376
:103B20000A461946122004F023FB10A8022111FBBB
:103B300009030A461946102004F01AFB4FF47A7064
:103B400095FBF0F0C0B219904FF47A7095FBF0F14C
:103B500000FB1150642190FBF1F000F0FF0A64209B
:103B600095FBF0F100FB11500A2190FBF1F000F001
:103B7000FF0B0A2095FBF0F100FB1150C0B218902A
:103B80001998002826DD10A80221199A11FB0203BA
:103B90000A4619460E2004F0EBFA0BA8022111FB8D
:103BA0000A030A461946082004F0E2FA0BA802218B
:103BB00011FB0B030A4619460A2004F0D9FA0BA898
:103BC0000221189A11FB02030A4619460C2004F040
:103BD000CFFA32E0BAF1000F1CDD0BA8022111FB75
:103BE0000A030A461946082004F0C2FA0BA802216B
:103BF00011FB0B030A4619460A2004F0B9FA0BA878
:103C00000221189A11FB02030A4619460C2004F0FF
:103C1000AFFA12E00BA8022111FB0B030A4619466A
:103C20000A2004F0A5FA0BA80221189A11FB02033E
:103C30000A4619460C2004F09BFA642096FBF0F02B
:103C4000C2B21792642096FBF0F100FB11600A21CA
:103C500090FBF1F0C0B216900A2096FBF0F100FB49
:103C60001160C0B215900BA80221179A11FB020334
:103C70000A461946022004F07BFA0BA90222169884
:103C800012FB00131946042004F072FA01A9022263
:103C9000159812FB00131946062004F069FA1BB0B0
:103CA000BDE8F08F0F0506000B060F0206030D039B
:103CB0000D0707000F070F03050F0006060B020F85
:103CC0000306030D070D0007070F030F0F0D06086E
:103CD0000B0E0F0A060B0D0B0D0F07080F0F0F0B26
:103CE0000D0F08060E0B0A0F0B060B0D0F0D080724
:103CF0000F0F0B0F57000020240100202DE9F04F7B
:103D00009BB004460D4616461422BFA110A8FDF72D
:103D100097F91422C1A10BA8FDF792F91422C4A1AE
:103D200006A8FDF78DF91422C6A101A8FDF788F9B0
:103D300001211C2004F042FA01211F2004F03EFA68
:103D400002211B2004F03AFAC348007818B9002178
:103D5000182004F033FAC0480078012803D1042168
:103D6000182004F02BFABC480078022803D1022165
:103D7000182004F023FAB8480078032803D1012161
:103D8000182004F01BFA0821192004F017FAB34890
:103D9000007818B90A211F2004F010FAAF48007803
:103DA000012803D10C211F2004F008FA4FF47A7087
:103DB00094FBF0F0C0B21A904FF47A7094FBF0F1DB
:103DC00000FB1140642190FBF1F0C7B2642094FB2A
:103DD000F0F100FB11400A2190FBF1F000F0FF0828
:103DE0000A2094FBF0F100FB114000F0FF091A9843
:103DF000002825DD10A802211A9A11FB02030A46A9
:103E00001946162004F0B4F910A8022111FB07038B
:103E10000A461946142004F0ABF910A8022111FB40
:103E200008030A461946122004F0A2F910A802213C
:103E300011FB09030A461946102004F099F92FE0F6
:103E4000002F1BDD10A8022111FB07030A461946AB
:103E5000142004F08DF910A8022111FB08030A4672
:103E60001946122004F084F910A8022111FB09035D
:103E70000A461946102004F07BF911E010A802212F
:103E800011FB08030A461946122004F071F910A824
:103E9000022111FB09030A461946102004F068F9B3
:103EA0004FF47A7095FBF0F0C0B219904FF47A702D
:103EB00095FBF0F100FB1150642190FBF1F000F054
:103EC000FF0A642095FBF0F100FB11500A2190FBE2
:103ED000F1F000F0FF0B0A2095FBF0F100FB115010
:103EE000C0B218901998002826DD10A80221199A4E
:103EF00011FB02030A4619460E2004F039F90BA8FB
:103F0000022111FB0A030A461946082004F030F981
:103F10000BA8022111FB0B030A4619460A2004F0E4
:103F200027F90BA80221189A11FB02030A46194629
:103F30000C2004F01DF932E0BAF1000F1CDD0BA8D3
:103F4000022111FB0A030A461946082004F010F961
:103F50000BA8022111FB0B030A4619460A2004F0A4
:103F600007F90BA80221189A11FB02030A46194609
:103F70000C2004F0FDF812E00BA8022111FB0B034A
:103F80000A4619460A2004F0F3F80BA80221189AF1
:103F900011FB02030A4619460C2004F0E9F86420DC
:103FA00096FBF0F0C2B21792642096FBF0F100FB92
:103FB00011600A2190FBF1F0C0B216900A2096FB26
:103FC000F0F100FB1160C0B215900BA80221179A06
:103FD00011FB02030A461946022004F0C9F80BA996
:103FE0000222169812FB00131946042004F0C0F8B0
:103FF00001A90222159812FB00131946062004F0AD
:10400000B7F81BB0BDE8F08F0F0506000B060F02D6
:1040100006030D030D0707000F070F03050F00062A
:10402000060B020F0306030D070D0007070F030F12
:104030000F0D06080B0E0F0A060B0D0B0D0F0708D0
:104040000F0F0F0B0D0F08060E0B0A0F0B060B0DB3
:104050000F0D08070F0F0B0F570000202401002041
:104060002DE9F04F9BB004460D4616461422BFA121
:1040700010A8FCF7E5FF1422C1A10BA8FCF7E0FF94
:104080001422C4A106A8FCF7DBFF1422C6A101A8D4
:10409000FCF7D6FF01211C2004F090F801211F201D
:1040A00004F08CF804211B2004F088F8C348007841
:1040B00018B90021182004F081F8C04800780128C0
:1040C00003D10421182004F079F8BC4800780228B4
:1040D00003D10221182004F071F8B84800780328B1
:1040E00003D10121182004F069F80821192004F0F7
:1040F00065F8B348007818B90A211F2004F05EF86B
:10410000AF480078012803D10C211F2004F056F895
:104110004FF47A7094FBF0F0C0B21A904FF47A70BA
:1041200094FBF0F100FB1140642190FBF1F0C7B269
:10413000642094FBF0F100FB11400A2190FBF1F0A8
:1041400000F0FF080A2094FBF0F100FB114000F0A2
:10415000FF091A98002825DD10A802211A9A11FBE0
:1041600002030A461946162004F002F810A802219C
:1041700011FB07030A461946142003F0F9FF10A8A3
:10418000022111FB08030A461946122003F0F0FF32
:1041900010A8022111FB09030A461946102003F05A
:1041A000E7FF2FE0002F1BDD10A8022111FB070302
:1041B0000A461946142003F0DBFF10A8022111FB68
:1041C00008030A461946122003F0D2FF10A8022164
:1041D00011FB09030A461946102003F0C9FF11E03C
:1041E00010A8022111FB08030A461946122003F009
:1041F000BFFF10A8022111FB09030A46194610202F
:1042000003F0B6FF4FF47A7095FBF0F0C0B219904E
:104210004FF47A7095FBF0F100FB1150642190FB94
:10422000F1F000F0FF0A642095FBF0F100FB115063
:104230000A2190FBF1F000F0FF0B0A2095FBF0F152
:1042400000FB1150C0B218901998002826DD10A864
:104250000221199A11FB02030A4619460E2003F0A7
:1042600087FF0BA8022111FB0A030A461946082002
:1042700003F07EFF0BA8022111FB0B030A4619462F
:104280000A2003F075FF0BA80221189A11FB020304
:104290000A4619460C2003F06BFF32E0BAF1000F1A
:1042A0001CDD0BA8022111FB0A030A46194608204F
:1042B00003F05EFF0BA8022111FB0B030A4619460F
:1042C0000A2003F055FF0BA80221189A11FB0203E4
:1042D0000A4619460C2003F04BFF12E00BA80221FE
:1042E00011FB0B030A4619460A2003F041FF0BA8F5
:1042F0000221189A11FB02030A4619460C2003F00A
:1043000037FF642096FBF0F0C2B21792642096FB50
:10431000F0F100FB11600A2190FBF1F0C0B21690A1
:104320000A2096FBF0F100FB1160C0B215900BA8BB
:104330000221179A11FB02030A461946022003F0D4
:1043400017FF0BA90222169812FB0013194604202E
:1043500003F00EFF01A90222159812FB0013194663
:10436000062003F005FF1BB0BDE8F08F0F05060027
:104370000B060F0206030D030D0707000F070F03BF
:10438000050F0006060B020F0306030D070D0007BD
:10439000070F030F0F0D06080B0E0F0A060B0D0B70
:1043A0000D0F07080F0F0F0B0D0F08060E0B0A0F4E
:1043B0000B060B0D0F0D08070F0F0B0F57000020FA
:1043C000240100202DE9F04F9BB004460D4616460F
:1043D0001422BFA110A8FCF733FE1422C1A10BA820
:1043E000FCF72EFE1422C4A106A8FCF729FE142215
:1043F000C6A101A8FCF724FE01211C2003F0DEFE6B
:1044000001211F2003F0DAFE04211A2003F0D6FE5A
:10441000C348007818B90021182003F0CFFEC04827
:104420000078012803D10421182003F0C7FEBC48FE
:104430000078022803D10221182003F0BFFEB848FB
:104440000078032803D10121182003F0B7FE0821CA
:10445000192003F0B3FEB348007818B90A211F20D1
:1044600003F0ACFEAF480078012803D10C211F20D7
:1044700003F0A4FE4FF47A7094FBF0F0C0B21A90EF
:104480004FF47A7094FBF0F100FB1140642190FB33
:10449000F1F0C7B2642094FBF0F100FB11400A2157
:1044A00090FBF1F000F0FF080A2094FBF0F100FB14
:1044B000114000F0FF091A98002825DD10A80221FC
:1044C0001A9A11FB02030A461946162003F050FE01
:1044D00010A8022111FB07030A461946142003F015
:1044E00047FE10A8022111FB08030A4619461220B4
:1044F00003F03EFE10A8022111FB09030A461946EB
:10450000102003F035FE2FE0002F1BDD10A8022144
:1045100011FB07030A461946142003F029FE10A8D0
:10452000022111FB08030A461946122003F020FE5F
:1045300010A8022111FB09030A461946102003F0B6
:1045400017FE11E010A8022111FB08030A461946C4
:10455000122003F00DFE10A8022111FB09030A46E8
:104560001946102003F004FE4FF47A7095FBF0F02A
:10457000C0B219904FF47A7095FBF0F100FB115026
:10458000642190FBF1F000F0FF0A642095FBF0F14C
:1045900000FB11500A2190FBF1F000F0FF0B0A2004
:1045A00095FBF0F100FB1150C0B21890199800284B
:1045B00026DD10A80221199A11FB02030A461946AA
:1045C0000E2003F0D5FD0BA8022111FB0A030A46B9
:1045D0001946082003F0CCFD0BA8022111FB0B03A8
:1045E0000A4619460A2003F0C3FD0BA80221189AB7
:1045F00011FB02030A4619460C2003F0B9FD32E014
:10460000BAF1000F1CDD0BA8022111FB0A030A46B8
:104610001946082003F0ACFD0BA8022111FB0B0387
:104620000A4619460A2003F0A3FD0BA80221189A96
:1046300011FB02030A4619460C2003F099FD12E013
:104640000BA8022111FB0B030A4619460A2003F0AE
:104650008FFD0BA80221189A11FB02030A46194686
:104660000C2003F085FD642096FBF0F0C2B2179297
:10467000642096FBF0F100FB11600A2190FBF1F041
:10468000C0B216900A2096FBF0F100FB1160C0B298
:1046900015900BA80221179A11FB02030A4619462E
:1046A000022003F065FD0BA90222169812FB0013ED
:1046B0001946042003F05CFD01A90222159812FBA3
:1046C00000131946062003F053FD1BB0BDE8F08F20
:1046D0000F0506000B060F0206030D030D0707006A
:1046E0000F070F03050F0006060B020F0306030D4D
:1046F000070D0007070F030F0F0D06080B0E0F0A1B
:10470000060B0D0B0D0F07080F0F0F0B0D0F0806F3
:104710000E0B0A0F0B060B0D0F0D08070F0F0B0FDB
:1047200057000020240100202DE9F04F99B00446E5
:104730000D4616461422AEA10FA8FCF781FC1422E8
:10474000B0A10AA8FCF77CFC1422B3A105A8FCF7D1
:1047500077FC1422B5A16846FCF772FC01211C20ED
:1047600003F02CFD01211F2003F028FDB448007840
:1047700018B90821182003F021FDB148007801285C
:1047800003D10C21182003F019FDAD480078022850
:1047900003D10A21182003F011FDA948007803284D
:1047A00003D10921182003F009FD08211A2003F084
:1047B00005FDA448007818B90A211F2003F0FEFC6B
:1047C000A0480078012803D10C211F2003F0F6FC3B
:1047D0004FF47A7094FBF0F0C0B218904FF47A70F6
:1047E00094FBF0F100FB1140642190FBF1F0C7B2A3
:1047F000642094FBF0F100FB11400A2190FBF1F0E2
:1048000000F0FF080A2094FBF0F100FB114000F0DB
:10481000FF091898002825DD0FA80221189A11FB1E
:1048200002030A461946162003F0A2FC0FA8022133
:1048300011FB07030A461946142003F099FC0FA840
:10484000022111FB08030A461946122003F090FCCE
:1048500005A8022111FB09030A461946102003F09E
:1048600087FC2FE0002F1BDD0FA8022111FB07039F
:104870000A461946142003F07BFC0FA8022111FB05
:1048800008030A461946122003F072FC05A802210B
:1048900011FB09030A461946102003F069FC11E0D8
:1048A0000FA8022111FB08030A461946122003F043
:1048B0005FFC05A8022111FB09030A4619461020D6
:1048C00003F056FC642095FBF0F0C0B21790642012
:1048D00095FBF0F100FB11500A2190FBF1F000F084
:1048E000FF0A0A2095FBF0F100FB115000F0FF0BCE
:1048F000179800281CDD0AA80221179A11FB020351
:104900000A461946082003F033FC0AA8022111FBCD
:104910000A030A4619460A2003F02AFC68460221C7
:1049200011FB0B030A4619460C2003F021FC11E091
:104930000AA8022111FB0A030A4619460A2003F0BD
:1049400017FC6846022111FB0B030A4619460C208E
:1049500003F00EFC642096FBF0F0C0B216906420C9
:1049600096FBF0F100FB11600A2190FBF1F0C0B260
:1049700015900A2096FBF0F100FB1160C0B2149074
:10498000169800281DDD0AA90222169812FB0013B2
:104990001946104603F0ECFB0AA80221159A11FBF8
:1049A00002030A461946042003F0E2FB684602218E
:1049B000149A11FB02030A461946062003F0D8FB9D
:1049C00013E00AA80221159A11FB02030A461946B0
:1049D000042003F0CDFB68460221149A11FB020368
:1049E0000A461946062003F0C3FB19B0BDE8F08F54
:1049F0000F0506000B060F0206030D030D07070047
:104A00000F070F03050F0006060B020F0306030D29
:104A1000070D0007070F030F0F0D06080B0E0F0AF7
:104A2000060B0D0B0D0F07080F0F0F0B0D0F0806D0
:104A30000E0B0A0F0B060B0D0F0D08070F0F0B0FB8
:104A400057000020240100202DE9F04F99B00446C2
:104A50000D4616461422B0A10FA8FCF7F1FA142255
:104A6000B2A10AA8FCF7ECFA1422B5A105A8FCF73C
:104A7000E7FA1422B7A16846FCF7E2FA01211C20EC
:104A800003F09CFB01211F2003F098FB02211B2057
:104A900003F094FBB448007818B90021182003F003
:104AA0008DFBB1480078012803D10421182003F0C0
:104AB00085FBAD480078022803D10221182003F0BD
:104AC0007DFBA9480078032803D10121182003F0B9
:104AD00075FB08211A2003F071FBA448007818B96F
:104AE0000A211F2003F06AFBA0480078012803D1A7
:104AF0000C211F2003F062FB4FF47A7094FBF0F05E
:104B0000C0B218904FF47A7094FBF0F100FB1140A2
:104B1000642190FBF1F0C7B2642094FBF0F100FB3C
:104B200011400A2190FBF1F000F0FF080A2094FBED
:104B3000F0F100FB114000F0FF091898002825DD76
:104B40000FA80221189A11FB02030A4619461620E3
:104B500003F00EFB0FA8022111FB07030A461946BA
:104B6000142003F005FB0FA8022111FB08030A46DD
:104B70001946122003F0FCFA05A8022111FB0903D3
:104B80000A461946102003F0F3FA2FE0002F1BDD30
:104B90000FA8022111FB07030A461946142003F04F
:104BA000E7FA0FA8022111FB08030A461946122052
:104BB00003F0DEFA05A8022111FB09030A46194693
:104BC000102003F0D5FA11E00FA8022111FB080311
:104BD0000A461946122003F0CBFA05A8022111FB60
:104BE00009030A461946102003F0C2FA642095FB17
:104BF000F0F0C0B21790642095FBF0F100FB11506B
:104C00000A2190FBF1F000F0FF0A0A2095FBF0F179
:104C100000FB115000F0FF0B179800281CDD0AA8BC
:104C20000221179A11FB02030A461946082003F0D5
:104C30009FFA0AA8022111FB0A030A4619460A2014
:104C400003F096FA6846022111FB0B030A46194647
:104C50000C2003F08DFA11E00AA8022111FB0A03CF
:104C60000A4619460A2003F083FA6846022111FB1E
:104C70000B030A4619460C2003F07AFA642096FBCF
:104C8000F0F0C0B21690642096FBF0F100FB1160CA
:104C90000A2190FBF1F0C0B215900A2096FBF0F1CA
:104CA00000FB1160C0B21490169800281DDD0AA9FF
:104CB0000222169812FB00131946104603F058FA08
:104CC0000AA80221159A11FB02030A46194604207C
:104CD00003F04EFA68460221149A11FB02030A46B9
:104CE0001946062003F044FA13E00AA80221159A97
:104CF00011FB02030A461946042003F039FA6846FC
:104D00000221149A11FB02030A461946062003F0F9
:104D10002FFA19B0BDE8F08F0F0506000B060F0241
:104D200006030D030D0707000F070F03050F00060D
:104D3000060B020F0306030D070D0007070F030FF5
:104D40000F0D06080B0E0F0A060B0D0B0D0F0708B3
:104D50000F0F0F0B0D0F08060E0B0A0F0B060B0D96
:104D60000F0D08070F0F0B0F570000202401002024
:104D70002DE9F04F99B004460D4616461422B0A115
:104D80000FA8FCF75DF91422B2A10AA8FCF758F9A4
:104D90001422B5A105A8FCF753F91422B7A168465F
:104DA000FCF74EF901211C2003F008FA01211F2015
:104DB00003F004FA04211B2003F000FAB448007841
:104DC00018B90021182003F0F9F9B148007801283A
:104DD00003D10421182003F0F1F9AD48007802282E
:104DE00003D10221182003F0E9F9A948007803282B
:104DF00003D10121182003F0E1F908211A2003F062
:104E0000DDF9A448007818B90A211F2003F0D6F96B
:104E1000A0480078012803D10C211F2003F0CEF90F
:104E20004FF47A7094FBF0F0C0B218904FF47A709F
:104E300094FBF0F100FB1140642190FBF1F0C7B24C
:104E4000642094FBF0F100FB11400A2190FBF1F08B
:104E500000F0FF080A2094FBF0F100FB114000F085
:104E6000FF091898002825DD0FA80221189A11FBC8
:104E700002030A461946162003F07AF90FA8022108
:104E800011FB07030A461946142003F071F90FA815
:104E9000022111FB08030A461946122003F068F9A3
:104EA00005A8022111FB09030A461946102003F048
:104EB0005FF92FE0002F1BDD0FA8022111FB070374
:104EC0000A461946142003F053F90FA8022111FBDA
:104ED00008030A461946122003F04AF905A80221E0
:104EE00011FB09030A461946102003F041F911E0AD
:104EF0000FA8022111FB08030A461946122003F0ED
:104F000037F905A8022111FB09030A4619461020AA
:104F100003F02EF9642095FBF0F0C0B217906420E6
:104F200095FBF0F100FB11500A2190FBF1F000F02D
:104F3000FF0A0A2095FBF0F100FB115000F0FF0B77
:104F4000179800281CDD0AA80221179A11FB0203FA
:104F50000A461946082003F00BF90AA8022111FBA2
:104F60000A030A4619460A2003F002F9684602219C
:104F700011FB0B030A4619460C2003F0F9F811E067
:104F80000AA8022111FB0A030A4619460A2003F067
:104F9000EFF86846022111FB0B030A4619460C2064
:104FA00003F0E6F8642096FBF0F0C0B2169064209F
:104FB00096FBF0F100FB11600A2190FBF1F0C0B20A
:104FC00015900A2096FBF0F100FB1160C0B214901E
:104FD000169800281DDD0AA90222169812FB00135C
:104FE0001946104603F0C4F80AA80221159A11FBCD
:104FF00002030A461946042003F0BAF86846022163
:10500000149A11FB02030A461946062003F0B0F871
:1050100013E00AA80221159A11FB02030A46194659
:10502000042003F0A5F868460221149A11FB02033C
:105030000A461946062003F09BF819B0BDE8F08F28
:105040000F0506000B060F0206030D030D070700F0
:105050000F070F03050F0006060B020F0306030DD3
:10506000070D0007070F030F0F0D06080B0E0F0AA1
:10507000060B0D0B0D0F07080F0F0F0B0D0F08067A
:105080000E0B0A0F0B060B0D0F0D08070F0F0B0F62
:1050900057000020240100202DE9F04F99B004466C
:1050A0000D4616461422AEA10FA8FBF7C9FF142225
:1050B000B0A10AA8FBF7C4FF1422B3A105A8FBF70F
:1050C000BFFF1422B5A16846FBF7BAFF01211C20DF
:1050D00003F074F801211F2003F070F80C211A204E
:1050E00003F06CF8B248007818B90021182003F0DA
:1050F00065F8AF480078012803D10421182003F097
:105100005DF8AB480078022803D10221182003F093
:1051100055F8A7480078032803D10121182003F08F
:105120004DF8A448007818B90A211F2003F046F86A
:10513000A0480078012803D10C211F2003F03EF87D
:105140004FF47A7094FBF0F0C0B218904FF47A707C
:1051500094FBF0F100FB1140642190FBF1F0C7B229
:10516000642094FBF0F100FB11400A2190FBF1F068
:1051700000F0FF080A2094FBF0F100FB114000F062
:10518000FF091898002825DD0FA80221189A11FBA5
:1051900002030A461946162002F0EAFF0FA8022170
:1051A00011FB07030A461946142002F0E1FF0FA87D
:1051B000022111FB08030A461946122002F0D8FF0B
:1051C00005A8022111FB09030A461946102002F026
:1051D000CFFF2FE0002F1BDD0FA8022111FB0703DB
:1051E0000A461946142002F0C3FF0FA8022111FB42
:1051F00008030A461946122002F0BAFF05A8022148
:1052000011FB09030A461946102002F0B1FF11E014
:105210000FA8022111FB08030A461946122002F0CA
:10522000A7FF05A8022111FB09030A461946102011
:1052300002F09EFF642095FBF0F0C0B2179064204E
:1052400095FBF0F100FB11500A2190FBF1F000F00A
:10525000FF0A0A2095FBF0F100FB115000F0FF0B54
:10526000179800281CDD0AA80221179A11FB0203D7
:105270000A461946082002F07BFF0AA8022111FB0A
:105280000A030A4619460A2002F072FF6846022104
:1052900011FB0B030A4619460C2002F069FF11E0CE
:1052A0000AA8022111FB0A030A4619460A2002F045
:1052B0005FFF6846022111FB0B030A4619460C20CA
:1052C00002F056FF642096FBF0F0C0B21690642006
:1052D00096FBF0F100FB11600A2190FBF1F0C0B2E7
:1052E00015900A2096FBF0F100FB1160C0B21490FB
:1052F000169800281DDD0AA90222169812FB001339
:105300001946104602F034FF0AA80221159A11FB33
:1053100002030A461946042002F02AFF68460221C9
:10532000149A11FB02030A461946062002F020FFD8
:1053300013E00AA80221159A11FB02030A46194636
:10534000042002F015FF68460221149A11FB0203A3
:105350000A461946062002F00BFF19B0BDE8F08F8F
:105360000F0506000B060F0206030D030D070700CD
:105370000F070F03050F0006060B020F0306030DB0
:10538000070D0007070F030F0F0D06080B0E0F0A7E
:10539000060B0D0B0D0F07080F0F0F0B0D0F080657
:1053A0000E0B0A0F0B060B0D0F0D08070F0F0B0F3F
:1053B00057000020240100201CB50121022002F02A
:1053C00099FBE020009001208DF8040000208DF86A
:1053D000060002208DF8050069460E48FCF7C0FC67
:1053E00020210C48FCF70FFD40210A48FCF70BFD7B
:1053F00080210848FCF707FD022002F0F5FB292078
:1054000002F0F2FB012002F0EFFB032002F0ECFBC4
:105410001CBD00000004024000BFFEE71CB54FF4B5
:1054200000511348FCF7EDFC4FF480400090012040
:105430008DF8040002208DF8050069460C48FCF741
:105440008FFC4FF480410A48FCF7DBFC022007F098
:10545000E5FA4FF400510648FCF7D5FC022007F0AE
:10546000DDFA4FF400510248FCF7CBFC1CBD0000F4
:10547000000402401CB50121022002F03BFB4FF466
:10548000E040009001208DF8040002208DF8050016
:1054900069460948FCF764FC4FF480510648FCF764
:1054A000B0FC4FF400510448FCF7ADFC4FF48041D0
:1054B0000148FCF7A8FC1CBD000402401CB54FF4D9
:1054C00000511348FCF79DFC4FF4804000900120F0
:1054D0008DF8040002208DF8050069460C48FCF7A1
:1054E0003FFC4FF480410A48FCF78DFC022007F096
:1054F00095FA4FF400510648FCF785FC022007F0AE
:105500008DFA4FF400510248FCF77BFC1CBD0000F3
:10551000000402407CB5064600244FF48040009011
:1055200000208DF804008DF8070069461548FCF747
:1055300017FC00251BE04FF400511248FCF761FCFA
:10554000022007F06BFA4FF400510E48FCF75BFCA9
:105550006006040E4FF480410A48FCF749FC08B18C
:10556000601CC4B2012007F059FA681CC5B2082DAE
:10557000E1DB16B9FFF7A2FF01E0FFF74FFF20467E
:105580007CBD0000000402407CB504464FF480401E
:10559000009001208DF8040002208DF80500694676
:1055A0001948FCF7DDFB4FF400511748FCF729FCC4
:1055B000002525E0E00904D14FF480411248FCF7B2
:1055C00020FC0120B0EBD41F03D181030E48FCF76F
:1055D0001AFC6006040E022007F020FA4FF4005176
:1055E0000948FCF710FC022007F018FA4FF40051AC
:1055F0000548FCF706FC022007F010FA681CC5B24B
:10560000082DD7DB7CBD0000000402401CB54FF420
:105610008040009001208DF8040002208DF80500E4
:1056200069460F48FCF79CFB4FF480410C48FCF79F
:10563000EAFB4FF400510A48FCF7E5FB032007F0B2
:10564000EDF94FF480410648FCF7DBFB032007F03F
:10565000E5F94FF400510248FCF7D3FB1CBD0000F4
:10566000000402401CB54FF48040009001208DF8EA
:10567000040002208DF8050069460F48FCF770FB16
:105680004FF400510C48FCF7BCFB4FF480410A4832
:10569000FCF7B7FB032007F0C1F94FF400510648AF
:1056A000FCF7B1FB4FF480410348FCF7ACFB03204F
:1056B00007F0B4F91CBD0000000402401CB5002432
:1056C0004FF48040009000208DF804008DF8070012
:1056D00069461548FCF744FB4FF480411248FCF73B
:1056E00092FB012007F09AF94FF400510E48FCF7A5
:1056F0008AFB012007F092F907E0601CC4B2FA2C83
:1057000003DDFFF7AFFF01201CBD4FF480410648C9
:10571000FCF76EFB0028F0D14FF400510248FCF773
:1057200070FB0020F0E700000004024000B500F02C
:1057300001F800BD4AF6AA20014908607047000040
:105740000030004000B59BB00121744802F0D2F94E
:1057500001214FF4E06002F0EDF94FF0806002901B
:105760006F4803906F480490002005900120069038
:105770000020079008904FF40060099080000A9084
:1057800040110B9040020C9000200D9001200E90D3
:1057900000200F90109002A96348FCF7BDF801218A
:1057A0006148FCF7ADF80020029060480390604823
:1057B000049000200590012006900020079008909A
:1057C0004FF40060099080000A9040110B90400255
:1057D0000C9000200D9001200E9000200F90109052
:1057E00002A951481838FCF797F801214E4818389B
:1057F000FCF786F84FF0007002904E4803904E4838
:105800000490002005900120069000200790089049
:105810004FF40060099080000A9040110B90400204
:105820000C9000200D9001200E9000200F90109001
:1058300002A93D481830FCF76FF801213A481830AA
:10584000FCF75EF80F20009003208DF80400002084
:105850008DF8070069463948FCF782FA92200090DB
:1058600003208DF8040000208DF8070069463448B5
:10587000FCF776FA0020119012901390149011A862
:10588000FBF700FD002015908DF8580001208DF8E1
:10589000590000201790199001208DF8680015A973
:1058A0001F484C38FBF720FD15A922484C38FBF760
:1058B0001BFD15A91D484C38FBF716FD01211848A2
:1058C0004C38FBF706FD01211A484C38FBF701FD67
:1058D000012116484C38FBF7FCFC012110484C38DC
:1058E000FBF7ECFC012113484C38FBF7E7FC0121E6
:1058F0000E484C38FBF7E2FC012109484C38FBF715
:10590000B5FC01210B484C38FBF7B0FC01210748DE
:105910004C38FBF7ABFC1BB000BD0000050040009D
:105920004C22014000000020286402404C2001402D
:10593000020000204C210140040000200008024029
:10594000000002401CB50121082002F0D3F84FF4FA
:10595000FE40009000208DF8040069460848FCF7DE
:10596000FFF90121102002F0C5F84FF4607000909B
:1059700000208DF8040069460248FCF7F1F91CBDCF
:10598000000C02400010024010B54FF400410248E4
:10599000FCF737FA10BD0000000C024010B54FF4C0
:1059A00000410348FCF72FFA64200249087010BD3B
:1059B000000C0240620000202DE9F0418CB08046CE
:1059C0000C4615461E46129FFEA2D2E90131106810
:1059D000D268CDE909310B920890FEA3D3E90020EB
:1059E000D3E90213CDE90613CDE90420FDA30FCBC3
:1059F0008DE80F00B8F1000F7DD1012C7BDB102C5E
:105A000079DC601EC4B2A5B91DF8041041F4E07041
:105A10000121FBF797FE08A9095D41F4E07001211F
:105A2000FBF790FE04A9095D41F4E0700121FBF74A
:105A300089FEA6B91DF8041041F4E0700221FBF7BD
:105A400081FE08A9095D41F4E0700221FBF77AFEAE
:105A500004A9095D41F4E0700221FBF773FEA7B9C8
:105A60001DF8041041F4E0700321FBF76BFE08A958
:105A7000095D41F4E0700321FBF764FE04A9095DB0
:105A800041F4E0700321FBF75DFE012D14D104A960
:105A9000095D41F4E0700121FBF754FE08A9095D9E
:105AA00041F4E0700121FBF74DFE1DF8041041F4B4
:105AB000E0700121FBF746FE012E14D104A9095D17
:105AC00041F4E0700221FBF73DFE08A9095D41F4B5
:105AD000E0700221FBF736FE1DF8041041F4E0707F
