:020000040800F2
:100000008856002049020008D7620008F55300080E
:10001000D36200081D170008C3810008000000001B
:10002000000000000000000000000000897B0008C4
:100030004D19000800000000CB020008997D00085F
:1000400063020008630200086302000863020008FC
:1000500063020008630200086302000863020008EC
:1000600063020008630200086302000863020008DC
:1000700063020008630200086302000863020008CC
:1000800063020008630200086302000863020008BC
:100090006302000863020008630200080D1A0008EA
:1000A000630200086302000863020008630200089C
:1000B000297E000863020008757F000863020008BB
:1000C000630200086302000863020008630200087C
:1000D000630200086302000863020008E980000868
:1000E0005119000863020008630200086302000857
:1000F000630200086302000863020008630200084C
:10010000630200086302000863020008630200083B
:10011000630200086302000863020008630200082B
:10012000630200086302000863020008630200081B
:10013000630200086302000863020008630200080B
:1001400063020008630200086302000863020008FB
:1001500063020008630200086302000863020008EB
:1001600063020008630200086302000863020008DB
:1001700063020008630200086302000863020008CB
:10018000630200086302000800F002F800F04CF877
:100190000AA090E8000C82448344AAF10107DA45E2
:1001A00001D100F041F8AFF2090EBAE80F0013F0E8
:1001B000010F18BFFB1A43F001031847044901005F
:1001C000244901000A4410F8014B14F00F0508BF40
:1001D00010F8015B240908BF10F8014B6D1E05D013
:1001E00010F8013B6D1E01F8013BF9D1641E03D0EC
:1001F000641E01F8015BFBD19142E4D3704700001B
:100200000023002400250026103A28BF78C1FBD81F
:10021000520728BF30C148BF0B6070471FB50EF0B2
:1002200046F81FBD10B510BD00F054FF1146FFF792
:10023000F5FF0DF01BF800F072FF03B4FFF7F2FFBB
:1002400003BC00F073FF00000948804709480047DD
:10025000FEE7FEE7FEE7FEE7FEE7FEE7FEE7FEE776
:10026000FEE7FEE704480549054A064B70470000D3
:10027000C17D0008890100088850002088560020B0
:100280008852002088520020EFF3108072B6704729
:1002900080F3108870471D484FF0FF010170002067
:1002A00080F309881A48012101701A484FF08051E3
:1002B000016062B6FEE717484FF080510160704759
:1002C00014484FF080510160704772B6EFF3098017
:1002D00028B1203880E8F00F0F490968086000B5A0
:1002E0000E4880475DF804EB0D480E490A7802700D
:1002F00009480D490A680260106890E8F00F203044
:1003000080F309884EF0040E62B6704722ED00E0DB
:10031000B200002004ED00E0B80000208364000873
:10032000A7000020A8000020C000002072B670477F
:1003300062B67047EFF3108072B6704780F3108892
:100340007047B0FA80F0704790FAA0F0704730BF65
:10035000704720BF70470000DFED2E0AB5EEC00ADF
:1003600060EE200ABDEEE01A11EE100AF1EE10FA6E
:1003700038BF401E00EE100ADFED271AF7EE005AD4
:10038000B8EEC00ADFED274A244930EEC01A21EE4C
:10039000210AFCEEC00A10EE900A00EE900A01EB72
:1003A0008000B8EE600ADFED1E0AF0EC012A11EEC3
:1003B000210AF6EE001AB0EC013AF0EC013A20EE18
:1003C000001A20EE216A40EE615A20EE245A21EEF6
:1003D000212A90ED004A00EE602A66EE010A40EE06
:1003E000400A05EE412A70EEA55AF0EE400A41EEB1
:1003F000210A46EE410A25EE011A00EE641A22EEA9
:10040000820A63EEA00A03EE250A44EE010A30EEEA
:10041000200A704783F9223E0000804314E400085C
:10042000ABAAAA3EABAA2A3E9FED3A0A5FEA920C1B
:1004300053D000BFB0EC011A0B1DF0EC010A21EE05
:10044000011A00EEA01AB5EEC01AF1EE10FAC6BFFE
:10045000F1EEC10AC1ED000A81ED000AF0EC010ADB
:10046000191DB0EC011A60EEA00A41EE010AF5EE8A
:10047000C00AF1EE10FAC6BFF1EEE00AC3ED000AC1
:1004800083ED000AB0EC011A0B1DF0EC010A21EE1D
:10049000011A00EEA01AB5EEC01AF1EE10FAC6BFAE
:1004A000F1EEC10AC1ED000A81ED000AB0EC011ABB
:1004B000191DF0EC010A21EE011A00EEA01AB5EEAA
:1004C000C01AF1EE10FAC6BFF1EEC10AC3ED000A80
:1004D00083ED000ABCF1010CACD112F0030208BF9D
:1004E000704700BFF0EC010A0B46B0EC011A091D81
:1004F00060EEA00A41EE010AF5EEC00AF1EE10FA34
:10050000C6BFF1EEE00AC3ED000A83ED000A521EF9
:10051000E8D17047000000002DE9F00700EBC109A9
:10052000DDE90778D0F800A0C9F800A007EB0114B6
:10053000D0F804A0251FA9F10406C9F804A003EB14
:10054000C80907F1080C00F1080402EBC8024B1EB1
:1005500031D000BFF2EC011A96ED002A92ED001A9C
:1005600002EBC802B4EC010A121FF4EC012A60EE9F
:10057000210A20EE010A32EE823A02EEA10AD9EDFA
:10058000001A43EE410A09EBC80902EE610A16EDB2
:10059000012A083E42EE210A02EE410AECEC010A71
:1005A000ACEC010AB1EE400A85ED000A45ED010A06
:1005B000083D5B1ECED190ED000AD0ED010A07EB9D
:1005C000C10130EE600A81ED000A9FED5D0A81ED08
:1005D000010AD0ED000A90ED011A70EE810AC7ED14
:1005E000000A87ED010ABDE8F007704770B400EB20
:1005F000C105DDE903C42D1D002904BF70BC70478F
:10060000F2EC011A95ED002A92ED001A02EBC402F9
:10061000B0EC010A121FF0EC012A60EE210A20EE74
:10062000410A32EE823A02EEA10AD3ED001A43EEFD
:10063000010A03EBC40302EE610A15ED012A083D2D
:10064000491E42EE210A02EE010AECEC010AACEC72
:10065000010AD5D170BC70472DE9F04305464469C5
:10066000807983B00F461646012809D0A3892188D6
:100670003846626800F036F9E87901284ED053E038
:10068000AA88D5E9030307EBC20CD5F808803146E8
:100690000CF1040C5AB300BFB0EC011A9CED002A17
:1006A000D0ED001A00EBC800B7EC010A001FF7EC10
:1006B000012A521E60EE010A20EE610A32EE823AF1
:1006C00002EE810A93ED001A43EE210A03EBC80300
:1006D00002EE410A1CED012AACF1080C42EE010ABF
:1006E00002EE210AE1EC010AA1EC010AD4D194ED59
:1006F000040AA38921883046626800F095FAE879F7
:1007000001281CBF03B0BDE8F083E2892188A368FB
:1007100003B03046BDE8F04300F08CB8E289218890
:100720003846A36800F086F8A868CDE90060D5E9EE
:100730000323A9883846FFF7EFFE03B0BDE8F08336
:100740000000000070B592B2DDF810C055080260DC
:100750008580184EC66006F50056DBB2066100249F
:10076000837180F807C0802A04BF102282600BD0FA
:10077000B2F5007F08BF042212D0B2F5006F14BF9B
:100780004FF0FF3401220BD0002B8C4641614FF01B
:10079000000307D001222946604600F015FC06E060
:1007A0008260F1E700222946604600F00DFC2046F9
:1007B00070BD000020E8000870B40025B0EC010A0C
:1007C000A1F1010CF0EC010AB4EEE00AF1EE10FA2E
:1007D0003CBFB0EE600A0125ACF10104A446B4F1BF
:1007E000004F0ED3F0EC010AB4EEE00AF1EE10FA7D
:1007F0003CBFB0EE600AA1EB0C05BCF1010CF1D1DD
:1008000013E0002CC8BF00260FDD00BFF0EC010A8A
:10081000B4EEE00AF1EE10FA04D2ACEB0605B0EE4D
:10082000600A4D1B761C641EF0D182ED000A1D602B
:1008300070BC70472DE9F0014E0801244FF0000C08
:1008400004EB51076146A6F102082CE061452AD26B
:1008500000EBCC0500EBC104D5ED000A94ED000AD5
:10086000C4ED000A85ED000AD5ED010A94ED010AF8
:10087000C4ED010A85ED010A0CEB0705CC1900EB6C
:10088000C50500EBC404D5ED000A94ED000AC4EDE3
:10089000000A85ED000AD5ED010A94ED010AC4EDC8
:1008A000010A85ED010A00EBC104B44400EBCC0C55
:1008B00094ED020ADCED000A891CC4ED020A8CEDFD
:1008C000000A94ED030ADCF80450E5608CED010A9F
:1008D000B3F800C089B203EB42034145B6D9BDE885
:1008E000F00170472DE9F04F4FEA910C4FF00008EE
:1008F0004746644608EB0C0505EB0C0909EB0C06B2
:1009000000EBC80A00EBC9099AED000AD9ED000A0C
:1009100099ED012A00EBC50530EE201A30EE600A91
:10092000DAED010A00EBC60608F1010870EE821A42
:1009300070EEC20A95ED002AD6ED002A641E32EE52
:10094000222A71EE022A31EE421ACAED002A95EDF2
:10095000012AD6ED012A32EE222A71EE822A71EEA8
:10096000C21ACAED012A95ED012AD6ED012A96EDAB
:10097000003A4FEA470A32EE622AD5ED002A02EB2E
:10098000CA0B72EEC32A9BED003ADBED013A21EE71
:10099000034A01EEA34A61EE831A41EE631A85ED24
:1009A000004A30EE021A30EE420AC5ED011A02EB9F
:1009B000C70570EEE21A95ED002A70EEA20AD5ED99
:1009C000012A21EE023A0AEB070502EBC5051F4496
:1009D00001EEA23A61EE821A41EE621A89ED003A06
:1009E000C9ED011AD5ED001A95ED011A20EE212A64
:1009F00000EE812A60EEA10A40EE410A86ED002A4F
:100A0000C6ED010A7FF476AF9B044FEA134BE6462E
:100A1000BCF1040F7DD9E0464FEA9C0C4FF0000971
:100A2000CA46BCF1000F75D94FEA490404EB09032B
:100A300002EBC90502EBC40402EBC30395ED001AF7
:100A4000D5ED011A94ED000AD4ED010A93ED002AC8
:100A5000D3ED012AD94453468A4573D203EB0C04E3
:100A600004EB0C0606EB0C0500EBC30700EBC60617
:100A700097ED003AD6ED003A96ED015A00EBC4042A
:100A800073EE234A33EE633AD7ED013A00EBC50526
:100A900033EE854A73EEC53A94ED005AD5ED005A0F
:100AA00035EE255A74EE855A74EEC54AC7ED005AE4
:100AB00094ED015AD5ED015A35EE255A74EE055ADA
:100AC00034EE454AC7ED015A94ED015AD5ED015A6D
:100AD00095ED006A35EE655AD4ED005A75EEC65AAA
:100AE00024EE806A04EE206A24EE004A04EEE04A16
:100AF00084ED006A73EEE54A73EEA53A84ED014A8F
:100B000033EE054A33EE453A24EE015A04EEA15A7B
:100B100001E026E01BE064EE814A86ED005A434482
:100B20008B4244EE614A23EE024A03EEA24A63EE90
:100B3000823AC6ED014A43EE623A85ED004AC5EDC0
:100B4000013A8BD30AF1010AE245FFF46DAF4FEA97
:100B50008B434FEA9E0E4FEA134BBEF1040F3FF654
:100B60005AAFA1EB0C0100224B1C4FEA9C04002B56
:100B70008CBF1F46BDE8F08F11190E19331900EB19
:100B8000C20500EBC60695ED000AD6ED000A95ED0C
:100B9000012A96ED011A70EE201A70EE600A32EE0C
:100BA000010A00EBC10100EBC30332EE411A91EDE3
:100BB000002AD3ED002A6244974232EE222A71EED7
:100BC000822A31EEC22AC5ED002AD1ED011AD3EDF9
:100BD000012A71EEA21A70EE212AC5ED012A70EEEB
:100BE000612A91ED010AD3ED011A93ED003A70EEFE
:100BF000611A91ED000A81ED002AC1ED012A30EE63
:100C0000430A30EEA12A70EEE10A71EE401A31EE8D
:100C1000000A86ED002AC6ED011AC3ED000A83ED35
:100C2000010AA9D8BDE8F08F2DE9F04F4FEA910CE9
:100C30004FF000084746644608EB0C0505EB0C0A2C
:100C40000AEB0C0600EBC80900EBCA0AD9ED000A52
:100C50009AED001ADAED012A00EBC50570EE811A53
:100C600070EEC10A99ED011A00EBC60608F1010801
:100C700031EE222A31EE621AD5ED002A96ED003AC5
:100C8000641E72EE832A31EEA23A71EEE21A89ED09
:100C9000003AD5ED012A96ED013A72EE832A32EE42
:100CA000223A32EE622A89ED013AD5ED012A96ED1B
:100CB000013AD6ED003A4FEA470972EEC32A95EDA4
:100CC000003A02EBC90B33EE633ADBED003A9BEDE1
:100CD000014A61EEA34A42EE444A22EE232A01EE83
:100CE000842AC5ED004A70EEE21A70EEA20A85ED84
:100CF000012A02EBC70531EE032AD5ED002A31EEB9
:100D0000431A95ED013A61EEA23A09EB070502EBB1
:100D1000C5051F4442EE433A22EE222A01EE832A01
:100D2000CAED003A8AED012AD5ED001A95ED012AA7
:100D300060EEA12A41EE422A21EE211A00EE821A2B
:100D4000C6ED002A86ED011A7FF476AF9B044FEAC8
:100D5000134BE646BCF1040F7DD9E0464FEA9C0CEC
:100D60004FF00009CA46BCF1000F75D94FEA49049B
:100D700004EB090302EBC90502EBC40402EBC30355
:100D8000D5ED001A95ED012AD4ED000A94ED011A73
:100D9000D3ED002A93ED013AD94453468A4573D2E4
:100DA00003EB0C0404EB0C0606EB0C0500EBC3078D
:100DB00000EBC606D7ED003A96ED004AD6ED015A93
:100DC00000EBC40433EE845A73EEC43A97ED014A43
:100DD00000EBC50574EE254A34EE654AD4ED005AA1
:100DE00095ED006A75EE865A35EE256A35EE655A40
:100DF00087ED006AD4ED015A95ED016A75EE865AC9
:100E000034EEA56A74EEE54A87ED016AD4ED015A25
:100E100095ED016AD5ED006A75EEC65A94ED006A4B
:100E200036EE666A65EE206A44EEC16A64EEA04A58
:100E300045EE014AC4ED006A34EE065A34EE464AE5
:100E4000C4ED014A73EEE54A73EEA53A64EEA15A89
:100E500045EE425A01E026E01BE025EE215AC6EDA0
:100E6000005A43448B4204EE825A63EEA24A44EE97
:100E7000434A24EE224A86ED015A03EE834AC5ED29
:100E8000004A85ED014A8BD30AF1010AE245FFF4DD
:100E90006DAF4FEA8B434FEA9E0E4FEA134BBEF104
:100EA000040F3FF65AAFA1EB0C0100224B1C4FEA96
:100EB0009C06002B8CBF1F46BDE8F08F91198D1941
:100EC000AB1900EBC20400EBC505D4ED000AD5ED6B
:100ED000001AD4ED012A95ED012A30EEA11A70EE28
:100EE000E11A72EE820A00EBC10100EBC30332EE9D
:100EF000C22AD1ED002A93ED003A6244974272EE85
:100F0000832A31EE223A71EE622A23EE003A62EE33
:100F1000802A84ED003A91ED011A93ED013A31EE09
:100F2000031A30EE813A23EE003A84ED013A30EEB6
:100F3000C13AD1ED010A93ED011AD3ED003A30EE3A
:100F4000C11AD1ED000AC1ED002A63EE002A70EE4D
:100F5000E30AC1ED012A71EEC12A31EE811A72EE67
:100F6000201A72EE600A22EE802A21EE001A61EE4B
:100F7000801A85ED002A60EE800AC5ED011A83ED26
:100F8000001AC3ED010A99D8BDE8F08F30B50446C8
:100F90000D4680782188A389626801280DD02846F3
:100FA000FFF7A0FCE078012818BF30BDE289218856
:100FB0002846A368BDE830403CE494ED040A284686
:100FC000FFF732FEEEE7000010B401801B4C4460D6
:100FD00082704FF0000CC370102925D040291BD01F
:100FE000B1F5807F10D0B1F5806F18BF4FF0FF3C96
:100FF00002D010BC6046704701218181C181104937
:101000009FED100A816016E004218181C1810E49A3
:101010009FED0E0A81600EE010218181C1810C4993
:101020009FED0C0A816006E040218181C1810A495F
:101030009FED0A0A816080ED040ADAE720280108A2
:10104000204801080000803A264801080000803B43
:101050003E4801080000803C9E4801080000803D99
:1010600010B5203AC0F00B80B1E81850203AA0E843
:101070001850B1E81850A0E81850BFF4F5AF5FEA77
:10108000027C24BFB1E81850A0E8185044BF18C92A
:1010900018C0BDE810405FEA827C24BF51F8043BD1
:1010A00040F8043B08BF7047D20728BF31F8023B25
:1010B00048BF11F8012B28BF20F8023B48BF00F8B9
:1010C000012B704770477047704700000048704719
:1010D000245000207546FFF7F9FFAE46050069462B
:1010E000534620F00700854618B020B5FFF7BAF840
:1010F000BDE820404FF000064FF000074FF0000819
:101100004FF0000B21F00701AC46ACE8C009ACE899
:10111000C009ACE8C009ACE8C0098D467047044678
:10112000AFF300802046FFF788F870470149182088
:10113000ABBEFEE72600020010B5002301221146D7
:10114000034800F00BF9024800F065F910BD0000FB
:101150000020014010B5002301220C21034800F0BB
:10116000FDF8024800F057F910BD000000200140D2
:1011700010B5002301220421034800F0EFF80248D3
:1011800000F049F910BD00000020014010B5002317
:1011900001220721034800F0E1F8024800F03BF982
:1011A00010BD00000020014000B58DB001211F4896
:1011B00006F0BAFC0120019003208DF80800002001
:1011C0008DF80B0001A91A4800F0B8FD002003902B
:1011D00004900590069003A800F064F800200790A2
:1011E0008DF8200001208DF82100002009900B903F
:1011F00001208DF8300007A90E4800F085F8002383
:10120000012208210B4800F0A9F80121094800F04B
:1012100070F80121074800F061F80121054800F04D
:1012200035F8044800F0F7F80DB000BD02004000AA
:10123000000402400021014010B5002301220A21D0
:10124000034800F08BF8024800F0E5F810BD0000FC
:101250000022014010B5002301220B21034800F0B9
:101260007DF8024800F0D7F810BD000000220140D0
:1012700010B5002301220C21034800F06FF802484A
:1012800000F0C9F810BD00000022014021B18268C1
:1012900042F00102826003E0826822F00102826073
:1012A0007047000000210A4A11680A4A01EA020157
:1012B000D0E9002342EA0302836842EA0302C368DA
:1012C00042EA030242EA0101034AC2F804137047EA
:1012D00004230140E030FCFF0020014021B182687E
:1012E00042F48072826003E0826822F4807282603D
:1012F000704721B1826842F40072826003E0826824
:1013000022F400728260704730B50246002000234C
:101310005068104C20400D790C6844EA05242043A5
:10132000506090680C4C2040D1E903542C438D68E8
:101330002C434D7944EA450420439060D06A20F460
:1013400070000C7D641EE4B2234340EA0350D06277
:1013500030BD0000FFFEFFFCFDF7FFC070B5044686
:101360008C4600200021BCF1090F11DDE068ACF1D2
:101370000A0505EB4506072505FA06F18843ACF199
:101380000A0505EB450503FA05F10843E0600CE0AA
:1013900020690CEB4C06072505FA06F188430CEB97
:1013A0004C0503FA05F108432061072A0FDA606B48
:1013B000551E05EB85061F2505FA06F18843551EC7
:1013C00005EB85050CFA05F10843606322E00D2A60
:1013D0000FDA206BD51F05EB85061F2505FA06F1F0
:1013E0008843D51F05EB85050CFA05F108432063FA
:1013F00010E0E06AA2F10D0505EB85061F2505FA50
:1014000006F18843A2F10D0505EB85050CFA05F1FF
:101410000843E06270BD816841F08041816070479F
:1014200010B504F015F810BD70B50446002604F0A0
:10143000DBF82546E11704EB11610912A02202EB4B
:101440004101C8B204F08EF804F026F9E11704EB6C
:1014500011610912A4EB0121C8B204F083F804F071
:101460001BF904F0C1F8A12004F07CF804F014F991
:10147000002004F03DF8064604F0E2F8304670BD66
:1014800070B504460E4604F0AFF82546E11704EBAC
:1014900011610912A02202EB4101C8B204F062F806
:1014A00004F0FAF8E11704EB11610912A4EB012131
:1014B000C8B204F057F804F0EFF8304604F052F8E0
:1014C00004F0EAF804F0BCF80A200BF0ADFD70BDA2
:1014D0002DE9F84305F0B6FB8648007801287CD159
:1014E0004103854800F072FC002861D183480168FF
:1014F0008348007807F080FA0646012E31D18148F2
:1015000001697F48007807F077FA0546EDB97D4814
:1015100041687B48007807F06FFA80467948816817
:101520007748007807F068FA81467648C1687448C1
:10153000007807F061FA07464B464246704800972C
:1015400001787148007804F087FC012D09D1022050
:101550000346024600906A4801786B48007804F020
:101560007BFC67480078401C6549087000BF4FF459
:101570000051614800F02AFC0028F8D0604800784B
:10158000202802DD01205E4908705D4804780CE0E7
:101590005A480168204607F02FFA0646012E02D16C
:1015A0005748047003E0601CC4B2202CF0DD00BF7B
:1015B0004FF40061504800F009FC002863D14F4807
:1015C00001684F48007807F017FA0646012E33D11C
:1015D0004C4801694A48007800E088E007F00CFABE
:1015E0000546EDB9474841684548007807F004FAD8
:1015F0008046444881684248007807F0FDF98146FA
:101600004048C1683E48007807F0F6F907464B4667
:1016100042463B48009701783B48007804F01CFCA8
:10162000012D09D10220034602460090344801787A
:101630003548007804F010FC31480078401E3049ED
:10164000087000BF4FF400612B4800F0BFFB00287A
:10165000F8D02B480078012802DA202028490870A9
:10166000274804780CE025480168204607F0C4F9B3
:101670000646012E02D12248047003E0601EC4B267
:10168000012CF0DA00BF1F4801691D48007807F0FF
:10169000B3F905461B4841681948007807F0ACF9D2
:1016A0008046184881681648007807F0A5F98146F9
:1016B0001448C1681248007807F09EF907464B4667
:1016C00042460F48009701780F48007804F0C4FBA9
:1016D00032200BF0A9FC4B4642460948009701789E
:1016E0000948007804F082F932200BF09DFCBDE837
:1016F000F883000028010020000C02407000002048
:10170000680000202C0100206900002010B505F0C1
:1017100065F810BD10B505F079F810BD00BFFEE703
:1017200070B506460C46012C26DB062C24DC002571
:1017300020E016F0010F05D04FF400713F4800F093
:1017400050FB04E04FF400713C4800F048FB4FF4BC
:1017500080713A4800F043FB761004200BF088FCBF
:101760004FF48071354800F03CFB04200BF080FC06
:10177000681CC5B20C2DDCDB012C0DD101213048D9
:1017800000F02FFB04200BF073FC01212C4800F02B
:1017900026FB04200BF06CFC022C0DD10221284802
:1017A00000F01FFB04200BF063FC0221244800F032
:1017B00016FB04200BF05CFC032C0DD10421204807
:1017C00000F00FFB04200BF053FC04211C4800F038
:1017D00006FB04200BF04CFC042C0DD1082118480A
:1017E00000F0FFFA04200BF043FC0821144800F03D
:1017F000F6FA04200BF03CFC052C0DD1102110480A
:1018000000F0EFFA04200BF033FC10210C4800F03C
:10181000E6FA04200BF02CFC062C0DD12021084800
:1018200000F0DFFA04200BF023FC2021044800F034
:10183000D6FA04200BF01CFC70BD0000000402402E
:10184000000C02401CB50121022006F06DF94FF496
:101850004070009001208DF8040000208DF80600F3
:1018600002208DF805006946104800F067FA012152
:10187000082006F059F93F20009001208DF804005F
:1018800000208DF8060002208DF805006946084802
:1018900000F054FA012406E0214640F20140FFF72F
:1018A0003FFF601CC4B2052CF6DD1CBD00040240E5
:1018B000000C024070B500250DE0002407E0002078
:1018C000A040C1B2284606F0A5FC601CC4B2042C9E
:1018D000F5DB681CC5B2202DEFDB70BD21B10268BD
:1018E00042F00102026003E0026822F0010202609D
:1018F0007047000010B500220268134B1A40CC68F4
:101900000B6823434C6923438C692343CC692343ED
:101910000C6A23434C6A23438C6A23434C6B234356
:101920008C6B23431A430260426922F00702D1E91B
:101930000B3423431A4342610B6943604B68836055
:101940008B68C36010BD00003F801CF07047000032
:1019500008B504F00DFD4FF4805000F00DF9F0B122
:101960002648007801281AD125480078012816D188
:101970000021244800780BF0B1FD002001231A4615
:101980000090204801781E48007804F065FA002095
:101990001C49097801EB41011B4A114448704FF47E
:1019A000805000F055F84FF4804000F0E5F8F0B1B9
:1019B0001248007801281AD111480078012816D160
:1019C0000121104800780BF089FD002001231A4600
:1019D00000900C4801780A48007804F03DFA012094
:1019E0000849097801EB4101074A114448704FF456
:1019F000804000F02DF804F0CDFC08BD2801002047
:101A000069000020680000204001002010B504F0AB
:101A1000AFFC4FF4807000F0AFF84FF4807000F02E
:101A200017F84FF4007000F0A7F840B14FF47A7047
:101A30000BF01EFB4FF40071044800F0C7F94FF49F
:101A4000007000F005F804F0A5FC10BD000C024089
:101A50000149086070470000143C014000B585B0A2
:101A60000121880306F080F80121102006F05CF8BF
:101A70004FF48070039000208DF8100003A93948BE
:101A800000F05CF90821042006F080F84FF4807023
:101A9000019000208DF808000C208DF8090001202D
:101AA0008DF80A0001A800F07BF817208DF80000DF
:101AB00002208DF801008DF8020001208DF803004E
:101AC000684604F00FFC4FF4807000F04DF80C21D4
:101AD000032006F05BF84FF48050019000208DF851
:101AE00008000C208DF8090001208DF80A0001A8DB
:101AF00000F056F828208DF8000001208DF8010034
:101B00008DF802008DF80300684604F0EBFB4FF4FB
:101B1000805000F029F80E21032006F037F84FF42A
:101B20008040019000208DF808000C208DF80900FD
:101B300001208DF80A0001A800F032F828208DF865
:101B4000000001208DF801008DF802008DF80300DF
:101B5000684604F0C7FB4FF4804000F005F805B07C
:101B600000BD000000100240024909680143014A1B
:101B700011607047103C0140014600200022074BD5
:101B80001B6803EA0102054B14331B680B4202D0A9
:101B90000AB1012000E0002070470000003C014035
:101BA000002123498279002A3AD00A461268036844
:101BB0009A430B461A600A1D126803689A430B1D6C
:101BC0001A60027911440A6803681A430A60184AC5
:101BD0000832126803689A43154B08331A601A1DBD
:101BE000126803689A43124B0C331A604279102A28
:101BF0000ED11A1F126803681A430D4B08331A607E
:101C00001A1D126803681A43094B0C331A600DE061
:101C10000749427911440A6803681A430A6005E0DB
:101C2000027911440A6803689A430A607047000009
:101C3000003C01401CB50121082005F075FF4BF662
:101C40004070009001208DF8040000208DF80600FF
:101C500003208DF8050001208DF807006946334800
:101C600000F06CF80121042005F05EFF41F6F070F1
:101C7000009001208DF8040002208DF805006946CF
:101C80002B4800F05BF80121084605F04DFF0C20C1
:101C9000009001208DF8040002208DF805006946AF
:101CA000244800F04BF80121022005F03DFF0220FE
:101CB000009001208DF8040002208DF8050069468F
:101CC0001D4800F03BF80420009001208DF804002E
:101CD00002208DF805006946174800F02FF808200B
:101CE000009001208DF8040002208DF8050069465F
:101CF000114800F023F803F04DFBFFF791FB03F0D0
:101D00003BFEFFF79FFD41F61F4141F2873006F091
:101D100045F941F61F4141F27B5006F0FBF8FFF711
:101D20009DFE03F029FDFFF73FFA1CBD000C0240A9
:101D300000080240000002400004024070B50A465C
:101D4000002100238C4600BF3DE0012404FA01F38A
:101D5000146804EA030C9C4534D104684E00032542
:101D6000B540AC43046014794D00AC4005682C4389
:101D700004601479012C02D01479022C16D18468E5
:101D80004E000325B540AC43846054794D00AC400F
:101D900085682C438460446801258D40AC434460D1
:101DA000446895798D40ADB22C434460C4684E00C0
:101DB0000325B540AC43C460D4794D00AC40C56840
:101DC0002C43C460491C1029BFD370BD02460020BB
:101DD00013690B4201D0012000E0002070474183CD
:101DE0007047018370470000F0B58BB004461422A1
:101DF00026A106A8FFF734F9142229A101A8FFF7AC
:101E00002FF901211C2006F005FA01211F2006F000
:101E100001FA0121192006F0FDF92648007818B9C9
:101E20000A211F2006F0F6F922480078012803D184
:101E30000C211F2006F0EEF9642094FBF0F0C5B2EF
:101E4000642094FBF0F100FB11400A2190FBF1F0BB
:101E5000C6B20A2094FBF0F100FB1140C7B206A8FD
:101E6000022212FB0501082006F0AEF906A80222A4
:101E700012FB06010A2006F0A7F901A8022212FBB4
:101E800007010C2006F0A0F90BB0F0BD050F00060D
:101E9000060B020F0306030D070D0007070F030FC4
:101EA0000D0F08060E0B0A0F0B060B0D0F0D080782
:101EB0000F0F0B0F280100202DE9F04F9BB00446B7
:101EC0000D4616461422CCA10FA8FFF7C9F814221C
:101ED000CEA10AA8FFF7C4F81422D1A105A8FFF7E4
:101EE000BFF81422D3A16846FFF7BAF801211C20DD
:101EF00006F090F901211F2006F08CF9D2480078F5
:101F000018B90821182006F085F9CF480078012873
:101F100003D10C21182006F07DF9CB480078022867
:101F200003D10A21182006F075F9C7480078032864
:101F300003D10921182006F06DF908211B2006F0B5
:101F400069F94FF47A7094FBF0F0C0B21A904FF434
:101F50007A7094FBF0F100FB1140642190FBF1F0EA
:101F6000C0B21990642094FBF0F100FB11400A21EB
:101F700090FBF1F0C0B218900A2094FBF0F100FB46
:101F80001140C0B21790B1480078012809D10FA8BC
:101F900002211A9A11FB02030A461946162006F07E
:101FA00013F9AA48007818B90221172006F032F96F
:101FB00005A90222199812FB00131946142006F0F5
:101FC00003F90FA90222189812FB001319461220D8
:101FD00006F0FAF80FA90222179812FB001319460F
:101FE000102006F0F1F84FF47A7095FBF0F0C0B2D3
:101FF00016904FF47A7095FBF0F100FB11506421BC
:1020000090FBF1F0C7B2642095FBF0F100FB11509A
:102010000A2190FBF1F000F0FF080A2095FBF0F197
:1020200000FB115000F0FF091698002825DD0FA8CD
:102030000221169A11FB02030A4619460E2006F0E9
:10204000C3F80AA8022111FB07030A461946082013
:1020500006F0BAF80AA8022111FB08030A4619463D
:102060000A2006F0B1F86846022111FB09030A466E
:1020700019460C2006F0A8F82FE0002F1BDD0AA857
:10208000022111FB07030A461946082006F09CF8B6
:102090000AA8022111FB08030A4619460A2006F085
:1020A00093F86846022111FB09030A4619460C20E1
:1020B00006F08AF811E00AA8022111FB08030A467B
:1020C00019460A2006F080F86846022111FB090330
:1020D0000A4619460C2006F077F84FF47A70B6FBE2
:1020E000F0F0C0B215904FF47A70B6FBF0F100FB3F
:1020F00011606421B0FBF1F000F0FF0A6420B6FB30
:10210000F0F100FB11600A21B0FBF1FB0A20B6FBE5
:10211000F0F100FB116014904D48007818B90A21C5
:102120001F2006F077F84A480078012803D10C21D7
:102130001F2006F06FF81598002826DD0AA8022156
:10214000159A11FB02030A461946002006F03CF8D6
:102150000AA8022111FB0A030A461946022006F0CA
:1021600033F80AA8022111FB0B030A461946042082
:1021700006F02AF80AA80221149A11FB02030A4663
:102180001946062006F020F832E0BAF1000F1CDDF7
:102190000AA8022111FB0A030A461946022006F08A
:1021A00013F80AA8022111FB0B030A461946042062
:1021B00006F00AF80AA80221149A11FB02030A4643
:1021C0001946062006F000F812E00AA8022111FBC9
:1021D0000B030A461946042005F0F6FF0AA802215F
:1021E000149A11FB02030A461946062005F0ECFF7B
:1021F0001BB0BDE8F08F00000F0506000B060F02B4
:1022000006030D030D0707000F070F03050F000658
:10221000060B020F0306030D070D0007070F030F40
:102220000F0D06080B0E0F0A060B0D0B0D0F0708FE
:102230000F0F0F0B0D0F08060E0B0A0F0B060B0DE1
:102240000F0D08070F0F0B0F570000205F00002035
:10225000280100202DE9F04F9BB004460D4616469C
:102260001422CCA10FA8FEF7FBFE1422CEA10AA8CF
:10227000FEF7F6FE1422D1A105A8FEF7F1FE142206
:10228000D3A16846FEF7ECFE01211C2005F0C2FF39
:1022900001211F2005F0BEFF0A211B2005F0BAFF17
:1022A000D048007818B90021182005F0B3FFCD48B8
:1022B0000078012803D10421182005F0ABFFC9489C
:1022C0000078022803D10221182005F0A3FFC54899
:1022D0000078032803D10121182005F09BFF4FF45B
:1022E0007A7094FBF0F0C0B21A904FF47A7094FBBD
:1022F000F0F100FB1140642190FBF1F0C0B21990A5
:10230000642094FBF0F100FB11400A2190FBF1F0F6
:10231000C0B218900A2094FBF0F100FB1140C0B24B
:102320001790B1480078012809D10FA802211A9A04
:1023300011FB02030A461946162005F045FFAA487C
:10234000007818B90221172005F064FF05A90222C0
:10235000199812FB00131946142005F035FF0FA938
:102360000222189812FB00131946122005F02CFFC8
:102370000FA90222179812FB00131946102005F02E
:1023800023FF4FF47A7095FBF0F0C0B216904FF433
:102390007A7095FBF0F100FB1150642190FBF1F095
:1023A000C7B2642095FBF0F100FB11500A2190FBAD
:1023B000F1F000F0FF080A2095FBF0F100FB11504E
:1023C00000F0FF091698002825DD0FA80221169AB3
:1023D00011FB02030A4619460E2005F0F5FE0AA875
:1023E000022111FB07030A461946082005F0ECFEFE
:1023F0000AA8022111FB08030A4619460A2005F023
:10240000E3FE6846022111FB09030A4619460C2027
:1024100005F0DAFE2FE0002F1BDD0AA8022111FBD8
:1024200007030A461946082005F0CEFE0AA8022135
:1024300011FB08030A4619460A2005F0C5FE684646
:10244000022111FB09030A4619460C2005F0BCFEC7
:1024500011E00AA8022111FB08030A4619460A20C6
:1024600005F0B2FE6846022111FB09030A4619462F
:102470000C2005F0A9FE4FF47A70B6FBF0F0C0B264
:1024800015904FF47A70B6FBF0F100FB11606421F7
:10249000B0FBF1F000F0FF0A6420B6FBF0F100FBA6
:1024A00011600A21B0FBF1FB0A20B6FBF0F100FB42
:1024B000116014904D48007818B90A211F2005F0CA
:1024C000A9FE4A480078012803D10C211F2005F0FD
:1024D000A1FE1598002826DD0AA80221159A11FBF5
:1024E00002030A461946002005F06EFE0AA80221E2
:1024F00011FB0A030A461946022005F065FE0AA8E8
:10250000022111FB0B030A461946042005F05CFE6C
:102510000AA80221149A11FB02030A461946062052
:1025200005F052FE32E0BAF1000F1CDD0AA80221CC
:1025300011FB0A030A461946022005F045FE0AA8C7
:10254000022111FB0B030A461946042005F03CFE4C
:102550000AA80221149A11FB02030A461946062012
:1025600005F032FE12E00AA8022111FB0B030A4615
:102570001946042005F028FE0AA80221149A11FB2E
:1025800002030A461946062005F01EFE1BB0BDE8F0
:10259000F08F00000F0506000B060F0206030D0367
:1025A0000D0707000F070F03050F0006060B020FAC
:1025B0000306030D070D0007070F030F0F0D060895
:1025C0000B0E0F0A060B0D0B0D0F07080F0F0F0B4D
:1025D0000D0F08060E0B0A0F0B060B0D0F0D08074B
:1025E0000F0F0B0F570000205F0000202801002074
:1025F0002DE9F04F9BB004460D4616461422CCA19F
:102600000FA8FEF72DFD1422CEA10AA8FEF728FD83
:102610001422D1A105A8FEF723FD1422D3A16846F8
:10262000FEF71EFD01211C2005F0F4FD01211F20F5
:1026300005F0F0FD0C211B2005F0ECFDD0480078E2
:1026400018B90021182005F0E5FDCD4800780128D3
:1026500003D10421182005F0DDFDC94800780228C7
:1026600003D10221182005F0D5FDC54800780328C4
:1026700003D10121182005F0CDFD4FF47A7094FBB1
:10268000F0F0C0B21A904FF47A7094FBF0F100FBB6
:102690001140642190FBF1F0C0B21990642094FBCA
:1026A000F0F100FB11400A2190FBF1F0C0B218904C
:1026B0000A2094FBF0F100FB1140C0B21790B14822
:1026C0000078012809D10FA802211A9A11FB0203F0
:1026D0000A461946162005F077FDAA48007818B971
:1026E0000221172005F096FD05A90222199812FB78
:1026F00000131946142005F067FD0FA9022218984F
:1027000012FB00131946122005F05EFD0FA90222EC
:10271000179812FB00131946102005F055FD4FF4D1
:102720007A7095FBF0F0C0B216904FF47A7095FB7A
:10273000F0F100FB1150642190FBF1F0C7B264206E
:1027400095FBF0F100FB11500A2190FBF1F000F035
:10275000FF080A2095FBF0F100FB115000F0FF0983
:102760001698002825DD0FA80221169A11FB0203F6
:102770000A4619460E2005F027FD0AA8022111FB82
:1027800007030A461946082005F01EFD0AA8022183
:1027900011FB08030A4619460A2005F015FD684694
:1027A000022111FB09030A4619460C2005F00CFD15
:1027B0002FE0002F1BDD0AA8022111FB07030A46A8
:1027C0001946082005F000FD0AA8022111FB0803A4
:1027D0000A4619460A2005F0F7FC6846022111FB5B
:1027E00009030A4619460C2005F0EEFC11E00AA880
:1027F000022111FB08030A4619460A2005F0E4FCF1
:102800006846022111FB09030A4619460C2005F00F
:10281000DBFC4FF47A70B6FBF0F0C0B215904FF4C9
:102820007A70B6FBF0F100FB11606421B0FBF1F0AF
:1028300000F0FF0A6420B6FBF0F100FB11600A21F2
:10284000B0FBF1FB0A20B6FBF0F100FB1160149025
:102850004D48007818B90A211F2005F0DBFC4A48D2
:102860000078012803D10C211F2005F0D3FC159816
:10287000002826DD0AA80221159A11FB02030A4648
:102880001946002005F0A0FC0AA8022111FB0A034A
:102890000A461946022005F097FC0AA8022111FBFE
:1028A0000B030A461946042005F08EFC0AA80221F3
:1028B000149A11FB02030A461946062005F084FC0F
:1028C00032E0BAF1000F1CDD0AA8022111FB0A0355
:1028D0000A461946022005F077FC0AA8022111FBDE
:1028E0000B030A461946042005F06EFC0AA80221D3
:1028F000149A11FB02030A461946062005F064FCEF
:1029000012E00AA8022111FB0B030A461946042013
:1029100005F05AFC0AA80221149A11FB02030A4688
:102920001946062005F050FC1BB0BDE8F08F0000F2
:102930000F0506000B060F0206030D030D07070027
:102940000F070F03050F0006060B020F0306030D0A
:10295000070D0007070F030F0F0D06080B0E0F0AD8
:10296000060B0D0B0D0F07080F0F0F0B0D0F0806B1
:102970000E0B0A0F0B060B0D0F0D08070F0F0B0F99
:10298000570000205F000020280100202DE9F04FB3
:102990009BB004460D4616461422CEA10FA8FEF7A2
:1029A0005FFB1422D0A10AA8FEF75AFB1422D3A180
:1029B00005A8FEF755FB1422D5A16846FEF750FB8B
:1029C00001211C2005F026FC01211F2005F022FC1E
:1029D00004211A2005F01EFCD248007818B9002105
:1029E000182005F017FCCF480078012803D10421F6
:1029F000182005F00FFCCB480078022803D10221F3
:102A0000182005F007FCC7480078032803D10121EE
:102A1000182005F0FFFB08211B2005F0FBFB4FF4FD
:102A20007A7094FBF0F0C0B21A904FF47A7094FB75
:102A3000F0F100FB1140642190FBF1F0C0B219905D
:102A4000642094FBF0F100FB11400A2190FBF1F0AF
:102A5000C0B218900A2094FBF0F100FB1140C0B204
:102A60001790B1480078012809D10FA802211A9ABD
:102A700011FB02030A461946162005F0A5FBAA48D9
:102A8000007818B90221172005F0C4FB05A902221D
:102A9000199812FB00131946142005F095FB0FA995
:102AA0000222189812FB00131946122005F08CFB25
:102AB0000FA90222179812FB00131946102005F0E7
:102AC00083FB4FF47A7095FBF0F0C0B216904FF490
:102AD0007A7095FBF0F100FB1150642190FBF1F04E
:102AE000C7B2642095FBF0F100FB11500A2190FB66
:102AF000F1F000F0FF080A2095FBF0F100FB115007
:102B000000F0FF091698002825DD0FA80221169A6B
:102B100011FB02030A4619460E2005F055FB0AA8D0
:102B2000022111FB07030A461946082005F04CFB59
:102B30000AA8022111FB08030A4619460A2005F0DB
:102B400043FB6846022111FB09030A4619460C2083
:102B500005F03AFB2FE0002F1BDD0AA8022111FB34
:102B600007030A461946082005F02EFB0AA8022191
:102B700011FB08030A4619460A2005F025FB6846A2
:102B8000022111FB09030A4619460C2005F01CFB23
:102B900011E00AA8022111FB08030A4619460A207F
:102BA00005F012FB6846022111FB09030A4619468B
:102BB0000C2005F009FB4FF47A70B6FBF0F0C0B2C0
:102BC00015904FF47A70B6FBF0F100FB11606421B0
:102BD000B0FBF1F000F0FF0A6420B6FBF0F100FB5F
:102BE00011600A21B0FBF1FB0A20B6FBF0F100FBFB
:102BF000116014904D48007818B90A211F2005F083
:102C000009FB4A480078012803D10C211F2005F058
:102C100001FB1598002826DD0AA80221159A11FB50
:102C200002030A461946002005F0CEFA0AA802213E
:102C300011FB0A030A461946022005F0C5FA0AA844
:102C4000022111FB0B030A461946042005F0BCFAC9
:102C50000AA80221149A11FB02030A46194606200B
:102C600005F0B2FA32E0BAF1000F1CDD0AA8022129
:102C700011FB0A030A461946022005F0A5FA0AA824
:102C8000022111FB0B030A461946042005F09CFAA9
:102C90000AA80221149A11FB02030A4619460620CB
:102CA00005F092FA12E00AA8022111FB0B030A4672
:102CB0001946042005F088FA0AA80221149A11FB8B
:102CC00002030A461946062005F07EFA1BB0BDE84D
:102CD000F08F00000F0506000B060F0206030D0320
:102CE0000D0707000F070F03050F0006060B020F65
:102CF0000306030D070D0007070F030F0F0D06084E
:102D00000B0E0F0A060B0D0B0D0F07080F0F0F0B05
:102D10000D0F08060E0B0A0F0B060B0D0F0D080703
:102D20000F0F0B0F570000205F000020280100202C
:102D30002DE9F04F91B004460D4616461422DCA151
:102D400005A8FEF78DF91422DEA16846FEF788F982
:102D500001211C2005F05EFA01211F2005F05AFA1E
:102D6000DD48007818B90A211F2005F053FADA4827
:102D70000078012803D10C211F2005F04BFA4FF4F5
:102D80007A70B4FBF0F0C0B210904FF47A70B4FBDC
:102D9000F0F100FB11406421B0FBF1F0C0B20F90E4
:102DA0006420B4FBF0F100FB11400A21B0FBF1F705
:102DB0000A20B4FBF0F100FB11484FF47A70B5FB28
:102DC000F0F0C0B20E904FF47A70B5FBF0F100FB5A
:102DD00011506421B0FBF1F0C0B20D906420B5FB3E
:102DE000F0F100FB11500A21B0FBF1F90A20B5FB0C
:102DF000F0F100FB115A4FF47A70B6FBF0F0C0B25C
:102E00000C904FF47A70B6FBF0F100FB1160642176
:102E1000B0FBF1F0C0B20B906420B6FBF0F100FB08
:102E200011600A21B0FBF1F00A900A20B6FBF0F124
:102E300000FB116B1098002825DD05A902221098CF
:102E400012FB00131946162005F0BEF905A8022151
:102E50000F9A11FB02030A461946142005F0B4F933
:102E600005A8022111FB07030A461946122005F0A6
:102E7000ABF905A8022111FB08030A4619461020E8
:102E800005F0A2F93DE00F9800281CDD05A80221FD
:102E90000F9A11FB02030A461946142005F094F913
:102EA00005A8022111FB07030A461946122005F066
:102EB0008BF905A8022111FB08030A4619461020C8
:102EC00005F082F91DE0002F12DD05A8022111FB9B
:102ED00007030A461946122005F076F905A80221D3
:102EE00011FB08030A461946102005F06DF908E0A9
:102EF00005A8022111FB08030A461946102005F017
:102F000063F90E98002825DD05A902220E9812FB10
:102F1000001319460E2005F057F9684602210D9A54
:102F200011FB02030A461946082005F04DF96846D0
:102F3000022111FB09030A4619460A2005F044F94B
:102F40006846022111FB0A030A4619460C2005F0C7
:102F50003BF93EE00D9800281CDD684602210D9AE1
:102F600011FB02030A461946082005F02DF96846B0
:102F7000022111FB09030A4619460A2005F024F92B
:102F80006846022111FB0A030A4619460C2005F087
:102F90001BF91EE0B9F1000F12DD6846022111FB9A
:102FA00009030A4619460A2005F00EF9684602216F
:102FB00011FB0A030A4619460C2005F005F908E042
:102FC0006846022111FB0A030A4619460C2005F047
:102FD000FBF80C98002826DD694602220C9812FBAB
:102FE00000131946002005F0EFF8684602210B9AFD
:102FF00011FB02030A461946022005F0E5F868466F
:1030000002210A9A11FB02030A461946042005F020
:10301000DBF86846022111FB0B030A46194606201D
:1030200005F0D2F840E00B9800281DDD684602212B
:103030000B9A11FB02030A461946022005F0C4F858
:10304000684602210A9A11FB02030A461946042027
:1030500005F0BAF86846022111FB0B030A4619462F
:10306000062005F0B1F81FE00A98002813DD684635
:1030700002210A9A11FB02030A461946042005F0B0
:10308000A3F86846022111FB0B030A4619460620E5
:1030900005F09AF808E06846022111FB0B030A4686
:1030A0001946062005F090F811B0BDE8F08F000039
:1030B0000F0506000B060F0206030D030D070700A0
:1030C0000F070F03050F0006060B020F0306030D83
:1030D000070D0007070F030F280100202DE9F0431B
:1030E0008BB0FAA000680A901422F9A105A8FDF798
:1030F000B7FF1422FBA16846FDF7B2FFFE48007837
:1031000000283DDD4FF48051FC48FEF75FFEC0B95A
:10311000FB48007830B9FB480078401CF94908703A
:1031200002F056FC00BF4FF48051F448FEF74EFE0B
:103130000028F8D0F3480078062802DD0120F14984
:1031400008704FF48041ED48FEF740FEC0B9EC48EE
:10315000007830B9EB480078401EEA49087002F068
:1031600037FC00BF4FF48041E448FEF72FFE0028F3
:10317000F8D0E4480078012802DA0620E149087016
:10318000E048007807287DD2DFE800F07C04DBFC13
:10319000FBFAF9008021DC48FEF718FE80B9FEF743
:1031A00089FBDA4A128802EB82025204110CD84AD7
:1031B000127802EB82025000D64A1268FEF77CFEBB
:1031C0008021D148FEF702FE01287DD14103CB4882
:1031D000FEF7FCFDC0B9CA480078A8B902F0F8FBB8
:1031E000CD480078401CCC49087000BF4FF4005116
:1031F000C248FEF7EBFD0028F8D0C7480078032846
:1032000002DD0120C44908704FF40061BB48FEF79D
:10321000DDFDC0B9BA480078A8B902F0D9FBBE48B4
:103220000078401EBC49087000BF4FF40061B348ED
:10323000FEF7CCFD0028F8D0B7480078012802DA64
:103240000320B5490870B448007801282ED1B3484E
:10325000007890B9FEF72EFBB14A128802EB820289
:103260005204110CAF4A127802EB82025000AE4AAF
:103270001378AE4A1268FEF7EDFFA84800780128DF
:1032800014D100E058E2FEF715FBA94A128802EBC0
:1032900082025204110CA74A127802EB82025000FB
:1032A000A54A1378A54A1268FFF770FB9A48007880
:1032B000022814D1FEF7FEFAA14A128802EB82021C
:1032C0005204110C9F4A00E03AE0127802EB8202AD
:1032D00050009D4A13789D4A1268FFF789F98E487D
:1032E000007803282CD18D480078012812D1FEF7F0
:1032F000E1FA8B4A128802EB82025204110C894ACD
:10330000127802EB82025000874A1378874A1268CB
:10331000FEF7A0FF8148007890B9FEF7CBFA844A07
:10332000128802EB82025204110C824A127802EBDC
:1033300082025000804A1378804A1268FFF726FB09
:10334000FCE280217048FEF741FD48B9FEF7B2FA71
:1033500040F2F5127E4801887E48008800F00EFB9E
:1033600080216948FEF732FD01287AD14103634884
:10337000FEF72CFDE8B962480078D0B903E0D5E249
:10338000E1E1DAE177E002F023FB73480078401CCA
:103390007149087000BF4FF400515848FEF716FD00
:1033A0000028F8D06C480078032802DD01206A4923
:1033B00008704FF400615148FEF708FDC0B950484D
:1033C0000078A8B902F004FB63480078401E624907
:1033D000087000BF4FF400614848FEF7F7FC002872
:1033E000F8D05D480078012802DA03205A490870B5
:1033F00059480078012815D1FEF75CFA4748007853
:1034000040B940F2F512554801885548008800F04F
:1034100063FC07E040F2F5125248018852480088E8
:1034200000F0BEFF4C480078022809D1FEF742FAAE
:1034300040F2F5124D4801884D48008800F0FEFD2D
:1034400045480078032815D1FEF734FA3348007850
:1034500040B940F2F512434801884348008800F023
:103460009FFF07E040F2F5123C4801883C48008885
:1034700000F032FC62E280212348FEF7A7FCE0B9AD
:10348000FEF718FA3B4890ED000AF2EE040A20EE2F
:10349000200ABCEEC00A10EE100A82B2364890ED47
:1034A000000AF2EE040A20EE200ABCEEC00A10EE7A
:1034B000100A81B2002001F025F980211248FEF7A0
:1034C00085FC01287ED141030C4857E00002090524
:1034D0000F0506000B060F0206030D030D0707007C
:1034E0000F070F03050F0006060B020F0306030D5F
:1034F000070D0007070F030F62000020000C0240B9
:1035000028010020250100200010024008000020B2
:10351000070000203000002026010020610000206C
:1035200034000020540000205E00002048000020ED
:1035300038000020560000206000002050000020CD
:1035400036000020550000205F0000204C000020C5
:103550000C0000200A00002027010020400000206D
:103560003A000020440000203E00002042000020DD
:103570003C0000201400002010000020FEF726FC74
:10358000C0B9F0480078A8B902F022FAEE480078F5
:10359000401CED49087000BF4FF40051EB48FEF7A6
:1035A00015FC0028F8D0E8480078032802DD012047
:1035B000E54908704FF40061E448FEF707FCD0B914
:1035C000E04800E09CE00078A8B902F001FADE488B
:1035D0000078401EDC49087000BF4FF40061DB48F2
:1035E000FEF7F4FB0028F8D0D7480078012802DA6B
:1035F0000320D5490870D448007801283BD1FEF754
:1036000059F9D3480078D8B9D24890ED000AF2EEC3
:10361000040A20EE200ABCEEC00A10EE100A82B2A4
:10362000CD4890ED000AF2EE040A20EE200ABCEE2E
:10363000C00A10EE100A81B2002001F0F3F91AE07E
:10364000C64890ED000AF2EE040A20EE200ABCEE15
:10365000C00A10EE100A82B2C14890ED000AF2EEE4
:10366000040A20EE200ABCEEC00A10EE100A81B255
:10367000002001F0FFFCB448007802281CD1FEF7BE
:1036800019F9B84890ED000AF2EE040A20EE200A7B
:10369000BCEEC00A10EE100A82B2B34890ED000AE8
:1036A000F2EE040A20EE200ABCEEC00A10EE100A68
:1036B00081B2002001F04AFBA348007803283BD1E7
:1036C000FEF7F8F8A2480078D8B9A44890ED000AAF
:1036D000F2EE040A20EE200ABCEEC00A10EE100A38
:1036E00082B29F4890ED000AF2EE040A20EE200A12
:1036F000BCEEC00A10EE100A81B2002001F0BAFC44
:103700001AE0944890ED000AF2EE040A20EE200A36
:10371000BCEEC00A10EE100A82B28F4890ED000A8B
:10372000F2EE040A20EE200ABCEEC00A10EE100AE7
:1037300081B2002001F076F900E1FEF7BBF802202B
:10374000FEF752FBFAE0FEF7B5F801211C2004F069
:1037500061FD01211F2004F05DFD7A48007818B951
:103760000A211F2004F056FD76480078012803D175
:103770000C211F2004F04EFD4FF400717348FEF73A
:1037800025FB70B902F024F97848007800EB40007E
:103790007749085C401C7549097801EB4101744A7E
:1037A000505400BF4FF400716848FEF70FFB00282B
:1037B000F8D06E48007800EB40006D49085C3C286A
:1037C00006DD00206949097801EB4101684A50543F
:1037D0006648007800EB40006549085C6549087060
:1037E000624A127802EB4202614B995C5F4A12789E
:1037F000521E102303EB420290B2FDF741FE042259
:103800000AA9142004F0E0FC584800780A2190FB33
:10381000F1F0C4B25548007890FBF1F201FB1200C0
:10382000C5B25448007890FBF1F0C6B25148007818
:1038300090FBF1F201FB1200C7B24E48007890FBFA
:10384000F1F000F0FF084B48007890FBF1F201FB2B
:10385000120000F0FF0905A8022212FB0401122049
:1038600004F0B2FC05A8022212FB0501102004F0AE
:10387000ABFC6846022212FB06010A2004F0A4FCFD
:103880006846022212FB07010C2004F09DFC4FF455
:1038900000512E48FEF79AFAC0B92A480078A8B914
:1038A00002F096F831480078401C3049087000BF9B
:1038B0004FF400512548FEF789FA0028F8D02B482C
:1038C0000078202802DD0120284908704FF40061AB
:1038D0001E48FEF77BFA40BB1A48007828BB02F06E
:1038E00077F822480078401E2049087000BF4FF446
:1038F00000611648FEF76AFA0028F8D01B480078E5
:10390000012802DA2020194908701848007800EBD5
:1039100040001749085C174908701448007800EB0C
:1039200040001349085C1449087007E0FDF7C2FF26
:10393000002211461046FFF7FBF900BF00BF0BB095
:10394000BDE8F0832801002027010020000C024080
:10395000610000201C000020180000202C00002026
:103960002800002024000020200000202901002041
:10397000400100202A0100202B0100202DE9F04FFA
:103980009BB004460D4616461422BDA110A8FDF7B3
:1039900067FB1422BFA10BA8FDF762FB1422C2A192
:1039A00006A8FDF75DFB1422C4A101A8FDF758FB92
:1039B00001211C2004F02EFC01211F2004F02AFC10
:1039C000C348007818B90821182004F023FCC04827
:1039D0000078012803D10C21182004F01BFCBC48FE
:1039E0000078022803D10A21182004F013FCB848FB
:1039F0000078032803D10921182004F00BFC0821CA
:103A0000192004F007FCB348007818B90A211F20D8
:103A100004F000FCAF480078012803D10C211F20DE
:103A200004F0F8FB4FF47A7094FBF0F0C0B21A90F7
:103A30004FF47A7094FBF0F100FB1140642190FB8D
:103A4000F1F0C7B2642094FBF0F100FB11400A21B1
:103A500090FBF1F000F0FF080A2094FBF0F100FB6E
:103A6000114000F0FF091A98002825DD10A8022156
:103A70001A9A11FB02030A461946162004F0A4FB09
:103A800010A8022111FB07030A461946142004F06E
:103A90009BFB10A8022111FB08030A4619461220BD
:103AA00004F092FB10A8022111FB09030A461946F3
:103AB000102004F089FB2FE0002F1BDD10A802214D
:103AC00011FB07030A461946142004F07DFB10A8D9
:103AD000022111FB08030A461946122004F074FB68
:103AE00010A8022111FB09030A461946102004F010
:103AF0006BFB11E010A8022111FB08030A461946CE
:103B0000122004F061FB10A8022111FB09030A46F0
:103B10001946102004F058FB4FF47A7095FBF0F032
:103B2000C0B219904FF47A7095FBF0F100FB115080
:103B3000642190FBF1F000F0FF0A642095FBF0F1A6
:103B400000FB11500A2190FBF1F000F0FF0B0A205E
:103B500095FBF0F100FB1150C0B2189019980028A5
:103B600026DD10A80221199A11FB02030A46194604
:103B70000E2004F029FB0BA8022111FB0A030A46C0
:103B80001946082004F020FB0BA8022111FB0B03AF
:103B90000A4619460A2004F017FB0BA80221189ABE
:103BA00011FB02030A4619460C2004F00DFB32E01B
:103BB000BAF1000F1CDD0BA8022111FB0A030A4613
:103BC0001946082004F000FB0BA8022111FB0B038F
:103BD0000A4619460A2004F0F7FA0BA80221189A9F
:103BE00011FB02030A4619460C2004F0EDFA12E01C
:103BF0000BA8022111FB0B030A4619460A2004F008
:103C0000E3FA0BA80221189A11FB02030A4619468F
:103C10000C2004F0D9FA642096FBF0F0C2B217929F
:103C2000642096FBF0F100FB11600A2190FBF1F09B
:103C3000C0B216900A2096FBF0F100FB1160C0B2F2
:103C400015900BA80221179A11FB02030A46194688
:103C5000022004F0B9FA0BA90222169812FB0013F5
:103C60001946042004F0B0FA01A90222159812FBAB
:103C700000131946062004F0A7FA1BB0BDE8F08F28
:103C80000F0506000B060F0206030D030D070700C4
:103C90000F070F03050F0006060B020F0306030DA7
:103CA000070D0007070F030F0F0D06080B0E0F0A75
:103CB000060B0D0B0D0F07080F0F0F0B0D0F08064E
:103CC0000E0B0A0F0B060B0D0F0D08070F0F0B0F36
:103CD00057000020280100202DE9F04F9BB004463A
:103CE0000D4616461422BFA110A8FDF7B9F91422FB
:103CF000C1A10BA8FDF7B4F91422C4A106A8FDF7D1
:103D0000AFF91422C6A101A8FDF7AAF901211C20D0
:103D100004F080FA01211F2004F07CFA02211B200C
:103D200004F078FAC348007818B90021182004F08C
:103D300071FAC0480078012803D10421182004F04A
:103D400069FABC480078022803D10221182004F047
:103D500061FAB8480078032803D10121182004F043
:103D600059FA0821192004F055FAB348007818B917
:103D70000A211F2004F04EFAAF480078012803D131
:103D80000C211F2004F046FA4FF47A7094FBF0F0F7
:103D9000C0B21A904FF47A7094FBF0F100FB11401E
:103DA000642190FBF1F0C7B2642094FBF0F100FBBA
:103DB00011400A2190FBF1F000F0FF080A2094FB6B
:103DC000F0F100FB114000F0FF091A98002825DDF2
:103DD00010A802211A9A11FB02030A46194616205E
:103DE00004F0F2F910A8022111FB07030A46194654
:103DF000142004F0E9F910A8022111FB08030A4677
:103E00001946122004F0E0F910A8022111FB090361
:103E10000A461946102004F0D7F92FE0002F1BDDC9
:103E200010A8022111FB07030A461946142004F0CA
:103E3000CBF910A8022111FB08030A4619461220EB
:103E400004F0C2F910A8022111FB09030A46194621
:103E5000102004F0B9F911E010A8022111FB0803A9
:103E60000A461946122004F0AFF910A8022111FBEE
:103E700009030A461946102004F0A6F94FF47A7097
:103E800095FBF0F0C0B219904FF47A7095FBF0F109
:103E900000FB1150642190FBF1F000F0FF0A642058
:103EA00095FBF0F100FB11500A2190FBF1F000F0BE
:103EB000FF0B0A2095FBF0F100FB1150C0B21890E7
:103EC0001998002826DD10A80221199A11FB020377
:103ED0000A4619460E2004F077F90BA8022111FBBF
:103EE0000A030A461946082004F06EF90BA80221BD
:103EF00011FB0B030A4619460A2004F065F90BA8CA
:103F00000221189A11FB02030A4619460C2004F0FC
:103F10005BF932E0BAF1000F1CDD0BA8022111FBA6
:103F20000A030A461946082004F04EF90BA802219C
:103F300011FB0B030A4619460A2004F045F90BA8A9
:103F40000221189A11FB02030A4619460C2004F0BC
:103F50003BF912E00BA8022111FB0B030A4619469C
:103F60000A2004F031F90BA80221189A11FB020370
:103F70000A4619460C2004F027F9642096FBF0F05D
:103F8000C2B21792642096FBF0F100FB11600A2187
:103F900090FBF1F0C0B216900A2096FBF0F100FB06
:103FA0001160C0B215900BA80221179A11FB0203F1
:103FB0000A461946022004F007F90BA902221698B6
:103FC00012FB00131946042004F0FEF801A9022296
:103FD000159812FB00131946062004F0F5F81BB0E3
:103FE000BDE8F08F0F0506000B060F0206030D0358
:103FF0000D0707000F070F03050F0006060B020F42
:104000000306030D070D0007070F030F0F0D06082A
:104010000B0E0F0A060B0D0B0D0F07080F0F0F0BE2
:104020000D0F08060E0B0A0F0B060B0D0F0D0807E0
:104030000F0F0B0F57000020280100202DE9F04F33
:104040009BB004460D4616461422BFA110A8FDF7EA
:1040500007F81422C1A10BA8FDF702F81422C4A18D
:1040600006A8FCF7FDFF1422C6A101A8FCF7F8FF83
:1040700001211C2004F0CEF801211F2004F0CAF811
:1040800004211B2004F0C6F8C348007818B90021A9
:10409000182004F0BFF8C0480078012803D104219B
:1040A000182004F0B7F8BC480078022803D1022198
:1040B000182004F0AFF8B8480078032803D1012194
:1040C000182004F0A7F80821192004F0A3F8B34839
:1040D000007818B90A211F2004F09CF8AF48007836
:1040E000012803D10C211F2004F094F84FF47A70BA
:1040F00094FBF0F0C0B21A904FF47A7094FBF0F198
:1041000000FB1140642190FBF1F0C7B2642094FBE6
:10411000F0F100FB11400A2190FBF1F000F0FF08E4
:104120000A2094FBF0F100FB114000F0FF091A98FF
:10413000002825DD10A802211A9A11FB02030A4665
:104140001946162004F040F810A8022111FB0703BD
:104150000A461946142004F037F810A8022111FB72
:1041600008030A461946122004F02EF810A802216E
:1041700011FB09030A461946102004F025F82FE028
:10418000002F1BDD10A8022111FB07030A46194668
:10419000142004F019F810A8022111FB08030A46A4
:1041A0001946122004F010F810A8022111FB09038F
:1041B0000A461946102004F007F811E010A8022161
:1041C00011FB08030A461946122003F0FDFF10A850
:1041D000022111FB09030A461946102003F0F4FFDF
:1041E0004FF47A7095FBF0F0C0B219904FF47A70EA
:1041F00095FBF0F100FB1150642190FBF1F000F011
:10420000FF0A642095FBF0F100FB11500A2190FB9E
:10421000F1F000F0FF0B0A2095FBF0F100FB1150CC
:10422000C0B218901998002826DD10A80221199A0A
:1042300011FB02030A4619460E2003F0C5FF0BA826
:10424000022111FB0A030A461946082003F0BCFFAD
:104250000BA8022111FB0B030A4619460A2003F0A2
:10426000B3FF0BA80221189A11FB02030A46194654
:104270000C2003F0A9FF32E0BAF1000F1CDD0BA8FF
:10428000022111FB0A030A461946082003F09CFF8D
:104290000BA8022111FB0B030A4619460A2003F062
:1042A00093FF0BA80221189A11FB02030A46194634
:1042B0000C2003F089FF12E00BA8022111FB0B0375
:1042C0000A4619460A2003F07FFF0BA80221189A1C
:1042D00011FB02030A4619460C2003F075FF642007
:1042E00096FBF0F0C2B21792642096FBF0F100FB4F
:1042F00011600A2190FBF1F0C0B216900A2096FBE3
:10430000F0F100FB1160C0B215900BA80221179AC2
:1043100011FB02030A461946022003F055FF0BA9C0
:104320000222169812FB00131946042003F04CFFDA
:1043300001A90222159812FB00131946062003F06A
:1043400043FF1BB0BDE8F08F0F0506000B060F0200
:1043500006030D030D0707000F070F03050F0006E7
:10436000060B020F0306030D070D0007070F030FCF
:104370000F0D06080B0E0F0A060B0D0B0D0F07088D
:104380000F0F0F0B0D0F08060E0B0A0F0B060B0D70
:104390000F0D08070F0F0B0F5700002028010020FA
:1043A0002DE9F04F9BB004460D4616461422BFA1DE
:1043B00010A8FCF755FE1422C1A10BA8FCF750FE73
:1043C0001422C4A106A8FCF74BFE1422C6A101A822
:1043D000FCF746FE01211C2003F01CFF01211F20D9
:1043E00003F018FF04211A2003F014FFC3480078DB
:1043F00018B90021182003F00DFFC04800780128EB
:1044000003D10421182003F005FFBC4800780228DE
:1044100003D10221182003F0FDFEB84800780328DC
:1044200003D10121182003F0F5FE0821192003F023
:10443000F1FEB348007818B90A211F2003F0EAFE04
:10444000AF480078012803D10C211F2003F0E2FEC1
:104450004FF47A7094FBF0F0C0B21A904FF47A7077
:1044600094FBF0F100FB1140642190FBF1F0C7B226
:10447000642094FBF0F100FB11400A2190FBF1F065
:1044800000F0FF080A2094FBF0F100FB114000F05F
:10449000FF091A98002825DD10A802211A9A11FB9D
:1044A00002030A461946162003F08EFE10A80221C8
:1044B00011FB07030A461946142003F085FE10A8D5
:1044C000022111FB08030A461946122003F07CFE64
:1044D00010A8022111FB09030A461946102003F017
:1044E00073FE2FE0002F1BDD10A8022111FB070334
:1044F0000A461946142003F067FE10A8022111FB9A
:1045000008030A461946122003F05EFE10A8022195
:1045100011FB09030A461946102003F055FE11E06D
:1045200010A8022111FB08030A461946122003F0C5
:104530004BFE10A8022111FB09030A461946102060
:1045400003F042FE4FF47A7095FBF0F0C0B2199080
:104550004FF47A7095FBF0F100FB1150642190FB51
:10456000F1F000F0FF0A642095FBF0F100FB115020
:104570000A2190FBF1F000F0FF0B0A2095FBF0F10F
:1045800000FB1150C0B218901998002826DD10A821
:104590000221199A11FB02030A4619460E2003F064
:1045A00013FE0BA8022111FB0A030A461946082034
:1045B00003F00AFE0BA8022111FB0B030A46194661
:1045C0000A2003F001FE0BA80221189A11FB020336
:1045D0000A4619460C2003F0F7FD32E0BAF1000F4D
:1045E0001CDD0BA8022111FB0A030A46194608200C
:1045F00003F0EAFD0BA8022111FB0B030A46194642
:104600000A2003F0E1FD0BA80221189A11FB020316
:104610000A4619460C2003F0D7FD12E00BA8022130
:1046200011FB0B030A4619460A2003F0CDFD0BA827
:104630000221189A11FB02030A4619460C2003F0C6
:10464000C3FD642096FBF0F0C2B21792642096FB83
:10465000F0F100FB11600A2190FBF1F0C0B216905E
:104660000A2096FBF0F100FB1160C0B215900BA878
:104670000221179A11FB02030A461946022003F091
:10468000A3FD0BA90222169812FB00131946042061
:1046900003F09AFD01A90222159812FB0013194696
:1046A000062003F091FD1BB0BDE8F08F0F0506005A
:1046B0000B060F0206030D030D0707000F070F037C
:1046C000050F0006060B020F0306030D070D00077A
:1046D000070F030F0F0D06080B0E0F0A060B0D0B2D
:1046E0000D0F07080F0F0F0B0D0F08060E0B0A0F0B
:1046F0000B060B0D0F0D08070F0F0B0F57000020B7
:10470000280100202DE9F04F99B004460D461646C9
:104710001422AEA10FA8FCF7A3FC1422B0A10AA892
:10472000FCF79EFC1422B3A105A8FCF799FC142207
:10473000B5A16846FCF794FC01211C2003F06AFD3A
:1047400001211F2003F066FDB448007818B9082144
:10475000182003F05FFDB1480078012803D10C2137
:10476000182003F057FDAD480078022803D10A2134
:10477000182003F04FFDA9480078032803D1092130
:10478000182003F047FD08211A2003F043FDA44838
:10479000007818B90A211F2003F03CFDA0480078DA
:1047A000012803D10C211F2003F034FD4FF47A704F
:1047B00094FBF0F0C0B218904FF47A7094FBF0F1D3
:1047C00000FB1140642190FBF1F0C7B2642094FB20
:1047D000F0F100FB11400A2190FBF1F000F0FF081E
:1047E0000A2094FBF0F100FB114000F0FF0918983B
:1047F000002825DD0FA80221189A11FB02030A46A2
:104800001946162003F0E0FC0FA8022111FB070354
:104810000A461946142003F0D7FC0FA8022111FB09
:1048200008030A461946122003F0CEFC05A802210F
:1048300011FB09030A461946102003F0C5FC2FE0BE
:10484000002F1BDD0FA8022111FB07030A461946A2
:10485000142003F0B9FC0FA8022111FB08030A463B
:104860001946122003F0B0FC05A8022111FB090330
:104870000A461946102003F0A7FC11E00FA80221F8
:1048800011FB08030A461946122003F09DFC05A8F7
:10489000022111FB09030A461946102003F094FC7B
:1048A000642095FBF0F0C0B21790642095FBF0F106
:1048B00000FB11500A2190FBF1F000F0FF0A0A20E2
:1048C00095FBF0F100FB115000F0FF0B179800284A
:1048D0001CDD0AA80221179A11FB02030A46194699
:1048E000082003F071FC0AA8022111FB0A030A4602
:1048F00019460A2003F068FC6846022111FB0B03ED
:104900000A4619460C2003F05FFC11E00AA80221B8
:1049100011FB0A030A4619460A2003F055FC6846B3
:10492000022111FB0B030A4619460C2003F04CFC34
:10493000642096FBF0F0C0B21690642096FBF0F174
:1049400000FB11600A2190FBF1F0C0B215900A2023
:1049500096FBF0F100FB1160C0B21490169800288D
:104960001DDD0AA90222169812FB001319461046F3
:1049700003F02AFC0AA80221159A11FB02030A4639
:104980001946042003F020FC68460221149A11FB0A
:1049900002030A461946062003F016FC13E00AA893
:1049A0000221159A11FB02030A461946042003F05E
:1049B0000BFC68460221149A11FB02030A461946B1
:1049C000062003F001FC19B0BDE8F08F0F050600CA
:1049D0000B060F0206030D030D0707000F070F0359
:1049E000050F0006060B020F0306030D070D000757
:1049F000070F030F0F0D06080B0E0F0A060B0D0B0A
:104A00000D0F07080F0F0F0B0D0F08060E0B0A0FE7
:104A10000B060B0D0F0D08070F0F0B0F5700002093
:104A2000280100202DE9F04F99B004460D461646A6
:104A30001422B0A10FA8FCF713FB1422B2A10AA8FC
:104A4000FCF70EFB1422B5A105A8FCF709FB142204
:104A5000B7A16846FCF704FB01211C2003F0DAFB38
:104A600001211F2003F0D6FB02211B2003F0D2FB03
:104A7000B448007818B90021182003F0CBFBB148E6
:104A80000078012803D10421182003F0C3FBAD48AE
:104A90000078022803D10221182003F0BBFBA948AB
:104AA0000078032803D10121182003F0B3FB08216B
:104AB0001A2003F0AFFBA448007818B90A211F2080
:104AC00003F0A8FBA0480078012803D10C211F2087
:104AD00003F0A0FB4FF47A7094FBF0F0C0B2189092
:104AE0004FF47A7094FBF0F100FB1140642190FBCD
:104AF000F1F0C7B2642094FBF0F100FB11400A21F1
:104B000090FBF1F000F0FF080A2094FBF0F100FBAD
:104B1000114000F0FF091898002825DD0FA8022198
:104B2000189A11FB02030A461946162003F04CFBA3
:104B30000FA8022111FB07030A461946142003F0AF
:104B400043FB0FA8022111FB08030A461946122055
:104B500003F03AFB05A8022111FB09030A46194696
:104B6000102003F031FB2FE0002F1BDD0FA80221E6
:104B700011FB07030A461946142003F025FB0FA872
:104B8000022111FB08030A461946122003F01CFB00
:104B900005A8022111FB09030A461946102003F05B
:104BA00013FB11E00FA8022111FB08030A46194666
:104BB000122003F009FB05A8022111FB09030A4694
:104BC0001946102003F000FB642095FBF0F0C0B202
:104BD0001790642095FBF0F100FB11500A2190FB27
:104BE000F1F000F0FF0A0A2095FBF0F100FB1150F4
:104BF00000F0FF0B179800281CDD0AA80221179A65
:104C000011FB02030A461946082003F0DDFA0AA840
:104C1000022111FB0A030A4619460A2003F0D4FABE
:104C20006846022111FB0B030A4619460C2003F0CB
:104C3000CBFA11E00AA8022111FB0A030A46194621
:104C40000A2003F0C1FA6846022111FB0B030A4651
:104C500019460C2003F0B8FA642096FBF0F0C0B2BD
:104C60001690642096FBF0F100FB11600A2190FB86
:104C7000F1F0C0B215900A2096FBF0F100FB116034
:104C8000C0B21490169800281DDD0AA902221698B9
:104C900012FB00131946104603F096FA0AA80221E7
:104CA000159A11FB02030A461946042003F08CFAF8
:104CB00068460221149A11FB02030A46194606208F
:104CC00003F082FA13E00AA80221159A11FB0203ED
:104CD0000A461946042003F077FA68460221149A1E
:104CE00011FB02030A461946062003F06DFA19B0BB
:104CF000BDE8F08F0F0506000B060F0206030D033B
:104D00000D0707000F070F03050F0006060B020F24
:104D10000306030D070D0007070F030F0F0D06080D
:104D20000B0E0F0A060B0D0B0D0F07080F0F0F0BC5
:104D30000D0F08060E0B0A0F0B060B0D0F0D0807C3
:104D40000F0F0B0F57000020280100202DE9F04F16
:104D500099B004460D4616461422B0A10FA8FCF7E0
:104D60007FF91422B2A10AA8FCF77AF91422B5A19E
:104D700005A8FCF775F91422B7A16846FCF770F98D
:104D800001211C2003F046FA01211F2003F042FA02
:104D900004211B2003F03EFAB448007818B9002122
:104DA000182003F037FAB1480078012803D1042114
:104DB000182003F02FFAAD480078022803D1022111
:104DC000182003F027FAA9480078032803D101210D
:104DD000182003F01FFA08211A2003F01BFAA44838
:104DE000007818B90A211F2003F014FAA0480078AF
:104DF000012803D10C211F2003F00CFA4FF47A7024
:104E000094FBF0F0C0B218904FF47A7094FBF0F17C
:104E100000FB1140642190FBF1F0C7B2642094FBC9
:104E2000F0F100FB11400A2190FBF1F000F0FF08C7
:104E30000A2094FBF0F100FB114000F0FF091898E4
:104E4000002825DD0FA80221189A11FB02030A464B
:104E50001946162003F0B8F90FA8022111FB070329
:104E60000A461946142003F0AFF90FA8022111FBDE
:104E700008030A461946122003F0A6F905A80221E4
:104E800011FB09030A461946102003F09DF92FE093
:104E9000002F1BDD0FA8022111FB07030A4619464C
:104EA000142003F091F90FA8022111FB08030A4610
:104EB0001946122003F088F905A8022111FB090305
:104EC0000A461946102003F07FF911E00FA80221CD
:104ED00011FB08030A461946122003F075F905A8CC
:104EE000022111FB09030A461946102003F06CF950
:104EF000642095FBF0F0C0B21790642095FBF0F1B0
:104F000000FB11500A2190FBF1F000F0FF0A0A208B
:104F100095FBF0F100FB115000F0FF0B17980028F3
:104F20001CDD0AA80221179A11FB02030A46194642
:104F3000082003F049F90AA8022111FB0A030A46D6
:104F400019460A2003F040F96846022111FB0B03C1
:104F50000A4619460C2003F037F911E00AA802218D
:104F600011FB0A030A4619460A2003F02DF9684688
:104F7000022111FB0B030A4619460C2003F024F909
:104F8000642096FBF0F0C0B21690642096FBF0F11E
:104F900000FB11600A2190FBF1F0C0B215900A20CD
:104FA00096FBF0F100FB1160C0B214901698002837
:104FB0001DDD0AA90222169812FB0013194610469D
:104FC00003F002F90AA80221159A11FB02030A460E
:104FD0001946042003F0F8F868460221149A11FBE0
:104FE00002030A461946062003F0EEF813E00AA869
:104FF0000221159A11FB02030A461946042003F008
:10500000E3F868460221149A11FB02030A46194686
:10501000062003F0D9F819B0BDE8F08F0F0506009F
:105020000B060F0206030D030D0707000F070F0302
:10503000050F0006060B020F0306030D070D000700
:10504000070F030F0F0D06080B0E0F0A060B0D0BB3
:105050000D0F07080F0F0F0B0D0F08060E0B0A0F91
:105060000B060B0D0F0D08070F0F0B0F570000203D
:10507000280100202DE9F04F99B004460D46164650
:105080001422AEA10FA8FBF7EBFF1422B0A10AA8CF
:10509000FBF7E6FF1422B3A105A8FBF7E1FF1422FA
:1050A000B5A16846FBF7DCFF01211C2003F0B2F834
:1050B00001211F2003F0AEF80C211A2003F0AAF8FA
:1050C000B248007818B90021182003F0A3F8AF48BF
:1050D0000078012803D10421182003F09BF8AB4885
:1050E0000078022803D10221182003F093F8A74882
:1050F0000078032803D10121182003F08BF8A4487D
:10510000007818B90A211F2003F084F8A04800781D
:10511000012803D10C211F2003F07CF84FF47A7092
:1051200094FBF0F0C0B218904FF47A7094FBF0F159
:1051300000FB1140642190FBF1F0C7B2642094FBA6
:10514000F0F100FB11400A2190FBF1F000F0FF08A4
:105150000A2094FBF0F100FB114000F0FF091898C1
:10516000002825DD0FA80221189A11FB02030A4628
:105170001946162003F028F80FA8022111FB070397
:105180000A461946142003F01FF80FA8022111FB4C
:1051900008030A461946122003F016F805A8022152
:1051A00011FB09030A461946102003F00DF82FE001
:1051B000002F1BDD0FA8022111FB07030A46194629
:1051C000142003F001F80FA8022111FB08030A467E
:1051D0001946122002F0F8FF05A8022111FB09036D
:1051E0000A461946102002F0EFFF11E00FA8022135
:1051F00011FB08030A461946122002F0E5FF05A834
:10520000022111FB09030A461946102002F0DCFFB7
:10521000642095FBF0F0C0B21790642095FBF0F18C
:1052200000FB11500A2190FBF1F000F0FF0A0A2068
:1052300095FBF0F100FB115000F0FF0B17980028D0
:105240001CDD0AA80221179A11FB02030A4619461F
:10525000082002F0B9FF0AA8022111FB0A030A463E
:1052600019460A2002F0B0FF6846022111FB0B0329
:105270000A4619460C2002F0A7FF11E00AA80221F5
:1052800011FB0A030A4619460A2002F09DFF6846F0
:10529000022111FB0B030A4619460C2002F094FF71
:1052A000642096FBF0F0C0B21690642096FBF0F1FB
:1052B00000FB11600A2190FBF1F0C0B215900A20AA
:1052C00096FBF0F100FB1160C0B214901698002814
:1052D0001DDD0AA90222169812FB0013194610467A
:1052E00002F072FF0AA80221159A11FB02030A4676
:1052F0001946042002F068FF68460221149A11FB47
:1053000002030A461946062002F05EFF13E00AA8CF
:105310000221159A11FB02030A461946042002F0E5
:1053200053FF68460221149A11FB02030A461946EC
:10533000062002F049FF19B0BDE8F08F0F05060006
:105340000B060F0206030D030D0707000F070F03DF
:10535000050F0006060B020F0306030D070D0007DD
:10536000070F030F0F0D06080B0E0F0A060B0D0B90
:105370000D0F07080F0F0F0B0D0F08060E0B0A0F6E
:105380000B060B0D0F0D08070F0F0B0F570000201A
:10539000280100201CB50121022002F0C5FBE020FD
:1053A000009001208DF8040000208DF806000220F6
:1053B0008DF8050069460E48FCF7C0FC20210C481A
:1053C000FCF70FFD40210A48FCF70BFD802108483F
:1053D000FCF707FD022002F021FC292002F01EFC50
:1053E000012002F01BFC032002F018FC1CBD000091
:1053F0000004024000BFFEE71CB54FF40051134803
:10540000FCF7EDFC4FF48040009001208DF8040083
:1054100002208DF8050069460C48FCF78FFC4FF41C
:1054200080410A48FCF7DBFC022007F021FE4FF424
:1054300000510648FCF7D5FC022007F019FE4FF496
:1054400000510248FCF7CBFC1CBD000000040240E8
:105450001CB50121022002F067FB4FF4E0400090F0
:1054600001208DF8040002208DF8050069460948E6
:10547000FCF764FC4FF480510648FCF7B0FC4FF495
:1054800000510448FCF7ADFC4FF480410148FCF7A3
:10549000A8FC1CBD000402401CB54FF40051134889
:1054A000FCF79DFC4FF48040009001208DF8040033
:1054B00002208DF8050069460C48FCF73FFC4FF4CC
:1054C00080410A48FCF78DFC022007F0D1FD4FF423
:1054D00000510648FCF785FC022007F0C9FD4FF497
:1054E00000510248FCF77BFC1CBD00000004024098
:1054F0007CB5064600244FF48040009000208DF8D3
:1055000004008DF8070069461548FCF717FC0025D4
:105510001BE04FF400511248FCF761FC022007F039
:10552000A7FD4FF400510E48FCF75BFC6006040E2B
:105530004FF480410A48FCF749FC08B1601CC4B232
:10554000012007F095FD681CC5B2082DE1DB16B9F6
:10555000FFF7A2FF01E0FFF74FFF20467CBD0000F0
:10556000000402407CB504464FF4804000900120C6
:105570008DF8040002208DF8050069461948FCF7F3
:10558000DDFB4FF400511748FCF729FC002525E00E
:10559000E00904D14FF480411248FCF720FC0120BF
:1055A000B0EBD41F03D181030E48FCF71AFC600650
:1055B000040E022007F05CFD4FF400510948FCF78F
:1055C00010FC022007F054FD4FF400510548FCF791
:1055D00006FC022007F04CFD681CC5B2082DD7DB85
:1055E0007CBD0000000402401CB54FF480400090D8
:1055F00001208DF8040002208DF8050069460F484F
:10560000FCF79CFB4FF480410C48FCF7EAFB4FF49D
:1056100000510A48FCF7E5FB032007F029FD4FF491
:1056200080410648FCF7DBFB032007F021FD4FF427
:1056300000510248FCF7D3FB1CBD000000040240EF
:105640001CB54FF48040009001208DF8040002202A
:105650008DF8050069460F48FCF770FB4FF40051C8
:105660000C48FCF7BCFB4FF480410A48FCF7B7FB41
:10567000032007F0FDFC4FF400510648FCF7B1FB96
:105680004FF480410348FCF7ACFB032007F0F0FC2B
:105690001CBD0000000402401CB500244FF48040F3
:1056A000009000208DF804008DF807006946154829
:1056B000FCF744FB4FF480411248FCF792FB0120B9
:1056C00007F0D6FC4FF400510E48FCF78AFB01208E
:1056D00007F0CEFC07E0601CC4B2FA2C03DDFFF734
:1056E000AFFF01201CBD4FF480410648FCF76EFB64
:1056F0000028F0D14FF400510248FCF770FB002065
:10570000F0E70000000402404CF6CC40014908607C
:10571000704700000030004000B500F013F800BDF5
:1057200000B503460A4645F2555000F01FF81846EA
:1057300000F010F8104600F013F800F003F8FFF73F
:10574000E3FF00BD4AF6AA20014908607047000047
:1057500000300040014948607047000000300040C0
:10576000014988607047000000300040014908602E
:10577000704700000030004000B59BB00121744824
:1057800002F0D2F901214FF4E06002F0EDF94FF0A0
:10579000806002906F4803906F480490002005904D
:1057A000012006900020079008904FF400600990B7
:1057B00080000A9040110B9040020C9000200D9048
:1057C00001200E9000200F90109002A96348FCF772
:1057D00091F801216148FCF781F8002002906048AF
:1057E000039060480490002005900120069000205E
:1057F000079008904FF40060099080000A904011D3
:105800000B9040020C9000200D9001200E90002083
:105810000F90109002A951481838FCF76BF801213D
:105820004E481838FCF75AF84FF0007002904E4876
:1058300003904E480490002005900120069000201F
:10584000079008904FF40060099080000A90401182
:105850000B9040020C9000200D9001200E90002033
:105860000F90109002A93D481830FCF743F8012131
:105870003A481830FCF732F80F20009003208DF8DA
:10588000040000208DF8070069463948FCF756FAF5
:105890009220009003208DF8040000208DF807006E
:1058A00069463448FCF74AFA002011901290139090
:1058B000149011A8FBF7F6FC002015908DF8580005
:1058C00001208DF8590000201790199001208DF8C3
:1058D000680015A91F484C38FBF716FD15A922488A
:1058E0004C38FBF711FD15A91D484C38FBF70CFD92
:1058F000012118484C38FBF7FCFC01211A484C38B0
:10590000FBF7F7FC012116484C38FBF7F2FC0121AC
:1059100010484C38FBF7E2FC012113484C38FBF7E8
:10592000DDFC01210E484C38FBF7D8FC0121094869
:105930004C38FBF7ABFC01210B484C38FBF7A6FCBD
:10594000012107484C38FBF7A1FC1BB000BD00004B
:10595000050040004C220140000000202864024065
:105960004C200140020000204C2101400400002096
:1059700000080240000002401CB50121082002F08E
:10598000D3F84FF4FE40009000208DF804006946E3
:105990000848FCF7D3F90121102002F0C5F84FF4B4
:1059A0006070009000208DF8040069460248FCF702
:1059B000C5F91CBD000C02400010024010B54FF4A8
:1059C00000410248FCF70BFA10BD0000000C024039
:1059D00010B54FF400410348FCF703FA6420024974
:1059E000087010BD000C0240620000202DE9F0415B
:1059F0008CB080460C4615461E46129FFEA2D2E988
:105A000001311068D268CDE909310B920890FEA3EC
:105A1000D3E90020D3E90213CDE90613CDE9042030
:105A2000FDA30FCB8DE80F00B8F1000F7DD1012C45
:105A30007BDB102C79DC601EC4B2A5B91DF8041004
:105A400041F4E0700121FBF76BFE08A9095D41F408
:105A5000E0700121FBF764FE04A9095D41F4E070E8
:105A60000121FBF75DFEA6B91DF8041041F4E070BA
:105A70000221FBF755FE08A9095D41F4E0700221FF
:105A8000FBF74EFE04A9095D41F4E0700221FBF72B
:105A900047FEA7B91DF8041041F4E0700321FBF79D
:105AA0003FFE08A9095D41F4E0700321FBF738FED1
:105AB00004A9095D41F4E0700321FBF731FE012DDB
:105AC00014D104A9095D41F4E0700121FBF728FE1F
:105AD00008A9095D41F4E0700121FBF721FE1DF8E2
