:020000040800F2
:1000000060D2002049020008FD5100088144000828
:10001000FB510008F51700084176000800000000B9
:10002000000000000000000000000000497100080E
:10003000DD19000800000000CB020008FD72000876
:1000400063020008630200086302000863020008FC
:1000500063020008630200086302000863020008EC
:1000600063020008630200086302000863020008DC
:1000700063020008630200086302000863020008CC
:1000800063020008630200086302000863020008BC
:10009000630200086302000863020008851A000872
:1000A000630200086302000863020008630200089C
:1000B0007D730008630200085D7400086302000895
:1000C000630200086302000863020008630200087C
:1000D000630200086302000863020008B3750008A9
:1000E000E1190008630200086302000863020008C7
:1000F000630200086302000863020008630200084C
:10010000630200086302000863020008630200083B
:10011000B17500086302000863020008630200086A
:10012000630200086302000863020008630200081B
:10013000630200086302000863020008630200080B
:1001400063020008630200086302000863020008FB
:1001500063020008630200086302000863020008EB
:1001600063020008630200086302000863020008DB
:1001700063020008630200086302000863020008CB
:10018000630200086302000800F002F800F04CF877
:100190000AA090E8000C82448344AAF10107DA45E2
:1001A00001D100F041F8AFF2090EBAE80F0013F0E8
:1001B000010F18BFFB1A43F001031847041D01008B
:1001C000241D01000A4410F8014B14F00F0508BF6C
:1001D00010F8015B240908BF10F8014B6D1E05D013
:1001E00010F8013B6D1E01F8013BF9D1641E03D0EC
:1001F000641E01F8015BFBD19142E4D3704700001B
:100200000023002400250026103A28BF78C1FBD81F
:10021000520728BF30C148BF0B6070471FB50BF0B5
:1002200046FA1FBD10B510BD00F054FF1146FFF790
:10023000F5FF0AF031FB00F072FF03B4FFF7F2FFA5
:1002400003BC00F073FF00000948804709480047DD
:10025000FEE7FEE7FEE7FEE7FEE7FEE7FEE7FEE776
:10026000FEE7FEE704480549054A064B70470000D3
:10027000217300088901000860CC002060D20020B2
:1002800060CE002060CE0020EFF3108072B6704781
:1002900080F3108870471D484FF0FF010170002067
:1002A00080F309881A48012101701A484FF08051E3
:1002B000016062B6FEE717484FF080510160704759
:1002C00014484FF080510160704772B6EFF3098017
:1002D00028B1203880E8F00F0F490968086000B5A0
:1002E0000E4880475DF804EB0D480E490A7802700D
:1002F00009480D490A680260106890E8F00F203044
:1003000080F309884EF0040E62B6704722ED00E0DB
:10031000A700002004ED00E0C0000020155A0008EE
:10032000A4000020A5000020C800002072B670477D
:1003300062B67047EFF3108072B6704780F3108892
:100340007047B0FA80F0704790FAA0F0704730BF65
:10035000704720BF70470000DFED2E0AB5EEC00ADF
:1003600060EE200ABDEEE01A11EE100AF1EE10FA6E
:1003700038BF401E00EE100ADFED271AF7EE005AD4
:10038000B8EEC00ADFED274A244930EEC01A21EE4C
:10039000210AFCEEC00A10EE900A00EE900A01EB72
:1003A0008000B8EE600ADFED1E0AF0EC012A11EEC3
:1003B000210AF6EE001AB0EC013AF0EC013A20EE18
:1003C000001A20EE216A40EE615A20EE245A21EEF6
:1003D000212A90ED004A00EE602A66EE010A40EE06
:1003E000400A05EE412A70EEA55AF0EE400A41EEB1
:1003F000210A46EE410A25EE011A00EE641A22EEA9
:10040000820A63EEA00A03EE250A44EE010A30EEEA
:10041000200A704783F9223E0000804314B8000888
:10042000ABAAAA3EABAA2A3E9FED3A0A5FEA920C1B
:1004300053D000BFB0EC011A0B1DF0EC010A21EE05
:10044000011A00EEA01AB5EEC01AF1EE10FAC6BFFE
:10045000F1EEC10AC1ED000A81ED000AF0EC010ADB
:10046000191DB0EC011A60EEA00A41EE010AF5EE8A
:10047000C00AF1EE10FAC6BFF1EEE00AC3ED000AC1
:1004800083ED000AB0EC011A0B1DF0EC010A21EE1D
:10049000011A00EEA01AB5EEC01AF1EE10FAC6BFAE
:1004A000F1EEC10AC1ED000A81ED000AB0EC011ABB
:1004B000191DF0EC010A21EE011A00EEA01AB5EEAA
:1004C000C01AF1EE10FAC6BFF1EEC10AC3ED000A80
:1004D00083ED000ABCF1010CACD112F0030208BF9D
:1004E000704700BFF0EC010A0B46B0EC011A091D81
:1004F00060EEA00A41EE010AF5EEC00AF1EE10FA34
:10050000C6BFF1EEE00AC3ED000A83ED000A521EF9
:10051000E8D17047000000002DE9F00700EBC109A9
:10052000DDE90778D0F800A0C9F800A007EB0114B6
:10053000D0F804A0251FA9F10406C9F804A003EB14
:10054000C80907F1080C00F1080402EBC8024B1EB1
:1005500031D000BFF2EC011A96ED002A92ED001A9C
:1005600002EBC802B4EC010A121FF4EC012A60EE9F
:10057000210A20EE010A32EE823A02EEA10AD9EDFA
:10058000001A43EE410A09EBC80902EE610A16EDB2
:10059000012A083E42EE210A02EE410AECEC010A71
:1005A000ACEC010AB1EE400A85ED000A45ED010A06
:1005B000083D5B1ECED190ED000AD0ED010A07EB9D
:1005C000C10130EE600A81ED000A9FED5D0A81ED08
:1005D000010AD0ED000A90ED011A70EE810AC7ED14
:1005E000000A87ED010ABDE8F007704770B400EB20
:1005F000C105DDE903C42D1D002904BF70BC70478F
:10060000F2EC011A95ED002A92ED001A02EBC402F9
:10061000B0EC010A121FF0EC012A60EE210A20EE74
:10062000410A32EE823A02EEA10AD3ED001A43EEFD
:10063000010A03EBC40302EE610A15ED012A083D2D
:10064000491E42EE210A02EE010AECEC010AACEC72
:10065000010AD5D170BC70472DE9F04305464469C5
:10066000807983B00F461646012809D0A3892188D6
:100670003846626800F036F9E87901284ED053E038
:10068000AA88D5E9030307EBC20CD5F808803146E8
:100690000CF1040C5AB300BFB0EC011A9CED002A17
:1006A000D0ED001A00EBC800B7EC010A001FF7EC10
:1006B000012A521E60EE010A20EE610A32EE823AF1
:1006C00002EE810A93ED001A43EE210A03EBC80300
:1006D00002EE410A1CED012AACF1080C42EE010ABF
:1006E00002EE210AE1EC010AA1EC010AD4D194ED59
:1006F000040AA38921883046626800F095FAE879F7
:1007000001281CBF03B0BDE8F083E2892188A368FB
:1007100003B03046BDE8F04300F08CB8E289218890
:100720003846A36800F086F8A868CDE90060D5E9EE
:100730000323A9883846FFF7EFFE03B0BDE8F08336
:100740000000000070B592B2DDF810C055080260DC
:100750008580184EC66006F50056DBB2066100249F
:10076000837180F807C0802A04BF102282600BD0FA
:10077000B2F5007F08BF042212D0B2F5006F14BF9B
:100780004FF0FF3401220BD0002B8C4641614FF01B
:10079000000307D001222946604600F015FC06E060
:1007A0008260F1E700222946604600F00DFC2046F9
:1007B00070BD000020BC000870B40025B0EC010A38
:1007C000A1F1010CF0EC010AB4EEE00AF1EE10FA2E
:1007D0003CBFB0EE600A0125ACF10104A446B4F1BF
:1007E000004F0ED3F0EC010AB4EEE00AF1EE10FA7D
:1007F0003CBFB0EE600AA1EB0C05BCF1010CF1D1DD
:1008000013E0002CC8BF00260FDD00BFF0EC010A8A
:10081000B4EEE00AF1EE10FA04D2ACEB0605B0EE4D
:10082000600A4D1B761C641EF0D182ED000A1D602B
:1008300070BC70472DE9F0014E0801244FF0000C08
:1008400004EB51076146A6F102082CE061452AD26B
:1008500000EBCC0500EBC104D5ED000A94ED000AD5
:10086000C4ED000A85ED000AD5ED010A94ED010AF8
:10087000C4ED010A85ED010A0CEB0705CC1900EB6C
:10088000C50500EBC404D5ED000A94ED000AC4EDE3
:10089000000A85ED000AD5ED010A94ED010AC4EDC8
:1008A000010A85ED010A00EBC104B44400EBCC0C55
:1008B00094ED020ADCED000A891CC4ED020A8CEDFD
:1008C000000A94ED030ADCF80450E5608CED010A9F
:1008D000B3F800C089B203EB42034145B6D9BDE885
:1008E000F00170472DE9F04F4FEA910C4FF00008EE
:1008F0004746644608EB0C0505EB0C0909EB0C06B2
:1009000000EBC80A00EBC9099AED000AD9ED000A0C
:1009100099ED012A00EBC50530EE201A30EE600A91
:10092000DAED010A00EBC60608F1010870EE821A42
:1009300070EEC20A95ED002AD6ED002A641E32EE52
:10094000222A71EE022A31EE421ACAED002A95EDF2
:10095000012AD6ED012A32EE222A71EE822A71EEA8
:10096000C21ACAED012A95ED012AD6ED012A96EDAB
:10097000003A4FEA470A32EE622AD5ED002A02EB2E
:10098000CA0B72EEC32A9BED003ADBED013A21EE71
:10099000034A01EEA34A61EE831A41EE631A85ED24
:1009A000004A30EE021A30EE420AC5ED011A02EB9F
:1009B000C70570EEE21A95ED002A70EEA20AD5ED99
:1009C000012A21EE023A0AEB070502EBC5051F4496
:1009D00001EEA23A61EE821A41EE621A89ED003A06
:1009E000C9ED011AD5ED001A95ED011A20EE212A64
:1009F00000EE812A60EEA10A40EE410A86ED002A4F
:100A0000C6ED010A7FF476AF9B044FEA134BE6462E
:100A1000BCF1040F7DD9E0464FEA9C0C4FF0000971
:100A2000CA46BCF1000F75D94FEA490404EB09032B
:100A300002EBC90502EBC40402EBC30395ED001AF7
:100A4000D5ED011A94ED000AD4ED010A93ED002AC8
:100A5000D3ED012AD94453468A4573D203EB0C04E3
:100A600004EB0C0606EB0C0500EBC30700EBC60617
:100A700097ED003AD6ED003A96ED015A00EBC4042A
:100A800073EE234A33EE633AD7ED013A00EBC50526
:100A900033EE854A73EEC53A94ED005AD5ED005A0F
:100AA00035EE255A74EE855A74EEC54AC7ED005AE4
:100AB00094ED015AD5ED015A35EE255A74EE055ADA
:100AC00034EE454AC7ED015A94ED015AD5ED015A6D
:100AD00095ED006A35EE655AD4ED005A75EEC65AAA
:100AE00024EE806A04EE206A24EE004A04EEE04A16
:100AF00084ED006A73EEE54A73EEA53A84ED014A8F
:100B000033EE054A33EE453A24EE015A04EEA15A7B
:100B100001E026E01BE064EE814A86ED005A434482
:100B20008B4244EE614A23EE024A03EEA24A63EE90
:100B3000823AC6ED014A43EE623A85ED004AC5EDC0
:100B4000013A8BD30AF1010AE245FFF46DAF4FEA97
:100B50008B434FEA9E0E4FEA134BBEF1040F3FF654
:100B60005AAFA1EB0C0100224B1C4FEA9C04002B56
:100B70008CBF1F46BDE8F08F11190E19331900EB19
:100B8000C20500EBC60695ED000AD6ED000A95ED0C
:100B9000012A96ED011A70EE201A70EE600A32EE0C
:100BA000010A00EBC10100EBC30332EE411A91EDE3
:100BB000002AD3ED002A6244974232EE222A71EED7
:100BC000822A31EEC22AC5ED002AD1ED011AD3EDF9
:100BD000012A71EEA21A70EE212AC5ED012A70EEEB
:100BE000612A91ED010AD3ED011A93ED003A70EEFE
:100BF000611A91ED000A81ED002AC1ED012A30EE63
:100C0000430A30EEA12A70EEE10A71EE401A31EE8D
:100C1000000A86ED002AC6ED011AC3ED000A83ED35
:100C2000010AA9D8BDE8F08F2DE9F04F4FEA910CE9
:100C30004FF000084746644608EB0C0505EB0C0A2C
:100C40000AEB0C0600EBC80900EBCA0AD9ED000A52
:100C50009AED001ADAED012A00EBC50570EE811A53
:100C600070EEC10A99ED011A00EBC60608F1010801
:100C700031EE222A31EE621AD5ED002A96ED003AC5
:100C8000641E72EE832A31EEA23A71EEE21A89ED09
:100C9000003AD5ED012A96ED013A72EE832A32EE42
:100CA000223A32EE622A89ED013AD5ED012A96ED1B
:100CB000013AD6ED003A4FEA470972EEC32A95EDA4
:100CC000003A02EBC90B33EE633ADBED003A9BEDE1
:100CD000014A61EEA34A42EE444A22EE232A01EE83
:100CE000842AC5ED004A70EEE21A70EEA20A85ED84
:100CF000012A02EBC70531EE032AD5ED002A31EEB9
:100D0000431A95ED013A61EEA23A09EB070502EBB1
:100D1000C5051F4442EE433A22EE222A01EE832A01
:100D2000CAED003A8AED012AD5ED001A95ED012AA7
:100D300060EEA12A41EE422A21EE211A00EE821A2B
:100D4000C6ED002A86ED011A7FF476AF9B044FEAC8
:100D5000134BE646BCF1040F7DD9E0464FEA9C0CEC
:100D60004FF00009CA46BCF1000F75D94FEA49049B
:100D700004EB090302EBC90502EBC40402EBC30355
:100D8000D5ED001A95ED012AD4ED000A94ED011A73
:100D9000D3ED002A93ED013AD94453468A4573D2E4
:100DA00003EB0C0404EB0C0606EB0C0500EBC3078D
:100DB00000EBC606D7ED003A96ED004AD6ED015A93
:100DC00000EBC40433EE845A73EEC43A97ED014A43
:100DD00000EBC50574EE254A34EE654AD4ED005AA1
:100DE00095ED006A75EE865A35EE256A35EE655A40
:100DF00087ED006AD4ED015A95ED016A75EE865AC9
:100E000034EEA56A74EEE54A87ED016AD4ED015A25
:100E100095ED016AD5ED006A75EEC65A94ED006A4B
:100E200036EE666A65EE206A44EEC16A64EEA04A58
:100E300045EE014AC4ED006A34EE065A34EE464AE5
:100E4000C4ED014A73EEE54A73EEA53A64EEA15A89
:100E500045EE425A01E026E01BE025EE215AC6EDA0
:100E6000005A43448B4204EE825A63EEA24A44EE97
:100E7000434A24EE224A86ED015A03EE834AC5ED29
:100E8000004A85ED014A8BD30AF1010AE245FFF4DD
:100E90006DAF4FEA8B434FEA9E0E4FEA134BBEF104
:100EA000040F3FF65AAFA1EB0C0100224B1C4FEA96
:100EB0009C06002B8CBF1F46BDE8F08F91198D1941
:100EC000AB1900EBC20400EBC505D4ED000AD5ED6B
:100ED000001AD4ED012A95ED012A30EEA11A70EE28
:100EE000E11A72EE820A00EBC10100EBC30332EE9D
:100EF000C22AD1ED002A93ED003A6244974272EE85
:100F0000832A31EE223A71EE622A23EE003A62EE33
:100F1000802A84ED003A91ED011A93ED013A31EE09
:100F2000031A30EE813A23EE003A84ED013A30EEB6
:100F3000C13AD1ED010A93ED011AD3ED003A30EE3A
:100F4000C11AD1ED000AC1ED002A63EE002A70EE4D
:100F5000E30AC1ED012A71EEC12A31EE811A72EE67
:100F6000201A72EE600A22EE802A21EE001A61EE4B
:100F7000801A85ED002A60EE800AC5ED011A83ED26
:100F8000001AC3ED010A99D8BDE8F08F30B50446C8
:100F90000D4680782188A389626801280DD02846F3
:100FA000FFF7A0FCE078012818BF30BDE289218856
:100FB0002846A368BDE830403CE494ED040A284686
:100FC000FFF732FEEEE7000010B401801B4C4460D6
:100FD00082704FF0000CC370102925D040291BD01F
:100FE000B1F5807F10D0B1F5806F18BF4FF0FF3C96
:100FF00002D010BC6046704701218181C181104937
:101000009FED100A816016E004218181C1810E49A3
:101010009FED0E0A81600EE010218181C1810C4993
:101020009FED0C0A816006E040218181C1810A495F
:101030009FED0A0A816080ED040ADAE720FC0008CF
:10104000201C01080000803A261C01080000803B9B
:101050003E1C01080000803C9E1C01080000803DF1
:1010600010B5203AC0F00B80B1E81850203AA0E843
:101070001850B1E81850A0E81850BFF4F5AF5FEA77
:10108000027C24BFB1E81850A0E8185044BF18C92A
:1010900018C0BDE810405FEA827C24BF51F8043BD1
:1010A00040F8043B08BF7047D20728BF31F8023B25
:1010B00048BF11F8012B28BF20F8023B48BF00F8B9
:1010C000012B704770477047704700000048704719
:1010D00000CC00207546FFF7F9FFAE4605006946D3
:1010E000534620F00700854618B020B5FFF7BAF840
:1010F000BDE820404FF000064FF000074FF0000819
:101100004FF0000B21F00701AC46ACE8C009ACE899
:10111000C009ACE8C009ACE8C0098D467047044678
:10112000AFF300802046FFF788F870470149182088
:10113000ABBEFEE72600020010B5064C01220023DC
:101140001146204600F008F92046BDE8104000F0A6
:101150003DB900000020014010B5064C00230122DB
:101160000C21204600F0F8F82046BDE8104000F0C1
:101170002DB900000020014010B5064C00230122CB
:101180000421204600F0E8F82046BDE8104000F0B9
:101190001DB900000020014010B5064C00230122BB
:1011A0000721204600F0D8F82046BDE8104000F0A6
:1011B0000DB900000020014030B58DB001211D485F
:1011C00005F09EFF03208DF82C00012500240A95D0
:1011D0008DF82F400AA9184800F0C6FD0694079420
:1011E000089406A8099400F065F800948DF804406E
:1011F00002940494114C8DF805508DF814506946F2
:10120000204600F083F8002301220821204600F048
:10121000A3F80121204600F06FF80121204600F0DC
:1012200061F80121204600F03BF8204600F0CEF89E
:101230000DB030BD0200400000040240002101401A
:1012400010B5064C002301220A21204600F084F844
:101250002046BDE8104000F0B9B80000002201406F
:1012600010B5064C002301220B21204600F074F833
:101270002046BDE8104000F0A9B80000002201405F
:1012800010B5064C002301220C21204600F064F822
:101290002046BDE8104000F099B80000002201404F
:1012A0000029816802D041F0010101E021F0010133
:1012B00081607047094B10B51A68094902EA0102BA
:1012C000D0E9001441EA0401D0E9024044EA0004F4
:1012D00041EA040141EA0201196010BD0423014002
:1012E000E030FCFF0029816802D041F4807101E008
:1012F00021F48071816070470029816802D041F437
:10130000007101E021F400718160704730B54268DE
:101310000F4B0C791A400B6842EA042213434360D6
:1013200082680C4B4D791A40D1E9034323438C6802
:1013300044EA4504234313438360C26A097D22F4CF
:101340007002491EC9B242EA0151C16230BD0000BB
:10135000FFFEFFFCFDF7FFC070B5072509290AD97C
:10136000C468A1F10A0606EB4606B540AC43B3409B
:101370001C43C46007E0046901EB4106B540AC437F
:10138000B3401C4304611F23072A09D2446B521E39
:1013900002EB820293409C4391400C43446370BD36
:1013A0000D2A09D2046BD21F02EB820293409C43A8
:1013B00091400C43046370BDC46A0D3A02EB820293
:1013C00093409C4391400C43C46270BD816841F0DE
:1013D00080418160704703F07FB810B5044603F088
:1013E00043F9200AA02101EB4000C0B203F0FEF84F
:1013F00003F08EF9E0B203F0F9F803F089F903F095
:1014000033F9A12003F0F2F803F082F9002003F091
:10141000B1F8044603F052F9204610BD70B50446F9
:101420000D4603F021F9200AA02101EB4000C0B2D3
:1014300003F0DCF803F06CF9E0B203F0D7F803F046
:1014400067F9284603F0D2F803F062F903F036F9A1
:10145000BDE870400A2009F067B9704738B5002030
:1014600003F0ECFF114CA066002003F0E7FFE066FC
:10147000002004F03DF86067002003F0DFFF2067E4
:10148000002004F035F8A0676A4609A10A2004F09C
:10149000BBF90323094A0021094804F00FF902238C
:1014A000084A0021084804F009F938BD000000206E
:1014B0005374617274205461736B00001415002022
:1014C000D514000814B50020F516000804F0DEBCA1
:1014D0007047000008B57C4F7C4EDFF8F4B17D4DBD
:1014E00005F06EF8387801287ED14FF4005949464E
:1014F000304600F077FCD8BB287CE96F06F08EFC04
:101500000446012824D1D846287CDBF8101006F0C8
:1015100085FC10B1012813D01AE0287CD8F80410FB
:1015200006F07CFC0246287CD8F8081006F076FC11
:101530000346287CD8F80C1006F070FC009003E0FD
:101540000220034602460090297C687C03F036FCAA
:10155000287C401C28744946304600F043FC002893
:10156000F9D0287C202801D901202874C2B209E0D2
:101570000AE01046E96F06F051FC044601280BD042
:10158000521CD2B2202AF4D94FF4006949463046A1
:1015900000F028FC20B14AE02A7400206886F3E7B6
:1015A000287CE96F06F03AFC0446012825D1D8468C
:1015B000287CDBF8101006F031FC10B1012814D0A3
:1015C0001BE0287CD8F8041006F028FC0246287C92
:1015D000D8F8081006F022FC0346287CD8F80C1036
:1015E00006F01CFC009004E06AE00220034602467C
:1015F0000090297C687C03F0E1FB287C401E287465
:101600004946304600F0EEFB0028F9D0287C08B9A6
:1016100020202874C2B208E01046E96F06F0FEFBF5
:101620000446012806D0521ED2B2002AF4D1012C61
:1016300003D045E02A7400206886D846287CDBF871
:10164000101006F0EBFB10B1012824D038E0287C04
:10165000D8F8041006F0E2FB8246287CD8F808107F
:1016600006F0DCFB8146287CD8F80C1006F0D6FB8F
:101670008046A879012807D1CDF800804B46524614
:10168000297C687C03F09AFBA879C8B94B4652467E
:10169000CDF8008010E0A879012807D10220009041
:1016A00003460246297C687C03F088FBA87938B998
:1016B0000220034602460090297C687C03F070F902
:1016C000C82009F031F80BE730010020000C02407F
:1016D00018B500200000002010B503F0D3FFFFF77D
:1016E000BDFEBDE810400A2004F03CB9704704F08C
:1016F000D5BB00000EB5DFF8E490394F002699F80D
:1017000005004D46012817D15FF0010404EB4400A9
:1017100007EB400000234470C67000961A4621462D
:10172000687C03F04BFB641CE4B2202CEED92D49FD
:101730000120487088706E71DFF8AC80012400BF12
:1017400008EB040004EB440107EB410510F8010C21
:10175000A8700096F0B1EA7821461346012003F004
:101760002DFBEB78CDE900361E4A0121143A2046C4
:10177000029609F0C1F9194A21467C325FF0010056
:1017800009F00CFA641CE4B2202CD9D9174800786F
:10179000B0B11EE000231A462146012003F000F9F3
:1017A00002200096CDE901600E4A0023143A01217F
:1017B000204609F0A1F9094A21467C320020DFE7E2
:1017C000074B0749143BA3F11402A1F1F00006F006
:1017D0002BFB0A2008F0A8FF91E700000000002082
:1017E000240200202CB50020BDCB002030010020B9
:1017F00004F066BBFEE700002DE9F0470646481EF0
:101800000C46052821D8374F00254FF400794FF4B6
:101810008078F0074946384602D000F0ECFA01E043
:1018200000F0E7FA4146384600F0E3FA7608042073
:1018300008F098FF4146384600F0DDFA042008F031
:1018400091FF6D1CEDB20C2DE3D3274D012C19D067
:10185000022C20D0032C27D0042C2ED0052C35D0E0
:10186000062C3CD12021284600F0C5FA042008F0BF
:1018700079FF2021284600F0BCFABDE8F04704209B
:1018800008F070BF0121284600F0B5FA042008F0E6
:1018900069FF0121EEE70221284600F0ACFA04209E
:1018A00008F060FF0221E5E70421284600F0A3FAD2
:1018B000042008F057FF0421DCE70821284600F047
:1018C0009AFA042008F04EFF0821D3E71021284699
:1018D00000F091FA042008F045FF1021CAE7BDE8A6
:1018E000F087000000040240000C02407CB501219A
:1018F000022005F005FC01244FF440708DF80440EF
:10190000002500908DF8065002268DF80560694686
:101910000E4800F029FA0121082005F0F1FB3F20D4
:101920008DF8044000908DF806508DF805606946EA
:10193000074800F019FA40F2014521462846FFF712
:101940005BFF641CE4B2052CF7D97CBD00040240A7
:10195000000C024070B5002500240021284605F047
:1019600097FE641CE4B2042CF7D36D1CEDB2202D5D
:10197000F2D370BD0029016802D041F0010101E0FD
:1019800021F001010160704730B50368124ACC684C
:1019900013400A682243D1E905452C432243CC6910
:1019A00022430C6A22434C6A22438C6A22434C6BCA
:1019B00022438C6B22431A430260426922F00703E0
:1019C000D1E90B2422431A4342610A6942604A6802
:1019D00082608968C16030BD3F801CF070470000A4
:1019E000F8B503F0F1FC4FF48057384600F0F8F8F2
:1019F000224E234C002588B1307801280ED1607C1E
:101A000001280BD1207C6586002108F083FF00951A
:101A100001231A46217C607C03F0D0F9384600F09F
:101A200059F84FF48047384600F0DAF8F8B13078CA
:101A300001281CD1607C012819D1A08E628E4FF044
:101A4000010150EA020302D0012802D004E0A1867D
:101A500001E00AB9A58661860121207C08F05AFFC1
:101A6000009501231A46217C607C03F0A7F93846D3
:101A700000F030F8BDE8F84003F0B2BC30010020BF
:101A80000000002010B503F09FFC4FF48074204646
:101A900000F0A6F810B10D491420C886204600F0C9
:101AA00019F84FF40074204600F09AF838B14FF45A
:101AB0007A7008F057FE2146054800F093F9204659
:101AC00000F008F8BDE8104003F08ABC00000020D8
:101AD000000C02400149086070470000143C0140BE
:101AE0002DE9F0434FF4804985B00121484605F0C7
:101AF0001FFB0121102005F003FB4FF48076002529
:101B000003968DF8105003A9304800F02DF90821F4
:101B1000042005F01BFB8DF804500C278DF8057090
:101B2000012400968DF80640684600F069F81720F9
:101B30008DF8080002208DF809008DF80A008DF854
:101B40000B4002A803F060FB304600F041F80C2186
:101B5000032005F0FBFA8DF8045026038DF805707C
:101B600000968DF80640684600F04AF84FF02808C5
:101B70008DF808808DF809408DF80A408DF80B40EB
:101B800002A803F041FB304600F022F80E210320AA
:101B900005F0DCFA8DF804508DF80570CDF8009052
:101BA0008DF80640684600F02BF88DF808808DF817
:101BB00009408DF80A408DF80B4002A803F024FB81
:101BC000484600F005F805B0BDE8F083001002407B
:101BD00002490A6802430A6070470000103C014055
:101BE000064A014600201268044B0A4014331B6861
:101BF0000B4202D0002A00D001207047003C014077
:101C000030B51B498379026863B30B6893430B605B
:101C10000A1D13680468A343136002790A44136819
:101C2000046823431360124A083213680468A3430C
:101C30001360131D1C680568AC431C6090F805C058
:101C4000BCF1100F05D061440A68006802430A60C5
:101C500030BD1168046821431160196800680143B0
:101C6000196030BD0079084401689143016030BDBE
:101C7000003C01407CB50121082005F041FA4BF6FB
:101C80004070012400908DF8044000208DF806007B
:101C900003208DF805008DF8074069462E4800F0B6
:101CA00063F80121042005F02BFA41F6F070009052
:101CB0008DF8044002258DF805506946274800F04C
:101CC00053F80121084605F01BFA0C2000908DF80E
:101CD00004408DF805506946214800F045F801217F
:101CE000022005F00DFA1F4E8DF8044000958DF886
:101CF00005506946304600F037F8042000908DF812
:101D000004408DF805506946304600F02DF8082053
:101D100000908DF804408DF805506946304600F07B
:101D200023F802F07DFBFFF756FB02F001FEFFF700
:101D3000DDFD41F61F44214641F2873005F0A4FB4A
:101D4000214641F27B5005F059FBFFF7C9FE02F036
:101D50001DFDFFF731FA7CBD000C02400008024077
:101D60000000024000040240F0B5002201234FF0C1
:101D7000030C00BF0D6803FA02F42540A5422DD1E3
:101D8000066854000CFA04F5AE4306600E79076845
:101D9000A6403E4306600E79012E01D0022E12D1DC
:101DA0008668AE4386604D798668A5403543856078
:101DB000456803FA02F6B543456045688E7996405A
:101DC000B6B235434560C56856000CFA06F7BD4308
:101DD000C560CD79A540C4682543C560521C102A52
:101DE000C8D3F0BD0246002012690A4200D001208B
:101DF00070474183704701837047000070B58AB017
:101E00000446142222A16846FFF72AF9142225A1CC
:101E100005A8FFF725F901211C2005F039FC012157
:101E20001F2005F035FC0121192005F031FC224D61
:101E3000287818B90A211F2005F02AFC28780128E3
:101E400003D10C211F2005F023FC6421B4FBF1F029
:101E500001FB10420A21B2FBF1F5B4FBF1F201FBE8
:101E600012446E4606EB40010222082005F0EAFB10
:101E700006EB450102220A2005F0E4FB05A800EB71
:101E8000440102220C2005F0DDFB0AB070BD000009
:101E9000050F0006060B020F0306030D070D0007D2
:101EA000070F030F0D0F08060E0B0A0F0B060B0D85
:101EB0000F0D08070F0F0B0F300100202DE9F04F19
:101EC00099B006460D461446142286A105A8FFF7D0
:101ED000C7F8142288A16846FFF7C2F814228BA124
:101EE0000FA8FFF7BDF814228DA10AA8FFF7B8F8D4
:101EF00001211C2005F0CCFB01211F2005F0C8FBAF
:101F00008C4F387818B90821182005F0C1FB3878B3
:101F1000012803D10C21182005F0BAFB38780228DB
:101F200003D10A21182005F0B3FB3878032803D128
:101F30000921182005F0ACFB08211B2005F0A8FBA7
:101F40004FF47A7BB6FBFBF2D1B20BFB126264203A
:101F5000B2FBF0F2D7B2B6FBF0F200FB12620A203D
:101F6000B2FBF0F8B6FBF0F2DFF8CC9100FB1266A2
:101F700099F800000DF1140A012805D10AEB41017E
:101F80000222162005F05EFB99F8000018B9022124
:101F9000172005F07DFB0FA800EB4701022214205B
:101FA00005F050FB05AF07EB48010222122005F0B7
:101FB00049FB07EB46010222102005F043FBB5FB6D
:101FC000FBF10BFB11534FF0640AB3FBFAF202F082
:101FD000FF0C0A23B5FBF3F203FB12520AAF07EB27
:101FE00042085246B5FBF2F70AFB1757B7FBF3F36B
:101FF0006E4606EB4307C8B24FF47A7303FB1151E8
:10200000B1FBFAF1C9B2D94606EB410538B105A9D1
:1020100001EB400102220E2005F014FB02E0BCF1AE
:10202000000F04D002222946082005F00BFB0222F3
:1020300039460A2005F006FB022241460C2005F035
:1020400001FBB4FBF9F1CDB209FB1141B1FBFAF090
:102050003A4F00F0FF08387818B90A211F2005F020
:1020600017FB3878012803D10C211F2005F010FB45
:102070000A23B4FBF3F003FB1041684600EB41096F
:102080006421B4FBF1F201FB1242B2FBF3F200EB6C
:1020900042074FF47A72B4FBF2F302FB1342B2FB35
:1020A000F1F1C9B200EB410435B106EB4501022262
:1020B000002005F0C7FA02E0B8F1000F04D00222B8
:1020C0002146104605F0BEFA02223946042005F0EA
:1020D000B9FA02224946062005F0B4FA19B0BDE863
:1020E000F08F00000F0506000B060F0206030D031C
:1020F0000D0707000F070F03050F0006060B020F61
:102100000306030D070D0007070F030F0F0D060849
:102110000B0E0F0A060B0D0B0D0F07080F0F0F0B01
:102120000D0F08060E0B0A0F0B060B0D0F0D0807FF
:102130000F0F0B0F040000200800002030010020CA
:102140002DE9F04F99B006460D461446142286A19B
:1021500005A8FEF785FF142288A16846FEF780FFD8
:1021600014228BA10FA8FEF77BFF14228DA10AA8D1
:10217000FEF776FF01211C2005F08AFA01211F20BD
:1021800005F086FA0A211B2005F082FA8A4F38787A
:1021900018B90021182005F07BFA3878012803D1FE
:1021A0000421182005F074FA3878022803D102219E
:1021B000182005F06DFA3878032803D10121182082
:1021C00005F066FA4FF47A7BB6FBFBF2D1B20BFB5B
:1021D00012626420B2FBF0F2D7B2B6FBF0F200FB61
:1021E00012620A20B2FBF0F8B6FBF0F2DFF8CC91F5
:1021F00000FB126699F800000DF1140A012805D1C0
:102200000AEB41010222162005F01CFA99F80000A1
:1022100018B90221172005F03BFA0FA800EB47017F
:102220000222142005F00EFA05AF07EB4801022246
:10223000122005F007FA07EB46010222102005F0F4
:1022400001FAB5FBFBF10BFB11534FF0640AB3FB32
:10225000FAF202F0FF0C0A23B5FBF3F203FB125271
:102260000AAF07EB42085246B5FBF2F70AFB1757D5
:10227000B7FBF3F36E4606EB4307C8B24FF47A732D
:1022800003FB1151B1FBFAF1C9B2D94606EB410586
:1022900038B105A901EB400102220E2005F0D2F968
:1022A00002E0BCF1000F04D002222946082005F00C
:1022B000C9F9022239460A2005F0C4F90222414632
:1022C0000C2005F0BFF9B4FBF9F1CDB209FB1141C7
:1022D000B1FBFAF03A4F00F0FF08387818B90A213C
:1022E0001F2005F0D5F93878012803D10C211F20D3
:1022F00005F0CEF90A23B4FBF3F003FB1041684666
:1023000000EB41096421B4FBF1F201FB1242B2FB84
:10231000F3F200EB42074FF47A72B4FBF2F302FBE4
:102320001342B2FBF1F1C9B200EB410435B106EB47
:1023300045010222002005F085F902E0B8F1000F06
:1023400004D002222146104605F07CF902223946CB
:10235000042005F077F902224946062005F072F9BB
:1023600019B0BDE8F08F00000F0506000B060F0244
:1023700006030D030D0707000F070F03050F0006E7
:10238000060B020F0306030D070D0007070F030FCF
:102390000F0D06080B0E0F0A060B0D0B0D0F07088D
:1023A0000F0F0F0B0D0F08060E0B0A0F0B060B0D70
:1023B0000F0D08070F0F0B0F04000020080000206E
:1023C000300100202DE9F04F99B006460D46144625
:1023D000142286A105A8FEF743FE142288A16846B0
:1023E000FEF73EFE14228BA10FA8FEF739FE142241
:1023F0008DA10AA8FEF734FE01211C2005F048F942
:1024000001211F2005F044F90C211B2005F040F9A3
:102410008A4F387818B90021182005F039F9387832
:10242000012803D10421182005F032F93878022858
:1024300003D10221182005F02BF93878032803D1A5
:102440000121182005F024F94FF47A7BB6FBFBF24A
:10245000D1B20BFB12626420B2FBF0F2D7B2B6FB32
:10246000F0F200FB12620A20B2FBF0F8B6FBF0F2C9
:10247000DFF8CC9100FB126699F800000DF1140A08
:10248000012805D10AEB41010222162005F0DAF8F5
:1024900099F8000018B90221172005F0F9F80FA8E3
:1024A00000EB47010222142005F0CCF805AF07EB42
:1024B00048010222122005F0C5F807EB460102226E
:1024C000102005F0BFF8B5FBFBF10BFB11534FF0EB
:1024D000640AB3FBFAF202F0FF0C0A23B5FBF3F235
:1024E00003FB12520AAF07EB42085246B5FBF2F764
:1024F0000AFB1757B7FBF3F36E4606EB4307C8B268
:102500004FF47A7303FB1151B1FBFAF1C9B2D9460A
:1025100006EB410538B105A901EB400102220E206E
:1025200005F090F802E0BCF1000F04D00222294629
:10253000082005F087F8022239460A2005F082F8C3
:10254000022241460C2005F07DF8B4FBF9F1CDB232
:1025500009FB1141B1FBFAF03A4F00F0FF0838785F
:1025600018B90A211F2005F093F83878012803D103
:102570000C211F2005F08CF80A23B4FBF3F003FBB9
:102580001041684600EB41096421B4FBF1F201FB04
:102590001242B2FBF3F200EB42074FF47A72B4FB43
:1025A000F2F302FB1342B2FBF1F1C9B200EB4104BA
:1025B00035B106EB45010222002005F043F802E0A8
:1025C000B8F1000F04D002222146104605F03AF877
:1025D00002223946042005F035F802224946062039
:1025E00005F030F819B0BDE8F08F00000F050600C7
:1025F0000B060F0206030D030D0707000F070F035D
:10260000050F0006060B020F0306030D070D00075A
:10261000070F030F0F0D06080B0E0F0A060B0D0B0D
:102620000D0F07080F0F0F0B0D0F08060E0B0A0FEB
:102630000B060B0D0F0D08070F0F0B0F04000020EA
:1026400008000020300100202DE9F04F99B0064627
:102650000D461446142288A105A8FEF701FD142298
:102660008AA16846FEF7FCFC14228DA10FA8FEF794
:10267000F7FC14228FA10AA8FEF7F2FC01211C200E
:1026800005F006F801211F2005F002F804211A20A8
:1026900004F0FEFF8C4F387818B90021182004F0A0
:1026A000F7FF3878012803D10421182004F0F0FF47
:1026B0003878022803D10221182004F0E9FF387885
:1026C000032803D10121182004F0E2FF08211B2078
:1026D00004F0DEFF4FF47A7BB6FBFBF2D1B20BFBCA
:1026E00012626420B2FBF0F2D7B2B6FBF0F200FB4C
:1026F00012620A20B2FBF0F8B6FBF0F2DFF8CC91E0
:1027000000FB126699F800000DF1140A012805D1AA
:102710000AEB41010222162004F094FF99F8000010
:1027200018B90221172004F0B3FF0FA800EB4701EE
:102730000222142004F086FF05AF07EB48010222B5
:10274000122004F07FFF07EB46010222102004F064
:1027500079FFB5FBFBF10BFB11534FF0640AB3FBA0
:10276000FAF202F0FF0C0A23B5FBF3F203FB12525C
:102770000AAF07EB42085246B5FBF2F70AFB1757C0
:10278000B7FBF3F36E4606EB4307C8B24FF47A7318
:1027900003FB1151B1FBFAF1C9B2D94606EB410571
:1027A00038B105A901EB400102220E2004F04AFFD6
:1027B00002E0BCF1000F04D002222946082004F0F8
:1027C00041FF022239460A2004F03CFF0222414622
:1027D0000C2004F037FFB4FBF9F1CDB209FB114135
:1027E000B1FBFAF03A4F00F0FF08387818B90A2127
:1027F0001F2004F04DFF3878012803D10C211F2041
:1028000004F046FF0A23B4FBF3F003FB10416846D3
:1028100000EB41096421B4FBF1F201FB1242B2FB6F
:10282000F3F200EB42074FF47A72B4FBF2F302FBCF
:102830001342B2FBF1F1C9B200EB410435B106EB32
:1028400045010222002004F0FDFE02E0B8F1000F75
:1028500004D002222146104604F0F4FE022239463A
:10286000042004F0EFFE02224946062004F0EAFEAE
:1028700019B0BDE8F08F00000F0506000B060F022F
:1028800006030D030D0707000F070F03050F0006D2
:10289000060B020F0306030D070D0007070F030FBA
:1028A0000F0D06080B0E0F0A060B0D0B0D0F070878
:1028B0000F0F0F0B0D0F08060E0B0A0F0B060B0D5B
:1028C0000F0D08070F0F0B0F040000200800002059
:1028D000300100202DE9F04F97B006460C46154612
:1028E000142284A105A8FEF7BBFB142286A168462A
:1028F000FEF7B6FB01211C2004F0CAFE01211F20B7
:1029000004F0C6FE854F387818B90A211F2004F05C
:10291000BFFE3878012803D10C211F2004F0B8FE37
:102920004FF47A72B6FBF2F002FB10676423B7FB38
:10293000F3F707F0FF0EB6FBF3F703FB176C4FF04E
:102940000A08BCFBF8F71397B4FBF2F707F0FF0C8B
:1029500002FB1747B7FBF3F707F0FF0BB4FBF3F7E6
:10296000CDF83CC003FB174CCDF850B0BCFBF8FBD6
:10297000B5FBF2FC02FB1C52B2FBF3F2D2B20E9298
:10298000B5FBF3F20CF0FF0A03FB125CC146B6FB89
:10299000F9F3BCFBF8F209FB136305AF07EB43083F
:1029A0006423B6FBF3FC03FB1C6C0C92BCFBF9F23A
:1029B00007EB4209C1B24FF47A7202FB1060B0FB20
:1029C000F3F0C0B207EB400631B107EB4101022240
:1029D000162004F037FE02E0BEF1000F05D00222FF
:1029E0003146142004F02EFE01E0139820B102229B
:1029F0004946122004F026FE02224146102004F02F
:102A000021FE0A20B4FBF0F100FB1146694601EB00
:102A100046096421B4FBF1F601FB1646B6FBF0F65D
:102A2000684600EB46084FF47A70B4FBF0F600FB02
:102A30001640B0FBF1F0C1B268460F9B00EB4104B9
:102A400033B107EB430102220E2004F0FBFD01E04D
:102A5000149828B102222146082004F0F3FD02E078
:102A6000BBF1000F04D0022241460A2004F0EAFD27
:102A7000022249460C2004F0E5FD0A23B5FBF3F0E1
:102A800003FB1051684600EB41076421B5FBF1F4EC
:102A900001FB1454B4FBF3F300EB43064FF47A73D9
:102AA000B5FBF3F403FB1453B3FBF1F1C9B200EB34
:102AB0004104BAF1000F06D000EB4A0102220020C7
:102AC00004F0C0FD01E00E9828B102222146104614
:102AD00004F0B8FD01E00C9820B102223146042038
:102AE00004F0B0FD02223946062004F0ABFD17B019
:102AF000BDE8F08F0F0506000B060F0206030D035D
:102B00000D0707000F070F03050F0006060B020F46
:102B10000306030D070D0007070F030F3001002008
:102B20002DE9F04FFBA02DED028B8BB000680A90D1
:102B30001422F9A16846FEF793FA1422FBA105A816
:102B4000FEF78EFAFE48FF4DFF4E0078012770B366
:102B5000AC1421462846FFF745F980B9307920B9F1
:102B60007078401C707001F00DFF21462846FFF779
:102B700039F90028F9D07078062800D977704FF419
:102B8000804421462846FFF72DF980B9307920B9D5
:102B90007078401E707001F0F5FE21462846FFF760
:102BA00021F90028F9D0707808B906207070717882
:102BB000E648E74C4FF003084FF400594FF4006A21
:102BC00007297DD2DFE801F0CA04CFFDFCFBFA0043
:102BD00080218346FFF706F980B9FEF7BBFEDD488A
:102BE000DE4A0088126800EB80004004010CDA48DD
:102BF000007800EB80004000FFF760F98021584624
:102C0000FFF7F0F801285BD149462846FFF7EAF8BC
:102C100080B9307970B901F0B5FEB078401CB07061
:102C200049462846FFF7DEF80028F9D0B078032897
:102C300000D9B7704FF40061C248FFF7D3F8C84D10
:102C4000DFF82093DFF820A3C84FDFF824B380B962
:102C5000307970B901F096FEB078401E86F8020017
:102C60004FF40061B748FFF7BDF80028F8D0B078FE
:102C700018B1B078012803D02DE086F8028043E037
:102C8000207880B9FEF766FE28889AF8003000EBBD
:102C900080004004010C99F800003A6800EB8000C5
:102CA0004000FFF74DFA2078012814D1FEF752FEBC
:102CB000BBF8000000EB80004004010CAD4800E0D0
:102CC0004CE0AD4A00781378AC4A00EB800040003D
:102CD0001268FFF7B9FCB078022812D1FEF73AFE6D
:102CE000A748A94A0088137800EB80004004010C33
:102CF000A448A64A0078126800EB80004000FFF765
:102D000061FBB078032829D12078012810D1FEF783
:102D100021FE28889AF8003000EB80004004010C66
:102D200099F800003A6800EB80004000FFF708FACD
:102D30002078002812D1FEF70DFEBBF800008E4A65
:102D400000EB80004004010C8A4813788B4A00781D
:102D500000EB800040001268FFF776FC0BB0BDEC82
:102D6000028BBDE8F08F80218346FFF73BF848B91E
:102D7000FEF7F0FD864840F2F5120188854800888C
:102D800000F072FA80215846FFF72CF80128E5D1AF
:102D900049462846FFF726F8A8B9307998B901F0D6
:102DA000F1FDF078401CF07049462846FFF71AF80C
:102DB0000028F9D0F078032805D903E044E29DE12A
:102DC00096E158E0F7704FF400612846FFF70AF8E3
:102DD000714D724FDFF8C891DFF8C8A180B9307922
:102DE00070B901F0CFFDF0784FF4006B401EF07029
:102DF00059465448FEF7F6FF0028F9D0F07818B18C
:102E0000F078012803D00EE086F8038021E0FEF779
:102E1000A1FD207840F2F51248B1B9F80010BAF8D7
:102E2000000000F089FDF078022805D00EE0298826
:102E3000388800F039FBF6E7FEF78CFD5A4840F27F
:102E4000F51201885948008800F052FCF0780328F8
:102E500084D1FEF77FFD207840F2F51220B1298859
:102E6000388800F021FB79E7B9F80010BAF80000C3
:102E700000F062FD72E780218346FEF7B3FFB2EEF9
:102E8000048AC0B9FEF766FD494890ED000A20EEBD
:102E9000080ABCEEC00A10EE100A82B2454890ED56
:102EA000000A20EE080ABCEEC00A10EE100A81B239
:102EB000002000F065FE80215846FEF793FF0128B0
:102EC000D1D149462846FEF78DFF80B9307970B9D7
:102ED00001F058FDF078401CF07049462846FEF796
:102EE00081FF0028F9D0F078032800D9F7704FF45B
:102EF00000612846FEF776FF2F4D304FDFF8C09077
:102F0000DFF8C0A020B9307910B901F03BFD5BE0DB
:102F100067E00000000209050F0506000B060F021E
:102F200006030D030D0707000F070F03050F00062B
:102F3000060B020F0306030D070D0007070F030F13
:102F40000B000020000C02402C0100200010024069
:102F50000A0000201A000020000000205800002075
:102F60002000002001000020070000205C0000205D
:102F7000240000200300002009000020640000203D
:102F80002200002002000020080000206000002035
:102F90001E0000201C0000202C0000202600002025
:102FA000300000202A0000202E00002028000020F1
:102FB0003C00002038000020440000204000002099
:102FC0005400002050000020F0784FF4006B401EA9
:102FD000F0705946A048FEF705FF0028F9D0F078B8
:102FE00018B1F078012803D01BE086F803804FE089
:102FF000FEF7B0FC2078C0B199ED000A20EE080A77
:10300000BCEEC00A10EE100A9AED000A82B220EE61
:10301000080ABCEEC00A10EE100A81B2002001F0CE
:10302000EDF8F078022816D02EE095ED000A20EE9B
:10303000080ABCEEC00A10EE100A97ED000A82B230
:1030400020EE080ABCEEC00A10EE100A81B2002081
:1030500000F0A8FEE5E7FEF77DFC804890ED000A51
:1030600020EE080ABCEEC00A10EE100A82B27C48BC
:1030700090ED000A20EE080ABCEEC00A10EE100A1D
:1030800081B2002000F0A4FFF07803287FF4EBAEBB
:10309000FEF760FC2078A8B195ED000A20EE080A42
:1030A000BCEEC00A10EE100A97ED000A82B220EEC4
:1030B000080ABCEEC00A10EE100A81B2002000F02F
:1030C00071FE4BE699ED000A20EE080ABCEEC00A3C
:1030D00010EE100A9AED000A82B220EE080ABCEE49
:1030E000C00A10EE100A81B2002001F087F835E620
:1030F000FEF730FC0220FEF781FE2FE6FEF72AFCE9
:1031000001211C2004F0C4FA01211F2004F0C0FAA0
:10311000307918B90A211F2004F0BAFA3079012851
:1031200003D10C211F2004F0B3FA4FF4007841467C
:103130002846FEF757FE4B4C38B901F023FC707956
:10314000204410F8011D491C017041464248FEF719
:1031500049FE0028F9D07279A01810F8011C6429E2
:1031600001D900F8017C10F8011C0E20B17100EBB0
:103170004200FEF753F904220AA9142004F062FA6F
:1031800072790A21B2FBF1F001FB1025B279EB460E
:10319000B2FBF1F401FB14280BEB400102221220D8
:1031A00004F050FA0BEB45010222102004F04AFA19
:1031B00005AD05EB440102220A2004F043FA05EBB9
:1031C000480102220C2004F03DFA234C4D464946AA
:1031D0002046FEF707FE80B9307970B901F0D2FBC6
:1031E0007079401C707129462046FEF7FBFD0028CF
:1031F000F9D07079202800D977715546514620467C
:10320000FEF7F0FD00287FF42EAE30790028FAD1C9
:1032100001F0B8FB7079401E707129462046FEF718
:10322000E1FD0028F9D0707908B9202070710D49AE
:10323000C0B2014411F8011CB1710A49203108449F
:1032400010F8010CF07189E5FEF784FB00221146AD
:103250001046FFF73FFB81E5000C02404C000020C8
:1032600048000020BDCB00202DE9F04F95B004466A
:103270000D461646142276A16846FDF7F1FE14228B
:1032800078A105A8FDF7ECFE14227BA10FA8FDF79D
:10329000E7FE14227DA10AA8FDF7E2FE01211C2011
:1032A00004F0F6F901211F2004F0F2F97C4F387880
:1032B00018B90821182004F0EBF93878012803D157
:1032C0000C21182004F0E4F93878022803D10A21EF
:1032D000182004F0DDF93878032803D109211820DB
:1032E00004F0D6F90821192004F0D2F96D4F38788E
:1032F00018B90A211F2004F0CBF93878012803D12E
:103300000C211F2004F0C4F94FF47A7BB4FBFBFCC2
:103310000BFB1C426420B2FBF0F000F0FF0A0A2015
:10332000B4FBF0F200FB12426F4607EB4209642245
:10333000B4FBF2F302FB1343B3FBF0F007EB4008DE
:10334000584600FB1C40B0FBF2F0C0B20CF0FF018D
:1033500007EB400431B107EB41010222162004F0D3
:1033600071F902E0BAF1000F04D0022221461420C4
:1033700004F068F902224146122004F063F90222A7
:103380004946102004F05EF9B5FBFBF10BFB11532D
:103390004FF0640BB3FBFBF202F0FF0C0A23B5FB0A
:1033A000F3F203FB12540DF1140A0AEB44085A46D7
:1033B000B5FBF2F40BFB1454B4FBF3F4C8B24FF4B6
:1033C0007A7303FB1151B1FBFBF10AEB4409CAB25A
:1033D0000AEB420430B107EB400102220E2004F058
:1033E00031F902E0BCF1000F04D00222214608208E
:1033F00004F028F9022249460A2004F023F90222A7
:1034000041460C2004F01EF9B6FBFBF2D1B20BFBD7
:1034100012620A20B2FBF0F5B6FBF0F200FB126478
:10342000022256460AEB4101104604F00BF906EB66
:1034300045010222042004F005F90AA800EB44012A
:103440000222062004F0FEF815B0BDE8F08F00005F
:103450000F0506000B060F0206030D030D070700FC
:103460000F070F03050F0006060B020F0306030DDF
:10347000070D0007070F030F0F0D06080B0E0F0AAD
:10348000060B0D0B0D0F07080F0F0F0B0D0F080686
:103490000E0B0A0F0B060B0D0F0D08070F0F0B0F6E
:1034A00004000020300100202DE9F04F95B00446C3
:1034B0000D461646142278A16846FDF7D1FD142268
:1034C0007AA105A8FDF7CCFD14227DA10FA8FDF778
:1034D000C7FD14227FA10AA8FDF7C2FD01211C200F
:1034E00004F0D6F801211F2004F0D2F802211B209D
:1034F00004F0CEF87C4F387818B90021182004F079
:10350000C7F83878012803D10421182004F0C0F846
:103510003878022803D10221182004F0B9F838784D
:10352000032803D10121182004F0B2F80821192042
:1035300004F0AEF86D4F387818B90A211F2004F056
:10354000A7F83878012803D10C211F2004F0A0F837
:103550004FF47A7BB4FBFBFC0BFB1C426420B2FBF8
:10356000F0F000F0FF0A0A20B4FBF0F200FB124278
:103570006F4607EB42096422B4FBF2F302FB1343EC
:10358000B3FBF0F007EB4008584600FB1C40B0FBD3
:10359000F2F0C0B20CF0FF0107EB400431B107EBD1
:1035A00041010222162004F04DF802E0BAF1000FAA
:1035B00004D002222146142004F044F8022241469D
:1035C000122004F03FF802224946102004F03AF895
:1035D000B5FBFBF10BFB11534FF0640BB3FBFBF29C
:1035E00002F0FF0C0A23B5FBF3F203FB12540DF1BA
:1035F000140A0AEB44085A46B5FBF2F40BFB1454C8
:10360000B4FBF3F4C8B24FF47A7303FB1151B1FB6E
:10361000FBF10AEB4409CAB20AEB420430B107EBF2
:10362000400102220E2004F00DF802E0BCF1000F70
:1036300004D002222146082004F004F80222494660
:103640000A2003F0FFFF022241460C2003F0FAFF9C
:10365000B6FBFBF2D1B20BFB12620A20B2FBF0F513
:10366000B6FBF0F200FB1264022256460AEB41015F
:10367000104603F0E7FF06EB45010222042003F0A9
:10368000E1FF0AA800EB44010222062003F0DAFF62
:1036900015B0BDE8F08F00000F0506000B060F0205
:1036A00006030D030D0707000F070F03050F0006A4
:1036B000060B020F0306030D070D0007070F030F8C
:1036C0000F0D06080B0E0F0A060B0D0B0D0F07084A
:1036D0000F0F0F0B0D0F08060E0B0A0F0B060B0D2D
:1036E0000F0D08070F0F0B0F040000203001002002
:1036F0002DE9F04F95B004460D461646142278A1E8
:103700006846FDF7ADFC14227AA105A8FDF7A8FCD8
:1037100014227DA10FA8FDF7A3FC14227FA10AA803
:10372000FDF79EFC01211C2003F0B2FF01211F20A8
:1037300003F0AEFF04211B2003F0AAFF7C4F387872
:1037400018B90021182003F0A3FF3878012803D10D
:103750000421182003F09CFF3878022803D10221AD
:10376000182003F095FF3878032803D10121182091
:1037700003F08EFF0821192003F08AFF6D4F38787F
:1037800018B90A211F2003F083FF3878012803D1DC
:103790000C211F2003F07CFF4FF47A7BB4FBFBFC71
:1037A0000BFB1C426420B2FBF0F000F0FF0A0A2081
:1037B000B4FBF0F200FB12426F4607EB42096422B1
:1037C000B4FBF2F302FB1343B3FBF0F007EB40084A
:1037D000584600FB1C40B0FBF2F0C0B20CF0FF01F9
:1037E00007EB400431B107EB41010222162003F040
:1037F00029FF02E0BAF1000F04D002222146142072
:1038000003F020FF02224146122003F01BFF022298
:103810004946102003F016FFB5FBFBF10BFB1153DB
:103820004FF0640BB3FBFBF202F0FF0C0A23B5FB75
:10383000F3F203FB12540DF1140A0AEB44085A4642
:10384000B5FBF2F40BFB1454B4FBF3F4C8B24FF421
:103850007A7303FB1151B1FBFBF10AEB4409CAB2C5
:103860000AEB420430B107EB400102220E2003F0C4
:10387000E9FE02E0BCF1000F04D00222214608203C
:1038800003F0E0FE022249460A2003F0DBFE02229A
:1038900041460C2003F0D6FEB6FBFBF2D1B20BFB87
:1038A00012620A20B2FBF0F5B6FBF0F200FB1264E4
:1038B000022256460AEB4101104603F0C3FE06EB16
:1038C00045010222042003F0BDFE0AA800EB4401DA
:1038D0000222062003F0B6FE15B0BDE8F08F00000E
:1038E0000F0506000B060F0206030D030D07070068
:1038F0000F070F03050F0006060B020F0306030D4B
:10390000070D0007070F030F0F0D06080B0E0F0A18
:10391000060B0D0B0D0F07080F0F0F0B0D0F0806F1
:103920000E0B0A0F0B060B0D0F0D08070F0F0B0FD9
:1039300004000020300100202DE9F04F95B004462E
:103940000D461646142278A16846FDF789FB14221D
:103950007AA105A8FDF784FB14227DA10FA8FDF72D
:103960007FFB14227FA10AA8FDF77AFB01211C200E
:1039700003F08EFE01211F2003F08AFE04211A208D
:1039800003F086FE7C4F387818B90021182003F028
:103990007FFE3878012803D10421182003F078FE37
:1039A0003878022803D10221182003F071FE3878FC
:1039B000032803D10121182003F06AFE08211920F1
:1039C00003F066FE6D4F387818B90A211F2003F006
:1039D0005FFE3878012803D10C211F2003F058FE28
:1039E0004FF47A7BB4FBFBFC0BFB1C426420B2FB64
:1039F000F0F000F0FF0A0A20B4FBF0F200FB1242E4
:103A00006F4607EB42096422B4FBF2F302FB134357
:103A1000B3FBF0F007EB4008584600FB1C40B0FB3E
:103A2000F2F0C0B20CF0FF0107EB400431B107EB3C
:103A300041010222162003F005FE02E0BAF1000F58
:103A400004D002222146142003F0FCFD022241464C
:103A5000122003F0F7FD02224946102003F0F2FD88
:103A6000B5FBFBF10BFB11534FF0640BB3FBFBF207
:103A700002F0FF0C0A23B5FBF3F203FB12540DF125
:103A8000140A0AEB44085A46B5FBF2F40BFB145433
:103A9000B4FBF3F4C8B24FF47A7303FB1151B1FBDA
:103AA000FBF10AEB4409CAB20AEB420430B107EB5E
:103AB000400102220E2003F0C5FD02E0BCF1000F20
:103AC00004D002222146082003F0BCFD0222494610
:103AD0000A2003F0B7FD022241460C2003F0B2FD9C
:103AE000B6FBFBF2D1B20BFB12620A20B2FBF0F57F
:103AF000B6FBF0F200FB1264022256460AEB4101CB
:103B0000104603F09FFD06EB45010222042003F05E
:103B100099FD0AA800EB44010222062003F092FD61
:103B200015B0BDE8F08F00000F0506000B060F0270
:103B300006030D030D0707000F070F03050F00060F
:103B4000060B020F0306030D070D0007070F030FF7
:103B50000F0D06080B0E0F0A060B0D0B0D0F0708B5
:103B60000F0F0F0B0D0F08060E0B0A0F0B060B0D98
:103B70000F0D08070F0F0B0F04000020300100206D
:103B80002DE9F0479AB004460D46164614226FA15F
:103B900005A8FDF765FA142271A16846FDF760FAE1
:103BA000142274A10FA8FDF75BFA142276A10AA8CB
:103BB000FDF756FA01211C2003F06AFD01211F20A8
:103BC00003F066FD754F387818B90821182003F006
:103BD0005FFD3878012803D10C21182003F058FD2F
:103BE0003878022803D10A21182003F051FD3878D3
:103BF000032803D10921182003F04AFD08211A20C7
:103C000003F046FD664F387818B90A211F2003F0EB
:103C10003FFD3878012803D10C211F2003F038FD27
:103C20004FF47A71B4FBF1F001FB10434FF0640ADA
:103C3000B3FBFAF101F0FF090A21B4FBF1F301FB38
:103C400013430FAF07EB43085346B4FBF3F70AFBEC
:103C50001747B7FBF1F10DF1140C0CEB4107C2B2A1
:103C60004FF47A7101FB1040B0FBFAF0C0B20CEBDC
:103C7000400432B10CEB42010222162003F0E2FCB8
:103C800002E0B9F1000F04D002222146142003F013
:103C9000D9FC02223946122003F0D4FC022241460C
:103CA000102003F0CFFC4FF00A00B5FBF0F3D14633
:103CB000B5FBF9F700FB13530AA901EB43084FF0DA
:103CC000640101FB1751B1FBF0F06C4617F0FF02E5
:103CD00004EB400505D004EB42010222082003F06A
:103CE000B1FC022229460A2003F0ACFC0222414624
:103CF0000C2003F0A7FC4FF00A01B6FBF1F3B6FB72
:103D0000F9F201FB13630AAD05EB430712F0FF0064
:103D10004FF0640303FB1262B2FBF1F16A4602EB5F
:103D2000410505D004EB40010222104603F08AFC55
:103D300002222946042003F085FC0222394606208F
:103D400003F080FC1AB0BDE8F08700000F05060004
:103D50000B060F0206030D030D0707000F070F03E5
:103D6000050F0006060B020F0306030D070D0007E3
:103D7000070F030F0F0D06080B0E0F0A060B0D0B96
:103D80000D0F07080F0F0F0B0D0F08060E0B0A0F74
:103D90000B060B0D0F0D08070F0F0B0F0400002073
:103DA000300100202DE9F0479AB004460D46164632
:103DB000142271A105A8FDF753F9142273A16846D6
:103DC000FDF74EF9142276A10FA8FDF749F9142248
:103DD00078A10AA8FDF744F901211C2003F058FC42
:103DE00001211F2003F054FC02211B2003F050FC92
:103DF000754F387818B90021182003F049FC38783D
:103E0000012803D10421182003F042FC387802284D
:103E100003D10221182003F03BFC3878032803D19A
:103E20000121182003F034FC08211A2003F030FC93
:103E3000664F387818B90A211F2003F029FC38781A
:103E4000012803D10C211F2003F022FC4FF47A71CA
:103E5000B4FBF1F001FB10434FF0640AB3FBFAF13D
:103E600001F0FF090A21B4FBF1F301FB13430FAF8B
:103E700007EB43085346B4FBF3F70AFB1747B7FBBE
:103E8000F1F10DF1140C0CEB4107C2B24FF47A7151
:103E900001FB1040B0FBFAF0C0B20CEB400432B1B1
:103EA0000CEB42010222162003F0CCFB02E0B9F138
:103EB000000F04D002222146142003F0C3FB02228B
:103EC0003946122003F0BEFB02224146102003F0C7
:103ED000B9FB4FF00A00B5FBF0F3D146B5FBF9F79B
:103EE00000FB13530AA901EB43084FF0640101FBE7
:103EF0001751B1FBF0F06C4617F0FF0204EB4005E0
:103F000005D004EB42010222082003F09BFB0222B1
:103F100029460A2003F096FB022241460C2003F0BA
:103F200091FB4FF00A01B6FBF1F3B6FBF9F201FB8E
:103F300013630AAD05EB430712F0FF004FF0640373
:103F400003FB1262B2FBF1F16A4602EB410505D0B8
:103F500004EB40010222104603F074FB02222946C2
:103F6000042003F06FFB02223946062003F06AFBAF
:103F70001AB0BDE8F08700000F0506000B060F021F
:103F800006030D030D0707000F070F03050F0006BB
:103F9000060B020F0306030D070D0007070F030FA3
:103FA0000F0D06080B0E0F0A060B0D0B0D0F070861
:103FB0000F0F0F0B0D0F08060E0B0A0F0B060B0D44
:103FC0000F0D08070F0F0B0F040000203001002019
:103FD0002DE9F0479AB004460D461646142271A109
:103FE00005A8FDF73DF8142273A16846FDF738F8DF
:103FF000142276A10FA8FDF733F8142278A10AA89D
:10400000FDF72EF801211C2003F042FB01211F20A7
:1040100003F03EFB04211B2003F03AFB754F387878
:1040200018B90021182003F033FB3878012803D198
:104030000421182003F02CFB3878022803D1022138
:10404000182003F025FB3878032803D1012118201C
:1040500003F01EFB08211A2003F01AFB664F387884
:1040600018B90A211F2003F013FB3878012803D167
:104070000C211F2003F00CFB4FF47A71B4FBF1F01C
:1040800001FB10434FF0640AB3FBFAF101F0FF09A2
:104090000A21B4FBF1F301FB13430FAF07EB430815
:1040A0005346B4FBF3F70AFB1747B7FBF1F10DF1E9
:1040B000140C0CEB4107C2B24FF47A7101FB1040B3
:1040C000B0FBFAF0C0B20CEB400432B10CEB420191
:1040D0000222162003F0B6FA02E0B9F1000F04D074
:1040E00002222146142003F0ADFA022239461220A2
:1040F00003F0A8FA02224146102003F0A3FA4FF081
:104100000A00B5FBF0F3D146B5FBF9F700FB1353FA
:104110000AA901EB43084FF0640101FB1751B1FB01
:10412000F0F06C4617F0FF0204EB400505D004EBFD
:1041300042010222082003F085FA022229460A20C1
:1041400003F080FA022241460C2003F07BFA4FF084
:104150000A01B6FBF1F3B6FBF9F201FB13630AADFA
:1041600005EB430712F0FF004FF0640303FB1262FC
:10417000B2FBF1F16A4602EB410505D004EB4001C8
:104180000222104603F05EFA02222946042003F0C0
:1041900059FA02223946062003F054FA1AB0BDE853
:1041A000F08700000F0506000B060F0206030D0343
:1041B0000D0707000F070F03050F0006060B020F80
:1041C0000306030D070D0007070F030F0F0D060869
:1041D0000B0E0F0A060B0D0B0D0F07080F0F0F0B21
:1041E0000D0F08060E0B0A0F0B060B0D0F0D08071F
:1041F0000F0F0B0F04000020300100202DE9F047C5
:104200009AB004460D46164614226FA105A8FCF785
:1042100027FF142271A16846FCF722FF142274A123
:104220000FA8FCF71DFF142276A10AA8FCF718FFBF
:1042300001211C2003F02CFA01211F2003F028FA91
:104240000C211A2003F024FA734F387818B9002192
:10425000182003F01DFA3878012803D10421182012
:1042600003F016FA3878022803D10221182003F04F
:104270000FFA3878032803D10121182003F008FA37
:10428000664F387818B90A211F2003F001FA3878F0
:10429000012803D10C211F2003F0FAF94FF47A71A1
:1042A000B4FBF1F001FB10434FF0640AB3FBFAF1E9
:1042B00001F0FF090A21B4FBF1F301FB13430FAF37
:1042C00007EB43085346B4FBF3F70AFB1747B7FB6A
:1042D000F1F10DF1140C0CEB4107C2B24FF47A71FD
:1042E00001FB1040B0FBFAF0C0B20CEB400432B15D
:1042F0000CEB42010222162003F0A4F902E0B9F10E
:10430000000F04D002222146142003F09BF9022260
:104310003946122003F096F902224146102003F09C
:1043200091F94FF00A00B5FBF0F3D146B5FBF9F770
:1043300000FB13530AA901EB43084FF0640101FB92
:104340001751B1FBF0F06C4617F0FF0204EB40058B
:1043500005D004EB42010222082003F073F9022287
:1043600029460A2003F06EF9022241460C2003F090
:1043700069F94FF00A01B6FBF1F3B6FBF9F201FB64
:1043800013630AAD05EB430712F0FF004FF064031F
:1043900003FB1262B2FBF1F16A4602EB410505D064
:1043A00004EB40010222104603F04CF90222294698
:1043B000042003F047F902223946062003F042F9AF
:1043C0001AB0BDE8F08700000F0506000B060F02CB
:1043D00006030D030D0707000F070F03050F000667
:1043E000060B020F0306030D070D0007070F030F4F
:1043F0000F0D06080B0E0F0A060B0D0B0D0F07080D
:104400000F0F0F0B0D0F08060E0B0A0F0B060B0DEF
:104410000F0D08070F0F0B0F0400002030010020C4
:104420001CB50121022002F06BFEE020009001206B
:104430008DF8040000208DF8060002200F4C8DF846
:10444000050069462046FDF78FFC20212046FDF738
:10445000D2FC40212046FDF7CEFC80212046FDF70E
:10446000CAFC022002F0B0FE292002F0ADFE0120BD
:1044700002F0AAFE032002F0A7FE1CBD00040240C9
:10448000FEE700007CB5134E4FF400552946304638
:10449000FDF7AFFC01208DF8040002206C008DF8C0
:1044A0000500009469463046FDF75EFC2146304623
:1044B000FDF79FFC022006F055F929463046FDF72E
:1044C0009AFC022006F04EF929463046FDF791FC91
:1044D0007CBD0000000402401CB50121022002F056
:1044E0000FFE4FF4E040009001208DF80400022000
:1044F0000A4C8DF8050069462046FDF735FCA114ED
:104500002046FDF776FC4FF400512046FDF773FC82
:104510004FF480412046FDF76EFC1CBD00040240B4
:104520007CB5134E4FF4005529463046FDF761FC2B
:1045300001208DF8040002206C008DF80500009425
:1045400069463046FDF710FC21463046FDF753FC26
:10455000022006F007F929463046FDF74CFC022000
:1045600006F000F929463046FDF743FC7CBD00000B
:10457000000402402DE9FC4700241B4E80464FF406
:1045800080478DF8044000978DF807406946304613
:10459000FDF7EAFB0025B9467F1039463046FDF7A6
:1045A00028FC022006F0DEF839463046FDF723FCF1
:1045B0006006040E49463046FDF714FC08B1641C41
:1045C000E4B2012006F0CEF86D1CEDB2082DE4D364
:1045D000B8F1000F04D0FFF755FF2046BDE8FC8777
:1045E000FFF79EFFF9E70000000402402DE9FC47B9
:1045F000054601208DF8040002201A4E4FF4804732
:104600008DF80500009769463046FDF7ADFB4FF485
:10461000005841463046FDF7ECFBB94600244746BA
:1046200028064946304602D4FDF7E3FB01E0FDF7DA
:10463000E2FB6806050E022006F094F83946304683
:10464000FDF7D9FB022006F08DF839463046FDF71C
:10465000D0FB022006F086F8641CE4B2082CDFD3FD
:10466000BDE8FC87000402407CB501208DF8040001
:104670000220114D4FF480448DF8050000946946E6
:104680002846FDF771FB21462846FDF7B4FB66106E
:1046900031462846FDF7AFFB032006F063F82146BC
:1046A0002846FDF7A6FB032006F05CF831462846B5
:1046B000FDF79FFB7CBD0000000402407CB501209B
:1046C0008DF804000220114D4FF480448DF8050050
:1046D000009469462846FDF747FB66103146284698
:1046E000FDF787FB21462846FDF783FB032006F0F4
:1046F00039F831462846FDF77EFB21462846FDF76E
:104700007AFB032006F02EF87CBD00000004024076
:104710002DE9FC410024184E4FF480458DF80440EB
:1047200000958DF8074069463046FDF71DFB294688
:104730003046FDF760FB012006F014F86F10394693
:104740003046FDF758FB012006F00CF808E0641C29
:10475000E4B2FA2C04D9FFF7B1FF0120BDE8FC81D7
:1047600029463046FDF73EFB0028F0D13946304659
:10477000FDF73FFB0020F1E70004024002494AF642
:10478000AA20086070470000003000402DE9F04783
:104790009CB001215E4802F0B3FC01214FF4E060BF
:1047A00002F0C6FC4FF0806000905A48019001254D
:1047B000594802A9002431C106A8EE026F034FF444
:1047C00080784FF400390594A0E8D003CDE90B457B
:1047D000DFF848A10D94694650460E94FDF7D4F8D1
:1047E00001215046FDF7C6F84D4802A9CDE9004029
:1047F0004948DFF828A1801C31C106A80594A0E82B
:10480000D003CDE90B45AAF1180A0D94694650462C
:104810000E94FDF7B9F801215046FDF7ABF8680694
:104820000090404801903C4802A9001D31C106A8F3
:104830000594A0E8D003394ECDE90B4518360D9408
:10484000694630460E94FDF79FF801213046FDF78A
:1048500091F80F20032615908DF858608DF85B4075
:1048600015A93148FDF780FA922015908DF858600F
:104870008DF85B4015A92D48FDF776FA179418942A
:10488000199417A81A94FCF715FD0F948DF8404061
:10489000119413941F4C8DF841504C3C8DF850509E
:1048A0000FA92046FCF732FD1E4D0FA94C3D2846AE
:1048B000FCF72CFD1A4E0FA94C3E3046FCF726FDA6
:1048C00001212046FCF718FD01212846FCF714FDC4
:1048D00001213046FCF710FD01212046FCF702FDC6
:1048E00001212846FCF7FEFC01213046FCF7FAFCCA
:1048F00001212046FCF7D4FC01212846FCF7D0FC1E
:1049000001213046FCF7CCFC1CB0BDE8F08700006C
:10491000050040004C2201401400002028640240A1
:104920004C2001404C2101400008024000000240A0
:104930001CB50121082002F0E3FB4FF4FE400024E7
:1049400000908DF8044069460848FDF70DFA0121F2
:10495000102002F0D5FB4FF4607000908DF80440F9
:1049600069460348FDF700FA1CBD0000000C024038
:10497000001002404FF400410148FDF73ABA000030
:10498000000C024010B54FF400410348FDF733FA24
:1049900002496420C87210BD000C024000000020D3
:1049A0002DE9F0470C46F9A1904699468CB091E864
:1049B0002C00C968DDF850A0CDE90251F7A1CDE97E
:1049C000002391E82C00C968CDE90423CDE9065104
:1049D000F6A104AE91E82C00C96808AFCDE90A51F0
:1049E000611E6D46CDE9082340B101287DD10F2914
:1049F0007CD8CCB2B8F1000F79D0D4E00F2974D8AC
:104A0000CCB2B8F1000F11D1385D012140F4E07053
:104A1000FCF7F2FE285D012140F4E070FCF7ECFEAB
:104A2000305D012140F4E070FCF7E6FEB9F1000FC3
:104A300011D1385D022140F4E070FCF7DDFE285D05
:104A4000022140F4E070FCF7D7FE305D022140F413
:104A5000E070FCF7D1FEBAF1000F11D1385D0321EF
:104A600040F4E070FCF7C8FE285D032140F4E070DC
:104A7000FCF7C2FE305D032140F4E070FCF7BCFEA1
:104A8000B8F1010F11D1305D012140F4E070FCF765
:104A9000B3FE285D012140F4E070FCF7ADFE385D07
:104AA000012140F4E070FCF7A7FEB9F1010F11D12C
:104AB000305D022140F4E070FCF79EFE285D02218B
:104AC00040F4E070FCF798FE385D022140F4E0709D
:104AD000FCF792FEBAF1010F15D1305D032140F4CD
:104AE000E070FCF789FE285D02E0B7E0C6E048E030
:104AF00040F4E0700321FCF77FFE385D032140F4B1
:104B0000E070FCF779FEB8F1020F11D1385D012198
:104B100040F4E070FCF770FE305D012140F4E0707D
:104B2000FCF76AFE285D012140F4E070FCF764FEAA
:104B3000B9F1020F11D1385D022140F4E070FCF7A9
:104B40005BFE305D022140F4E070FCF755FE285D0D
:104B5000022140F4E070FCF74FFEBAF1020F7DD164
:104B6000385D032140F4E070FCF746FE305D032120
:104B700040F4E070FCF740FE285D032140F4E07053
:104B8000FCE0385D012140F4E070FCF735FE285D63
:104B9000012140F4E070FCF72FFE305D012140F46C
:104BA000E070FCF729FEB9F1000F11D1385D022148
:104BB00040F4E070FCF720FE285D022140F4E07034
:104BC000FCF71AFE305D022140F4E070FCF714FEA1
:104BD000B8F1010F11D1305D012140F4E070FCF714
:104BE0000BFE285D012140F4E070FCF705FE385D06
:104BF000012140F4E070FCF7FFFDB9F1010F11D184
:104C0000305D022140F4E070FCF7F6FD285D0221E2
:104C100040F4E070FCF7F0FD385D022140F4E070F4
:104C2000FCF7EAFDB8F1020F11D1385D012140F423
:104C3000E070FCF7E1FD305D012140F4E070FCF72D
:104C4000DBFD285D012140F4E070FCF7D5FDB9F1F2
:104C5000020F13D1385D40F4E07000E08FE00221D4
:104C6000FCF7CAFD305D022140F4E070FCF7C4FDA2
:104C7000285D022140F4E070FCF7BEFD113C0F2CD2
:104C80007DD8E4B2B8F1000F11D1385D042140F4B1
:104C9000E070FCF7B1FD285D042140F4E070FCF702
:104CA000ABFD305D042140F4E070FCF7A5FDB9F1E7
:104CB000000F11D1385D052140F4E070FCF79CFD38
:104CC000285D052140F4E070FCF796FD305D05217C
:104CD00040F4E070FCF790FDB8F1010F11D1305DA8
:104CE000042140F4E070FCF787FD285D042140F4C6
:104CF000E070FCF781FD385D042140F4E070FCF7C2
:104D00007BFDB9F1010F11D1305D052140F4E07058
:104D1000FCF772FD285D052140F4E070FCF76CFDA6
:104D2000385D052140F4E070FCF766FDB8F1020F34
:104D300011D1385D042140F4E070FCF75DFD305D79
:104D4000042140F4E070FCF757FD285D042140F495
:104D5000E070FCF751FDB9F1020F13D1385D052168
:104D600040F4E070FCF748FD305D052140F4E07050
:104D7000FCF742FD285D052140F4E07000E001E011
:104D8000FCF73AFD0CB0BDE8F0870000383B30334B
:104D9000282B2023181B1013080B0003393C313437
:104DA000292C2124191C1114090C01043A3D323517
:104DB0002A2D22251A1D12150A0D02052DE9F0478C
:104DC0008EB00C4615469846FEA1DDF8589091E845
:104DD0004C00C968CDE90823CDE90A61FDA10DF1B8
:104DE000200A91E84C00C968CDE90023CDE90261B1
:104DF000FCA104AF91E84C00C968CDE90423CDE9DA
:104E00000661611E6E4648B101287CD10F297BD80E
:104E1000CCB2002D79D0032D77D0CDE00F2972D8F8
:104E2000CCB20DB1032D12D1385D012140F4E070F8
:104E3000FCF7E2FC1AF80400012140F4E070FCF7F2
:104E4000DBFC305D012140F4C070FCF7D5FCB8F10B
:104E5000000F02D0B8F1030F12D1385D022140F4E7
:104E6000E070FCF7C9FC1AF80400022140F4E0707D
:104E7000FCF7C2FC305D022140F4C070FCF7BCFCC2
:104E8000B9F1000F02D0B9F1030F12D1385D03213F
:104E900040F4E070FCF7B0FC1AF80400032140F481
:104EA000E070FCF7A9FC305D032140F4C070FCF712
:104EB000A3FC012D12D1305D012140F4E070FCF71C
:104EC0009BFC1AF80400012140F4E070FCF794FC0C
:104ED000385D012140F4C070FCF78EFCB8F1010F81
:104EE00016D1305D022140F4E070FCF785FC1AF821
:104EF0000400022140F4E070FCF77EFC385D0221E2
:104F000040F4C07002E0B7E0CCE042E0FCF774FC93
:104F1000B9F1010F12D1305D032140F4E070FCF7CC
:104F20006BFC1AF80400032140F4E070FCF764FC09
:104F3000385D032140F4C070FCF75EFC022D0BD1FC
:104F4000385D012140F4C070FCF756FC305D012152
:104F500040F4C070FCF750FCB8F1020F0BD1385D83
:104F6000022140F4C070FCF747FC305D022140F4A0
:104F7000C070FCF741FCB9F1020F7DD1385D03210F
:104F800040F4C070FCF738FC305D032140F4C07081
:104F900015E1385D012140F4E070FCF72DFC1AF8B2
:104FA0000400012140F4E070FCF726FC305D012193
:104FB00040F4C070FCF720FCB8F1000F02D0B8F14B
:104FC000030F12D1385D022140F4E070FCF714FCAD
:104FD0001AF80400022140F4E070FCF70DFC305D8B
:104FE000022140F4C070FCF707FC012D12D1305DA6
:104FF000012140F4E070FCF7FFFB1AF804000121E6
:1050000040F4E070FCF7F8FB385D012140F4C0701B
:10501000FCF7F2FBB8F1010F12D1305D022140F430
:10502000E070FCF7E9FB1AF80400022140F4E0709C
:10503000FCF7E2FB385D022140F4C070FCF7DCFBBA
:10504000022D0BD1385D012140F4C070FCF7D4FB78
:10505000305D012140F4C070FCF7CEFBB8F1020FC7
:105060000DD1385D022140F4C070FCF7C5FB305D06
:10507000022140F4C07000E095E0FCF7BDFB385D14
:10508000032140F4E070FCF7B7FB1AF80400032199
:1050900040F4E070FCF7B0FB305D032140F4E070B9
:1050A000FCF7AAFB113C0F2C7DD8E4B20DB1032D07
:1050B00012D1385D042140F4E070FCF79DFB1AF832
:1050C0000400042140F4E070FCF796FB305D0421FD
:1050D00040F4C070FCF790FBB8F1000F01D0032D35
:1050E00012D1385D052140F4E070FCF785FB1AF819
:1050F0000400052140F4E070FCF77EFB305D0521E3
:1051000040F4C070FCF778FB012D12D1305D042112
:1051100040F4E070FCF770FB1AF80400042140F43E
:10512000E070FCF769FB385D042140F4C070FCF7C7
:1051300063FBB8F1010F12D1305D052140F4E0703E
:10514000FCF75AFB1AF80400052140F4E070FCF764
:1051500053FB385D052140F4C070FCF74DFB022D78
:105160000BD1385D042140F4C070FCF745FB305D85
:10517000042140F4C070FCF73FFBB8F1020F0BD1E3
:10518000385D052140F4C070FCF736FB305D052129
:1051900040F4C070FCF730FB385D062140F4E0704D
:1051A000FCF72AFB00E00CE01AF80400062140F4AA
:1051B000E070FCF721FB305D062140F4E070FCF765
:1051C0001BFB17E0383B3033282B2023181B101310
:1051D000080B0003393C3134292C2124191C1114EB
:1051E000090C01043A3D32352A2D22251A1D1215CB
:1051F0000A0D02050EB0BDE8F087FEE770474FF4D8
:10520000A06000F033B8000070B50F21C4780278B8
:1052100001234FF0E026E4B1124C246804F4E0646A
:10522000C4F5E064C4F30724C4F10405E140447804
:10523000AC4085780D4025430B4C29011155007871
:1052400000F01F018B40400906EB8000C0F80031E0
:1052500070BD02F01F008340500906EB8000C0F8CB
:10526000803170BD0CED00E000E400E0024908432D
:1052700002490860704700000000FA050CED00E0EC
:105280007047000070B505000E46144605D036B1D3
:105290000E48807828B112200DE004200BE00C208D
:1052A00009E02878012808D0022806D0032804D075
:1052B000042802D00120107070BDFAF7E5FF6E617E
:1052C000FAF7E6FF0020207070BD0000A00000206B
:1052D00030B587B000F070F82A4800240463847069
:1052E000C4700472C471C460C46184614461447058
:1052F0008471214600F134025454491CC9B2082972
:10530000FAD3047144718462046200F0B1FF00F0CA
:1053100083FF00F05BFF00F0EDFF01F011F802AA3F
:105320000325202031C218494FF6FF70CDE9000156
:1053300001F17C023F230021144800F007FA05AA7E
:1053400013A13F2000F060FA02AA402031C21449A4
:105350004FF6FE70CDE9000101F1FC023E23002171
:10536000104800F0F3F905AA0FA13E2000F04CFA16
:1053700000F0F8FB00F026F807B0BDE83040FFF77A
:105380007FBF0000A000002024B80020FD640008BA
:1053900075432F4F532D49492049646C6500000027
:1053A00024B700201965000875432F4F532D494934
:1053B0002053746174000000014900200880704788
:1053C0009C000020704700000449C879012804D1DE
:1053D0008878FF2801D2401C88707047A000002008
:1053E00070B5144DE879012822D1FAF74DFF044633
:1053F000A87820B1401E10F0FF00A87013D1E87803
:1054000088B900F0E1FF0C48697950F82100A862E2
:105410002A79914207D0C16B491CC163E868401CDE
:10542000E860FAF74DFF2046BDE87040FAF730BF5C
:1054300070BD0000A0000020A4B8002070B5054693
:105440000E48007808B1002070BDFAF71DFF014634
:105450000B4804680CB1626802600846FAF718FF4E
:105460004CB1012020700020208106A065606061A1
:10547000204600F0A1FE204670BD0000A2000020E2
:10548000B00000203F00000010B5094CE079012871
:105490000CD1FAF7F9FEA17821B9E178FF2901D200
:1054A000491CE170BDE81040FAF7F2BE10BD0000E3
:1054B000A000002010B50D4CE079012814D1FAF7B6
:1054C000E3FEE17831B1491E11F0FF01E17001D135
:1054D000A17819B1BDE81040FAF7DABEFAF7D8FEA4
:1054E000BDE8104000F04CBF10BD0000A00000203F
:1054F00070B505460E48007808B1002070BDFAF777
:10550000C3FE01460B4804680CB16268026008469D
:10551000FAF7BEFE4CB103202070258100206060A8
:1055200005A06061204600F047FE204670BD0000E7
:10553000A2000020B00000203F0000002DE9F0474D
:1055400005008846144604D02878032803D001209B
:105550000AE0042008E02648007808B1022003E0B1
:105560002448007818B10D201070BDE8F087FAF7D4
:105570008BFE06462889002730B1401E2881304620
:10558000FAF786FE2770F0E7DFF86C90D9F8000094
:1055900010F8341F41F001010170477040F8048C8D
:1055A000284600F0DBFD3046FAF772FE00F0E8FE18
:1055B000FAF76AFE0646D9F8000090F8351031B1C6
:1055C000022906D0294600F099FD0A2002E0277042
:1055D00001E00E202070D9F8000000F11C000776D1
:1055E0004776076047603046BDE8F047FAF750BE9F
:1055F000A2000020A3000020C000002070B504001D
:1056000004D02078032803D0012070BD042070BD91
:10561000FAF73AFE0546A07A58B10023012219464E
:10562000204600F02FFD2846FAF732FE00F0A8FED3
:1056300009E020894FF6FF71884206D2401C208184
:105640002846FAF725FE002070BD2846FAF720FE0E
:10565000332070BD10B5094CE07900280CD100F062
:10566000B3FE60790649207151F82000A0622062E3
:10567000BDE81040FAF70FBE10BD0000A0000020EA
:10568000A4B8002010B5022000F0C6F9FAF7FCFD1E
:10569000084C0021E161FAF7FBFD642000F0BCF941
:1056A000FAF7F2FDE169616101216170BDE8104026
:1056B000FAF7EEBDA0000020FBF7CFBE2DE9FE43B8
:1056C00005460F4690461C463F2B02D92A20BDE8CE
:1056D000FE83FAF7D9FD1A49097819B1FAF7D8FD0E
:1056E0003C20F4E7174E56F8241019B1FAF7D0FD14
:1056F0002820ECE7012146F82410FAF7C9FD002321
:1057000042463946284600F0FBF80027014600973C
:1057100001973B463A462046029700F065FE050099
:1057200007D0FAF7B1FD46F82470FAF7B1FD284624
:10573000CDE7054800780128F9D100F021FEF6E711
:10574000A2000020A4B80020A70000202DE9F04FFF
:1057500081462DED028B83B08A46DDE90F879DEDF2
:10576000118A129D93461C463F2B05D92A2003B06F
:10577000BDEC028BBDE8F08FFAF786FD1D49097874
:1057800019B1FAF785FD3C20F1E71B4E56F82410BD
:1057900019B1FAF77DFD2820E9E7012146F8241028
:1057A000FAF776FD2A463946404600F0FDFE2B46C4
:1057B0005A465146484600F0A3F800978DED018AFD
:1057C00001460295424620460E9B00F00DFE050064
:1057D00008D0FAF759FD002146F82410FAF758FDD1
:1057E0002846C4E7054800780128F9D100F0C8FD33
:1057F000F6E70000A2000020A4B80020A7000020C7
:10580000FBF764BEFBF764BE70B505460E46144652
:105810003F2803D9FF2D01D02A2004E02EB11248E1
:10582000007820B11220107070BD0C20FBE7FAF751
:105830002BFD0146FF2D03D10C48006890F836502F
:105840000B4850F82500432540B1012806D00665D5
:105850000846FAF71DFD0020207070BD0846FAF7D3
:1058600017FD257070BD0000A2000020C0000020C0
:10587000A4B80020FBF73ABF2DE9F04104460D46DD
:105880003F2804D9FF2C02D02A20BDE8F08145B181
:10589000002028606860FAF7F7FC0146FF2C02D070
:1058A00005E00920F1E71448006890F836401348F5
:1058B00050F8240058B1012809D0028AD2070BD031
:1058C000D0E9024700260846FAF7E2FC0AE008465B
:1058D000FAF7DEFC4320D8E70846FAF7D9FC452062
:1058E000D3E7761C01CC0028FBD0B0002860B81BA1
:1058F000800068600020C8E7C0000020A4B8002035
:105900004FF080731360131F18606FF0010042F8AE
:10591000080CA2F138004FF012334FF00332C0E907
:105920000A234FF0023242624FF00132C0E90712FF
:105930004FF0113181614FF0103141614FF0093169
:1059400001614FF00831C1604FF0073181604FF0C5
:10595000063141604FF0053140F804194FF0043131
:105960000160704770B5274D04463F2804D005D329
:10597000FF280CD02A2070BD472070BDFAF784FCA8
:105980000346286890F83600A04206D007E0FAF7F0
:105990007BFC0346286890F83640012500E000258E
:1059A000194850F8240068B1012810D090F8382028
:1059B000164C90F83960A15CF643F6B23140A15420
:1059C0000AD010E01846FAF763FC482070BD18466C
:1059D000FAF75EFC432070BD0D4A90F83A10147837
:1059E00024EA0101117010F8341F41F00801017020
:1059F0001846FAF74DFC012D01D100F0C1FC002042
:105A000070BD0000C0000020A4B80020D400002019
:105A1000A6000020FBF76BBE70B504461448007862
:105A2000002824D113480078002820D1002C1ED053
:105A3000FAF72AFC03461048104D006890F8381019
:105A400090F839606A5CF643F6B232406A5406D187
:105A50000B4A90F83A10157825EA01011170046399
:105A60001846FAF715FCBDE8704000F089BC70BD1F
:105A7000A2000020A3000020C0000020D4000020CD
:105A8000A60000202DE9F04100F052F8FAF7FCFBE7
:105A9000264D296B491C2963FAF7FAFBE87901289E
:105AA00041D1687A0126002720B101283BD0022885
:105AB00002D06F72EC6A32E06E72FBE7FAF7E4FB39
:105AC000216B49B3491E216326D194F8341011F09B
:105AD000370F06D001F0C80184F8341084F835601F
